:020000040000FA
:06000000EAEF1BF0120004
:020006001200E6
:08000800F2A402D0E2EF16F0B1
:100010009EA002D057EF17F09EAA02D0E7EF13F090
:080020001200D08EF28E1200D6
:08002800FF0EE3501C6E480EB0
:1000300001D04C0EE76EE72EFED7E76AE72EFED71B
:080040001C2EF7D7000012008E
:06004800A6B2FED7120073
:01004E0000B1
:100050000C00E2390000BB03000025000000E0397D
:100060000000FB03000002000000D5390000AE02D2
:1000700000000B0000004E000000FF030000010024
:100080000000CC390000C302000009000000A439C0
:1000900000009303000028000000903900007E0259
:1000A00000001400000004390000070300008C0069
:1000B0000000E9380000E00300001B000000DD380C
:1000C0000000A20200000C000000D638000000036F
:1000D00000000700000058380000000200007E0009
:0200E00000001E
:0E00E200D9CFE6FFE1CFD9FFE652FD0EDBCF0E
:1000F00016F0FE0EDBCF17F017C016F0176A640E6D
:100100001702F3CF17F01602F3CF16F0F4501726AC
:10011000FD0EDBCF18F0FE0EDBCF19F0040ED890E9
:1001200019321832E804FBE10A0E1902F3CF19F074
:100130001802F3CF18F0F450192616501810146E48
:1001400017501910156E0F0EE76EFD0EDBCF1AF06B
:10015000FE0EDBCF1BF0E7501A161B6A14501A1064
:10016000DF6EDF5000D0E552E552E7CFD9FF120035
:10017000D9CFE6FFE1CFD9FFFE0EDB50F00BE83A16
:10018000060DFE0EDBCFE7FFF350E75EFE0EE7CF76
:10019000DBFFDB50146E156A14C0F3FF15C0F4FFCB
:1001A00000D0E552E7CFD9FF1200D9CFE6FFE1CF6B
:1001B000D9FF020EE1260A0E146E14C00EF0FE0ED8
:1001C000DBCF09F006EC1CF00950DF6E0A0E146E4E
:1001D00014C00EF0FE0EDBCF09F006EC1CF0010E91
:1001E00005C0DBFFDB500F0B146E0F0EDF14100D7C
:1001F000F3501410146E020EE15C03E200D0E16AC9
:10020000E552E16E1450E552E7CFD9FF1200D9CF85
:10021000E6FFE1CFD9FF0E0EE126FD0EDBCF14F095
:10022000FE0EDBCF15F00A0E0D6E0E6A14C008F03C
:1002300015C009F0C4EC1BF004C014F005C015F0A3
:100240000A0E14C0DBFF0B0E15C0DBFF0C0EDB6AC1
:100250000D0EDB6A0A0EDB50E76E040EE7CFDBFF04
:10026000FD0EDBCF14F0FE0EDBCF15F00A0E0D6E87
:100270000E6A14C008F015C009F0C4EC1BF008C0E9
:1002800014F009C015F0060E14C0DBFF070E15C0F0
:10029000DBFF080EDB6A090EDB6A060EDBCF06F019
:1002A000070EDBCF07F0080EDBCF08F0090EDBCF1F
:1002B00009F00A0E0B6E0C6A0D6A0E6AABEC1AF0AE
:1002C0000A0E02C0DBFF0B0E03C0DBFF0C0E04C0E6
:1002D000DBFF0D0E05C0DBFF0A0EDB50E76E030EE1
:1002E000E7CFDBFF060EDBCF06F0070EDBCF07F014
:1002F000080EDBCF08F0090EDBCF09F00A0E0B6EFB
:100300000C6A0D6A0E6AABEC1AF0060E06C0DBFF33
:10031000070E07C0DBFF080E08C0DBFF090E09C08F
:10032000DBFF060EDBCF06F0070EDBCF07F0080E73
:10033000DBCF08F0090EDBCF09F00A0E0B6E0C6A5A
:100340000D6A0E6AABEC1AF00A0E02C0DBFF0B0E50
:1003500003C0DBFF0C0E04C0DBFF0D0E05C0DBFF8E
:100360000A0EDB50E76E020EE7CFDBFF060EDBCF97
:1003700006F0070EDBCF07F0080EDBCF08F0090E02
:10038000DBCF09F00A0E0B6E0C6A0D6A0E6AABEC3D
:100390001AF0060E06C0DBFF070E07C0DBFF080ED3
:1003A00008C0DBFF090E09C0DBFF060EDBCF06F03D
:1003B000070EDBCF07F0080EDBCF08F0090EDBCF0E
:1003C00009F00A0E0B6E0C6A0D6A0E6AABEC1AF09D
:1003D0000A0E02C0DBFF0B0E03C0DBFF0C0E04C0D5
:1003E000DBFF0D0E05C0DBFF0A0EDB50E76E010ED2
:1003F000E7CFDBFF060EDBCF06F0070EDBCF07F003
:10040000080EDBCF08F0090EDBCF09F00A0E0B6EE9
:100410000C6A0D6A0E6AABEC1AF0060E06C0DBFF22
:10042000070E07C0DBFF080E08C0DBFF090E09C07E
:10043000DBFF060EDB50DF6E050EDB6AF36EDBCFF3
:10044000F4FFF350F45C21E2D9CF14F0DACF15F0C9
:10045000050EDB500F011424E96E000E1520EA6E24
:10046000EF50E66E050EDB50E76EFB0EDBCFE9FFCB
:10047000FC0EDBCFEAFFE750E926000EEA22E55248
:10048000E750EF6E050EDB2AD9D70E0EE15C02E2D3
:10049000E16AE552E16EE552E7CFD9FF1200D9CF0C
:1004A000E6FFE1CFD9FF080EE1260A0E146E14C054
:1004B0000EF0FE0EDBCF09F006EC1CF00550E66EE8
:1004C000D950060FE96EDACFEAFFE552E750EE6E3B
:1004D000ED6A060EDB50E76E020EE7CFDBFF0A0E79
:1004E000146E14C00EF0FE0EDBCF09F006EC1CF00B
:1004F0000950E66ED950040FE96EDACFEAFFE552F3
:10050000E750EE6EED6A040EDBCF14F0050EDBCF84
:1005100015F00A0E0D6E0E6A14C008F015C009F031
:10052000C4EC1BF004C014F005C015F0060E14C096
:10053000DBFF070E15C0DBFF060EDB50E76E010E7A
:10054000E7CFDBFF0A0E146E156A040EDBCF08F04E
:10055000050EDBCF09F014C00DF015C00EF0C4EC91
:100560001BF0040E08C0DBFF050E09C0DBFF040E04
:10057000DB50DF6E030EDB6AF36EDBCFF4FFF3506C
:10058000F45C21E2D9CF14F0DACF15F0030EDB5082
:100590000F011424E96E000E1520EA6EEF50E66E8E
:1005A000030EDB50E76EFC0EDBCFE9FFFD0EDBCF69
:1005B000EAFFE750E926000EEA22E552E750EF6E27
:1005C000030EDB2AD9D7080EE15C02E2E16AE552AC
:1005D000E16EE552E7CFD9FF1200D9CFE6FFE1CFB8
:1005E000D9FF130EE126FB0EDBCF06F0FC0EDBCFAE
:1005F00007F0FD0EDBCF08F0FE0EDBCF09F00A0E90
:100600000B6E0C6A0D6A0E6AABEC1AF00F0E02C08C
:10061000DBFF100E03C0DBFF110E04C0DBFF120E68
:1006200005C0DBFF0F0EDB50E76E090EE7CFDBFFE7
:10063000FB0EDBCF06F0FC0EDBCF07F0FD0EDBCFB1
:1006400008F0FE0EDBCF09F00A0E0B6E0C6A0D6A85
:100650000E6AABEC1AF00B0E06C0DBFF0C0E07C0E7
:10066000DBFF0D0E08C0DBFF0E0E09C0DBFF0B0E1B
:10067000DBCF06F00C0EDBCF07F00D0EDBCF08F062
:100680000E0EDBCF09F00A0E0B6E0C6A0D6A0E6AB5
:10069000ABEC1AF00F0E02C0DBFF100E03C0DBFF45
:1006A000110E04C0DBFF120E05C0DBFF0F0EDB5086
:1006B000E76E080EE7CFDBFF0B0EDBCF06F00C0E6C
:1006C000DBCF07F00D0EDBCF08F00E0EDBCF09F00D
:1006D0000A0E0B6E0C6A0D6A0E6AABEC1AF00B0E6A
:1006E00006C0DBFF0C0E07C0DBFF0D0E08C0DBFFF2
:1006F0000E0E09C0DBFF0B0EDBCF06F00C0EDBCFBE
:1007000007F00D0EDBCF08F00E0EDBCF09F00A0E5E
:100710000B6E0C6A0D6A0E6AABEC1AF00F0E02C07B
:10072000DBFF100E03C0DBFF110E04C0DBFF120E57
:1007300005C0DBFF0F0EDB50E76E070EE7CFDBFFD8
:100740000B0EDBCF06F00C0EDBCF07F00D0EDBCF70
:1007500008F00E0EDBCF09F00A0E0B6E0C6A0D6A64
:100760000E6AABEC1AF00B0E06C0DBFF0C0E07C0D6
:10077000DBFF0D0E08C0DBFF0E0E09C0DBFF0B0E0A
:10078000DBCF06F00C0EDBCF07F00D0EDBCF08F051
:100790000E0EDBCF09F00A0E0B6E0C6A0D6A0E6AA4
:1007A000ABEC1AF00F0E02C0DBFF100E03C0DBFF34
:1007B000110E04C0DBFF120E05C0DBFF0F0EDB5075
:1007C000E76E060EE7CFDBFF0B0EDBCF06F00C0E5D
:1007D000DBCF07F00D0EDBCF08F00E0EDBCF09F0FC
:1007E0000A0E0B6E0C6A0D6A0E6AABEC1AF00B0E59
:1007F00006C0DBFF0C0E07C0DBFF0D0E08C0DBFFE1
:100800000E0E09C0DBFF0B0EDBCF06F00C0EDBCFAC
:1008100007F00D0EDBCF08F00E0EDBCF09F00A0E4D
:100820000B6E0C6A0D6A0E6AABEC1AF00F0E02C06A
:10083000DBFF100E03C0DBFF110E04C0DBFF120E46
:1008400005C0DBFF0F0EDB50E76E050EE7CFDBFFC9
:100850000B0EDBCF06F00C0EDBCF07F00D0EDBCF5F
:1008600008F00E0EDBCF09F00A0E0B6E0C6A0D6A53
:100870000E6AABEC1AF00B0E06C0DBFF0C0E07C0C5
:10088000DBFF0D0E08C0DBFF0E0E09C0DBFF0B0EF9
:10089000DBCF06F00C0EDBCF07F00D0EDBCF08F040
:1008A0000E0EDBCF09F00A0E0B6E0C6A0D6A0E6A93
:1008B000ABEC1AF00F0E02C0DBFF100E03C0DBFF23
:1008C000110E04C0DBFF120E05C0DBFF0F0EDB5064
:1008D000E76E040EE7CFDBFF0B0EDBCF06F00C0E4E
:1008E000DBCF07F00D0EDBCF08F00E0EDBCF09F0EB
:1008F0000A0E0B6E0C6A0D6A0E6AABEC1AF00B0E48
:1009000006C0DBFF0C0E07C0DBFF0D0E08C0DBFFCF
:100910000E0E09C0DBFF0B0EDBCF06F00C0EDBCF9B
:1009200007F00D0EDBCF08F00E0EDBCF09F00A0E3C
:100930000B6E0C6A0D6A0E6AABEC1AF00F0E02C059
:10094000DBFF100E03C0DBFF110E04C0DBFF120E35
:1009500005C0DBFF0F0EDB50E76E030EE7CFDBFFBA
:100960000B0EDBCF06F00C0EDBCF07F00D0EDBCF4E
:1009700008F00E0EDBCF09F00A0E0B6E0C6A0D6A42
:100980000E6AABEC1AF00B0E06C0DBFF0C0E07C0B4
:10099000DBFF0D0E08C0DBFF0E0E09C0DBFF0B0EE8
:1009A000DBCF06F00C0EDBCF07F00D0EDBCF08F02F
:1009B0000E0EDBCF09F00A0E0B6E0C6A0D6A0E6A82
:1009C000ABEC1AF00F0E02C0DBFF100E03C0DBFF12
:1009D000110E04C0DBFF120E05C0DBFF0F0EDB5053
:1009E000E76E020EE7CFDBFF0B0EDBCF06F00C0E3F
:1009F000DBCF07F00D0EDBCF08F00E0EDBCF09F0DA
:100A00000A0E0B6E0C6A0D6A0E6AABEC1AF00B0E36
:100A100006C0DBFF0C0E07C0DBFF0D0E08C0DBFFBE
:100A20000E0E09C0DBFF0B0EDBCF06F00C0EDBCF8A
:100A300007F00D0EDBCF08F00E0EDBCF09F00A0E2B
:100A40000B6E0C6A0D6A0E6AABEC1AF00F0E02C048
:100A5000DBFF100E03C0DBFF110E04C0DBFF120E24
:100A600005C0DBFF0F0EDB50E76E010EE7CFDBFFAB
:100A70000B0EDBCF06F00C0EDBCF07F00D0EDBCF3D
:100A800008F00E0EDBCF09F00A0E0B6E0C6A0D6A31
:100A90000E6AABEC1AF00B0E06C0DBFF0C0E07C0A3
:100AA000DBFF0D0E08C0DBFF0E0E09C0DBFF0B0ED7
:100AB000DB50DF6E0A0EDB6AF36EDBCFF4FFF35020
:100AC000F45C22E2D9CF14F0DACF15F00A0EDB5035
:100AD0000F011424E96E000E1520EA6EEF50300964
:100AE000E66E0A0EDB50E76EF90EDBCFE9FFFA0E79
:100AF000DBCFEAFFE750E926000EEA22E552E75095
:100B0000EF6E0A0EDB2AD8D7130EE15C02E2E16A2F
:100B1000E552E16EE552E7CFD9FF1200D9CFE6FFEB
:100B2000E1CFD9FFFE0EDB50F00BE83A060DFE0ECA
:100B3000DBCFE7FFF350E75EFE0EE7CFDBFFDB50D6
:100B400000D0E552E7CFD9FF1200D9CFE6FFE1CFC1
:100B5000D9FF0A0E146E14C00EF0FE0EDBCF09F0A2
:100B600006EC1CF00950060DFE0EDBCFE7FFF3503C
:100B7000E726FE0EE7CFDBFFDB50146E156A14C0CC
:100B8000F3FF15C0F4FF00D0E552E7CFD9FF120004
:100B9000D9CFE6FFE1CFD9FF060EE126F36EFC0EBA
:100BA000DBCFF4FFF350F45C71E2020EDB6A030E5C
:100BB000DB6A040EDB6A050EDB6ADF6AFC0EDB50C3
:100BC000DF5C58E2FC0EDBCFE6FFDF28E552E75C96
:100BD000E76E010EE7CFDBFFF36E040EF3CFDBFF12
:100BE000050EDB6A010EDB50000814E20A0E086EE7
:100BF000096A040EDBCF0DF0050EDBCF0EF052ECD0
:100C00001BF0040E06C0DBFF050E07C0DBFF010E64
:100C1000DB06E8D7020EDBCF16F0030EDBCF17F0B2
:100C2000DF50E76EFD0EDBCFE9FFFE0EDBCFEAFF04
:100C3000E750E926000EEA22EF500F0B186E196AF2
:100C4000040EDBCF08F0050EDBCF09F018C00DF065
:100C500019C00EF052EC1BF016500624146E1750FB
:100C60000720156E020E14C0DBFF030E15C0DBFF5C
:100C7000DF2AA4D7020EDBCF14F0030EDBCF15F072
:100C800014C0F3FF15C0F4FF04D003D0F36AF46A74
:100C900000D0060EE15C02E2E16AE552E16EE55247
:060CA000E7CFD9FF1200AE
:0A0CA600D9CFE6FFE1CFD9FFFE0E23
:100CB000DB04E96EEA6AD890E936EA36940EE92652
:100CC000030EEA22EECF14F0EFCF15F014C0F3FFBD
:100CD00015C0F4FF00D0E552E7CFD9FF1200D9CFFD
:100CE000E6FFE1CFD9FFFE0EDBCFE6FFE66A71EC4F
:100CF00000F0E552E552FF0FE96EEA6AD890E93656
:100D0000EA36A20EE926030EEA22EECF14F0EFCF68
:100D100015F014C0F3FF15C0F4FF00D0E552E7CF83
:100D2000D9FF1200D9CFE6FFE1CFD9FF37EC18F099
:100D3000D00EE66E7BEC18F0E552E66A7BEC18F01C
:100D4000E55237EC18F0D10EE66E7BEC18F0E55268
:100D5000010EE66EC2EC18F0E552E66EFD0EDBCF3A
:100D6000E9FFFE0EDBCFEAFFE552E750EF6E010E22
:100D7000E66EC2EC18F0E552E66E010EE76EFD0E6F
:100D8000DBCFE9FFFE0EDBCFEAFFE750E926000EDE
:100D9000EA22E552E750EF6E010EE66EC2EC18F063
:100DA000E552E66E020EE76EFD0EDBCFE9FFFE0EAA
:100DB000DBCFEAFFE750E926000EEA22E552E750D2
:100DC000EF6E010EE66EC2EC18F0E552E66E030E11
:100DD000E76EFD0EDBCFE9FFFE0EDBCFEAFFE7504B
:100DE000E926000EEA22E552E750EF6E010EE66EAC
:100DF000C2EC18F0E552E66E040EE76EFD0EDBCF96
:100E0000E9FFFE0EDBCFEAFFE750E926000EEA22FB
:100E1000E552E750EF6E010EE66EC2EC18F0E552B7
:100E2000E66E050EE76EFD0EDBCFE9FFFE0EDBCFB3
:100E3000EAFFE750E926000EEA22E552E750EF6E9E
:100E4000E66AC2EC18F0E552E66E060EE76EFD0E9D
:100E5000DBCFE9FFFE0EDBCFEAFFE750E926000E0D
:100E6000EA22E552E750EF6E4DEC18F0E552E7CF7D
:100E7000D9FF1200D9CFE6FFE1CFD9FF37EC18F048
:100E8000D00EE66E7BEC18F0E552E66A7BEC18F0CB
:100E9000E552FD0EDBCFE9FFFE0EDBCFEAFFEF50A0
:100EA000E66E7BEC18F0E552010EE76EFD0EDBCF2F
:100EB000E9FFFE0EDBCFEAFFE750E926000EEA224B
:100EC000EF50E66E7BEC18F0E552020EE76EFD0E79
:100ED000DBCFE9FFFE0EDBCFEAFFE750E926000E8D
:100EE000EA22EF50E66E7BEC18F0E552030EE76E57
:100EF000FD0EDBCFE9FFFE0EDBCFEAFFE750E92670
:100F0000000EEA22EF50E66E7BEC18F0E552040E7C
:100F1000E76EFD0EDBCFE9FFFE0EDBCFEAFFE75009
:100F2000E926000EEA22EF50E66E7BEC18F0E5525F
:100F3000050EE76EFD0EDBCFE9FFFE0EDBCFEAFF0D
:100F4000E750E926000EEA22EF50E66E7BEC18F03F
:100F5000E552060EE76EFD0EDBCFE9FFFE0EDBCF9E
:100F6000EAFFE750E926000EEA22EF50E66E7BEC3E
:100F700018F0E5524DEC18F0E552E7CFD9FF12001A
:100F8000D9CFE6FFE1CFD9FFFD0EDB041DE1FE0E58
:100F9000DB504009E76EFE0EE7CFDBFFFC0EDB0403
:100FA00008E1FE0EDB502009E76EFE0EE7CFDBFF07
:100FB0000AD0FC0EDB5007E1FE0EDB50DF0BE76EC4
:100FC000FE0EE7CFDBFF0AD0FD0EDB5007E1FE0E81
:100FD000DB50BF0BE76EFE0EE7CFDBFFFE0EDB50F4
:100FE00000D0E552E7CFD9FF1200D9CFE6FFE1CF1D
:100FF000D9FFFD0EDBCFE9FFFE0EDBCFEAFFEE529D
:10100000EF50E66EFB0EDBCFE9FFFC0EDBCFEAFF15
:10101000EE52E552E750EF6EFD0EDBCFE9FFFE0E1C
:10102000DBCFEAFFEF50E66EFB0EDBCFE9FFFC0EF5
:10103000DBCFEAFFE552E750EF6EFD0EDBCFE9FFB5
:10104000FE0EDBCFEAFF020EE926000EEA22EFCF0A
:1010500014F00C0E145C42E3FD0EDBCFE9FFFE0E34
:10106000DBCFEAFF020EE926000EEA22EF50F40F72
:10107000E66EFB0EDBCFE9FFFC0EDBCFEAFF020ED4
:10108000E926000EEA22E552E750EF6EFB0EDBCFB9
:10109000E9FFFC0EDBCFEAFF070EE926000EEA228D
:1010A000010EEF6E0C0E146EFD0EDBCFE9FFFE0E8F
:1010B000DBCFEAFF020EE926000EEA22EF50145CB5
:1010C0000CE1FB0EDBCFE9FFFC0EDBCFEAFF020EEB
:1010D000E926000EEA220C0EEF6E4BD0FD0EDBCFA0
:1010E000E9FFFE0EDBCFEAFF020EE926000EEA2240
:1010F000EFCF14F00C0E145C3CE2FD0EDBCFE9FFE9
:10110000FE0EDBCFEAFF020EE926000EEA22EF50C8
:10111000E66EFB0EDBCFE9FFFC0EDBCFEAFF020E33
:10112000E926000EEA22E552E750EF6EFB0EDBCF18
:10113000E9FFFC0EDBCFEAFF070EE926000EEA22EC
:10114000EF6AFD0EDBCFE9FFFE0EDBCFEAFF020EFA
:10115000E926000EEA22EF500CE1FB0EDBCFE9FF9F
:10116000FC0EDBCFEAFF020EE926000EEA220C0E8F
:10117000EF6EE552E7CFD9FF1200D9CFE6FFE1CFFE
:10118000D9FFFD0EDBCFE9FFFE0EDBCFEAFFEE520B
:10119000EF50E66EFB0EDBCFE9FFFC0EDBCFEAFF84
:1011A000EE52E552E750EF6EFD0EDBCFE9FFFE0E8B
:1011B000DBCFEAFFEF50E66EFB0EDBCFE9FFFC0E64
:1011C000DBCFEAFFE552E750EF6EFD0EDBCFE9FF24
:1011D000FE0EDBCFEAFF070EE926000EEA22EF043F
:1011E00036E1FD0EDBCFE9FFFE0EDBCFEAFF020E9C
:1011F000E926000EEA22EF500C0FE66EFB0EDBCF65
:10120000E9FFFC0EDBCFEAFF020EE926000EEA2220
:10121000E552E750EF6E0C0E146EFD0EDBCFE9FFCA
:10122000FE0EDBCFEAFF020EE926000EEA22EF50A7
:10123000145C0CE1FB0EDBCFE9FFFC0EDBCFEAFF19
:10124000020EE926000EEA220C0EEF6E3FD0FD0ED4
:10125000DBCFE9FFFE0EDBCFEAFF070EE926000E2B
:10126000EA22EF5033E1FD0EDBCFE9FFFE0EDBCFCC
:10127000EAFF020EE926000EEA22EF50E66EFB0EB0
:10128000DBCFE9FFFC0EDBCFEAFF020EE926000E02
:10129000EA22E552E750EF6E0C0E146EFD0EDBCF26
:1012A000E9FFFE0EDBCFEAFF020EE926000EEA227E
:1012B000EF50145C0BE1FB0EDBCFE9FFFC0EDBCF44
:1012C000EAFF020EE926000EEA22EF6AE552E7CFB6
:1012D000D9FF1200D9CFE6FFE1CFD9FFE652DF6A8E
:1012E000FD0EDB040DE1FE0EDB500C0FDF6E0C0E6D
:1012F000146EFE0EDB50145C02E10C0EDF6E16D095
:10130000FD0EDB500BE1FE0EDB50DF6E0C0E146E9B
:10131000FE0EDB50145C01E1DF6A08D0AA0E146EE9
:10132000FD0EDB50145C02E1AA0EDF6EDF5000D030
:10133000E552E552E7CFD9FF1200D9CFE6FFE1CF62
:10134000D9FF37EC18F0D00EE66E7BEC18F0E552C2
:10135000E66A7BEC18F0E552050EE76EFD0EDBCF7A
:10136000E9FFFE0EDBCFEAFFE750E926000EEA2296
:10137000EF500F0B146E040EE76EFD0EDBCFE9FF8E
:10138000FE0EDBCFEAFFE750E926000EEA22EF501F
:101390000F0B100DF3501410E66E7BEC18F0E552B5
:1013A000030EE76EFD0EDBCFE9FFFE0EDBCFEAFF9B
:1013B000E750E926000EEA22EF500F0B146E020EE2
:1013C000E76EFD0EDBCFE9FFFE0EDBCFEAFFE75055
:1013D000E926000EEA22EF500F0B100DF350141007
:1013E000E66E7BEC18F0E552010EE76EFD0EDBCFEA
:1013F000E9FFFE0EDBCFEAFFE750E926000EEA2206
:10140000EF500F0B146EFD0EDBCFE9FFFE0EDBCFAE
:10141000EAFFEF500F0B100DF3501410E66E7BEC4B
:1014200018F0E5524DEC18F0E552E7CFD9FF120065
:10143000D9CFE6FFE1CFD9FF37EC18F0D00EE66E3A
:101440007BEC18F0E552040EE66E7BEC18F0E552EA
:10145000010EE76EFD0EDBCFE9FFFE0EDBCFEAFFEC
:10146000E750E926000EEA22EF500F0B146EFD0E36
:10147000DBCFE9FFFE0EDBCFEAFFEF500F0B100DC5
:10148000F3501410E66E7BEC18F0E552030EE76E95
:10149000FD0EDBCFE9FFFE0EDBCFEAFFE750E926CA
:1014A000000EEA22EF500F0B146E020EE76EFD0ED7
:1014B000DBCFE9FFFE0EDBCFEAFFE750E926000EA7
:1014C000EA22EF500F0B100DF3501410E66E7BEC78
:1014D00018F0E552050EE76EFD0EDBCFE9FFFE0EBC
:1014E000DBCFEAFFE750E926000EEA22EF500F0BB0
:1014F000146E040EE76EFD0EDBCFE9FFFE0EDBCFB0
:10150000EAFFE750E926000EEA22EF500F0B100D1C
:10151000F3501410E66E7BEC18F0E5524DEC18F029
:10152000E552E7CFD9FF1200D9CFE6FFE1CFD9FFCF
:1015300037EC18F0D00EE66E7BEC18F0E552030E97
:10154000E66E7BEC18F0E552FE0EDBCFE6FF7BEC9F
:1015500018F0E5524DEC18F0E552E7CFD9FF120034
:10156000D9CFE6FFE1CFD9FFE652E66AD00EE66EAC
:1015700013EC19F0E552E552DF6E7F0EDF14DF6EDB
:10158000DFCFE6FFE66AD00EE66E35EC19F0E552E5
:10159000E552E552900EE66E070EE66ED00EE66E50
:1015A00035EC19F0E552E552E552E552E552E7CF48
:1015B000D9FF1200990EE66E020EE66E92EC06F06E
:1015C000E552E5520301BA510201995D05E099C265
:0A15D000BAF30301010E936F12003D
:0615DA00D9CFE6FFE1CFCE
:1015E000D9FFE652DF6A060EDF5C16E2100EDF243A
:1015F000E66EE66ACFEC1AF0E552E552E66EDF5091
:10160000EA6AC70FE96E030EEA22E552E750EF6E71
:1016100024EC00F0DF2AE7D7000EE66EE66ACFEC96
:101620001AF0E552E5520301006F24EC00F00301CB
:101630000051010A29E0030A26E0020A01E048D02D
:10164000DF6A060EDF5C16E2200EDF24E66EE66A35
:10165000CFEC1AF0E552E552E66EDF50EA6AC10FB0
:10166000E96E030EEA22E552E750EF6E24EC00F03B
:10167000DF2AE7D7C10EE66E030EE66E41EC0FF0EF
:10168000E552E55225D024D0DF6A060EDF5C16E273
:10169000200EDF24E66EE66ACFEC1AF0E552E55242
:1016A000E66EDF50EA6AC10FE96E030EEA22E552E8
:1016B000E750EF6E24EC00F0DF2AE7D7A2DAC10E84
:1016C000E66E030EE66E41EC0FF0E552E55200D0F7
:1016D000010EE66EE66ACFEC1AF0E552E552E8B08C
:1016E0008482E8A0849224EC00F0E552E552E7CF32
:1016F000D9FF1200D9CFE6FFE1CFD9FFE6520301AF
:101700000051010A01E11BD1030A62E0020A01E073
:10171000ABD18484E66A0DEC16F0E55201081FE1B6
:10172000030101511CE113DAC10EE66E030EE66EF1
:1017300041EC0FF0E552E55264DA0301010E016F4E
:10174000E66E000EE66EE66A52EC1AF0E552E552DD
:10175000E55224EC00F00301010E006F25D0010ECC
:10176000E66E0DEC16F0E55201081EE1030104518E
:101770001BE11ADA0301056BC70EE66E030EE66E77
:1017800041EC0FF0E552E55205C3E6FFF40EE66EBC
:10179000010EE66E4AEC11F0E552E552E552030106
:1017A000010E046F020E006FE66A0DEC16F0E552B2
:1017B000000902E10301016B010EE66E0DEC16F06B
:1017C000E552000904E10301040501E1046B4CD179
:1017D0008494020EE66E0DEC16F0E552010817E156
:1017E0000301035114E1052B0551050801E2056BC6
:1017F00005C3E6FFF40EE66E010EE66E4AEC11F04C
:10180000E552E552E5520301010E036F0BD0020EC3
:10181000E66E0DEC16F0E552000904E10301030544
:1018200001E1036B030EE66E0DEC16F0E5520108C4
:1018300030E1030102512DE10551EA6AC70FE96E5B
:10184000030EEA22EF2A0551EA6AC70FE96E030E7A
:10185000EA22EFCF14F00551EA6ACD0FE96E030ECC
:10186000EA22EF50D880145408E20551EA6AC70F03
:10187000E96E030EEA22300EEF6EC70EE66E030E1F
:10188000E66E41EC0FF0E552E5520301010E026FE6
:101890000BD0030EE66E0DEC16F0E552000904E1E4
:1018A0000301020501E1026B010EE66E0DEC16F07C
:1018B000E552010838E10301045135E12EEC10F046
:1018C000C70EE66E030EE66E41EC0FF0E552E552F0
:1018D00084840301010E046FDF6A060EDF5C15E2EB
:1018E000DF50EA6AC70FE96E030EEA22EF50E66E98
:1018F000100EDF24E66EE66A52EC1AF0E552E5526D
:10190000E55224EC00F0DF2AE8D7E66A000EE66E26
:10191000E66A52EC1AF0E552E552E55224EC00F08A
:101920000301006B0BD0010EE66E0DEC16F0E552D4
:10193000000904E10301040501E1046B95D0066B85
:10194000E66A0DEC16F0E552010814E103010151BD
:1019500011E1010E016FE66A000EE66EE66A52ECD6
:101960001AF0E552E552E55224EC00F00301006B59
:101970007BD00AD0E66A0DEC16F0E552000904E1CE
:101980000301010501E1016BD30EE66E030EE66E65
:1019900092EC06F0E552E5526CD8C10EE66E030EED
:1019A000E66E41EC0FF0E552E552DF6A060EDF5CB1
:1019B00015E2DF50EA6AC10FE96E030EEA22EF502A
:1019C000E66E200EDF24E66EE66A52EC1AF0E5526F
:1019D000E552E55224EC00F0DF2AE8D7DF6A060E74
:1019E000DF5C1FE2DF50EA6AC70FE96E030EEA22EE
:1019F000EF50300814E2DF50EA6AC70FE96E030EB9
:101A0000EA22EFCF14F0DF50EA6AC10FE96E030E4D
:101A1000EA22EF50145C03E00301010E066FDF2A97
:101A2000DED7030106511EE184828450020B01E0DF
:101A3000010EE66E010EE66EE66A52EC1AF0E55211
:101A4000E552E55224EC00F0E66A000EE66EE66A26
:101A500052EC1AF0E552E552E55224EC00F0030195
:101A6000006B01D0849200D0E552E552E7CFD9FF58
:101A70001200D9CFE6FFE1CFD9FF040EE126DF6ADD
:101A80000301D605DF6E180EDF02F3CFDFFFF00E85
:101A9000D515E8380F0B0A0D010EF3CFDBFF0F0E43
:101AA000D515146E010EDBCFE7FF1450E726010EAB
:101AB000E7CFDBFFDB50DF26DFCFE6FFD5EC00F022
:101AC000E552E76E020EE7CFDBFF990EDF5C14E113
:101AD000590E0301D45D10E1590ED35D0DE1E66AA4
:101AE000000EE66EE66A52EC1AF0E552E552E55257
:101AF00024EC00F00301006B0F0E0301D315300F2F
:101B0000C16FF00ED315E8380F0B300FC26F0F0EF8
:101B1000D415300FC36FF00ED415E8380F0B300F0B
:101B2000C46F020EDB500F0B300FC56F020EDB507F
:101B3000F00BE8380F0B300FC66F040EE15C02E2C9
:101B4000E16AE552E16EE552E7CFD9FF1200D9CF45
:101B5000E6FFE1CFD9FF020EE126DE6ADD6ADECFC5
:101B600014F0DDCF15F0D890155004E6060E145C85
:101B7000000E15580FE2DECFE9FFDDCFEAFFC10E00
:101B8000E926030EEA22300EEF6EDF2A010E01E392
:101B9000DB2AE5D7020EE15C02E2E16AE552E16E82
:101BA000E552E7CFD9FF1200D9CFE6FFE1CFD9FF49
:101BB000020EE126DE6ADD6ADECF14F0DDCF15F01D
:101BC000D890155004E6060E145C000E15580FE26E
:101BD000DECFE9FFDDCFEAFFC70EE926030EEA22DA
:101BE000300EEF6EDF2A010E01E3DB2AE5D7020E8D
:101BF000E15C02E2E16AE552E16EE552E7CFD9FF2E
:101C00001200300E0301C15D146E300EC25D100D66
:101C1000F3501410D96F300EC35D146E300EC45DD6
:101C2000100DF3501410DA6F300EC55D146E300EC7
:101C3000C65D100DF3501410DB6FD90EE66E030E67
:101C4000E66E3AEC07F0E552E5521200D9CFE6FF16
:101C5000E1CFD9FF020EE126010EDB6AFD0EDBCFDC
:101C6000E6FFFE0EDBCFE6FFF8EC1BF0E552E55297
:101C7000010EF3CFDBFFDF6A010EDB50DF5C1AE2FF
:101C8000DF50E76EFD0EDBCFE9FFFE0EDBCFEAFF94
:101C9000E750E926000EEA22EF50E66E040EDF243C
:101CA000EA6AC10FE96E030EEA22E552E750EF6ED1
:101CB000DF2AE2D7030EE66E040EE66EC10EE66E74
:101CC000030EE66EDAEC10F0E552E552E552E5520D
:101CD000010EE66E050EE66E85EC10F0E552E5525B
:101CE000010EDB6ADB50146E020EE15C03E200D0F1
:101CF000E16AE552E16E1450E552E7CFD9FF1200D8
:101D0000D9CFE6FFE1CFD9FF050EE126FE0EDB506D
:101D1000080802E2000E66D0FE0EDBCFF1F3DF6AA8
:101D20000301F151DF5C0AE2DF50EA6AE90FE96E74
:101D3000030EEA22B8C2EFFFDF2AF2D7E10EF76FF7
:101D4000030EF86FDF6A0B0EDF5C48E2010EDB6A00
:101D5000FE0EDB50F36E010EDBCFF4FFF350F45CAC
:101D600015E2DF50EA6AAE0FE96E020EEA22EF508A
:101D7000E66E010EDB50EA6AE10FE96E030EEA221D
:101D8000E552E750EF6E010EDB2AE2D7020EDB6A66
:101D9000640EF36E020EDBCFF4FFF350F45C1CE232
:101DA0002DD8030EF36EF3CFDBFF040EDB6A030EB8
:101DB000DBCF14F0DB06040EDBCF15F001E2DB060F
:101DC0001450151006E0080EE66E14EC00F0E55213
:101DD000EED7020EDB2ADCD7DF2AB5D70301F26B80
:101DE000010E00D0146E050EE15C02E2E16AE552DC
:101DF000E16E1450E552E7CFD9FF12000301E05124
:101E0000010A14E0010A01E03BD0F251EA6AF72529
:101E1000E96EF851EA22EF50E66E41D9E55203012E
:101E2000F22BF151F25D01E3F26B2AD0F251EA6A32
:101E3000F725E96EF851EA22EF50E66E30D9E55207
:101E40000301F22BF151F25D01E3F26BF32B000E73
:101E5000F423F551F35DF651F45911E3F36BF46B90
:101E6000E10EF71902E1030EF81905E1E90EF76F2B
:101E7000030EF86F04D0E10EF76F030EF86F00D079
:101E80001200D9CFE6FFE1CFD9FFE652DF6ADF6A61
:101E90000301F151DF5C16E2DF50E76EFD0EDBCF90
:101EA000E9FFFE0EDBCFEAFFE750E926000EEA224B
:101EB000EF50E66E5DD9E552000902E1000E41D017
:101EC000DF2AE6D7DF6AF151DF5C38E2DF50E76EE8
:101ED000FD0EDBCFE9FFFE0EDBCFEAFFE750E92680
:101EE000000EEA22EF50200809E1DF50EA6AE10F14
:101EF000E96E030EEA22B8C2EFFF1ED0DF50E76E94
:101F0000FD0EDBCFE9FFFE0EDBCFEAFFE750E9264F
:101F1000000EEA22EF50D00FEA6AAE0FE96E020E11
:101F2000EA22EF50E66EDF50EA6AE10FE96E030E37
:101F3000EA22E552E750EF6EDF2AC5D7F26B010EB9
:101F400000D0E552E552E7CFD9FF1200D9CFE6FF26
:101F5000E1CFD9FFE652DF6ADF6A0301F151DF5CAE
:101F600019E2DF50E76EFD0EDBCFE9FFFE0EDBCF9F
:101F7000EAFFE750E926000EEA22EF50E66EDF5056
:101F8000EA6AE10FE96E030EEA22E552E750EF6ECE
:101F9000DF2AE3D7F26BE552E552E7CFD9FF120013
:101FA000D9CFE6FFE1CFD9FFE652DF6AFE0EDBCFE5
:101FB00014F00301F151D880145402E2000E2DD028
:101FC000FD0EDBCFE6FFD4D8E552000902E1000E9A
:101FD00024D0FD0EDB5020080AE1FE0EDB50EA6A39
:101FE000E10FE96E030EEA22B8C2EFFF14D0FD0E36
:101FF000DB50D00FEA6AAE0FE96E020EEA22EF5014
:10200000E66EFE0EDB50EA6AE10FE96E030EEA228D
:10201000E552E750EF6E010E00D0E552E552E7CFF2
:10202000D9FF1200D9CFE6FFE1CFD9FFFD0EDBCFFC
:10203000F5F3FE0EDBCFF6F3010E0F0B030105E007
:10204000D890F633F533E806FBE10301F36BF46B4C
:10205000010EE06FE552E7CFD9FF12000301E10E58
:10206000F76F030EF86FE06B1200D9CFE6FFE1CFF8
:10207000D9FFE652DF6A0301F151DF5C0AE2DF506B
:10208000EA6AE10FE96E030EEA22B8C2EFFFDF2A27
:10209000F2D7F26BE552E552E7CFD9FF1200D9CF64
:1020A000E6FFE1CFD9FF80808082808480868088AF
:1020B000808A080EE66E21EC1CF0E552FE0EDB1C59
:1020C000836E0301F251050A15E0010A11E0070AC7
:1020D0000DE0010A09E0030A05E0010A01E00CD065
:1020E00080900AD0809208D0809406D0809604D048
:1020F000809802D0809A00D0080EE66E21EC1CF089
:10210000E552E552E7CFD9FF1200D9CFE6FFE1CF84
:10211000D9FF020EE126FE0EDB50DF6EFE0EDBCF96
:10212000E6FFFD0EDB50E552E724DF5C17E2DF50EF
:10213000EA6AE10FE96E030EEA22010EEFCFDBFF40
:10214000DB508009E66EDF50EA6AE10FE96E030EAC
:10215000EA22E552E750EF6EDF2AE0D7020EE15C9B
:1021600002E2E16AE552E16EE552E7CFD9FF1200E3
:10217000D9CFE6FFE1CFD9FFE652DF6AFE0EDB5092
:10218000200803E1010EDF6E0ED0300EF36EFE0E5E
:10219000DBCFF4FFF350F45C06E3FE0EDB503908AE
:1021A00002E3010EDF6EDF5000D0E552E552E7CFCB
:1021B000D9FF1200D9CFE6FFE1CFD9FFE652DF6A9F
:1021C000FC0EDB50DF6EFB0EDB50DF5C16E2DF50F7
:1021D000E76EFD0EDBCFE9FFFE0EDBCFEAFFE75037
:1021E000E926000EEA22EF50E66EC2DFE552000952
:1021F00002E1000E4AD0DF2AE6D7FC0EDB50DF6E8C
:10220000FB0EDBCFE6FFFC0EDB50E552E724DF5C84
:1022100038E2DF50E76EFD0EDBCFE9FFFE0EDBCFCD
:10222000EAFFE750E926000EEA22EF50200809E114
:10223000DF50EA6AE10FE96E030EEA22B8C2EFFF4F
:102240001ED0DF50E76EFD0EDBCFE9FFFE0EDBCFC9
:10225000EAFFE750E926000EEA22EF50D00FEA6AC3
:10226000AE0FE96E020EEA22EF50E66EDF50EA6A28
:10227000E10FE96E030EEA22E552E750EF6EDF2A26
:10228000BFD70301F26B010E00D0E552E552E7CF54
:10229000D9FF1200D9CFE6FFE1CFD9FFE652FD0EFC
:1022A000DBCFF5F3FE0EDBCFF6F3010E0F0B0301D0
:1022B00005E0D890F633F533E806FBE10301F36B54
:1022C000F46BFC0EDB50F96FFA6BDF6AF151DF5CE7
:1022D0001CE2DF50146E156AF951141802E1FA512C
:1022E000151811E0DF50EA6AE10FE96E030EEA22E9
:1022F000EF50E66EDF50EA6AE90FE96E030EEA225C
:10230000E552E750EF6EDF2AE1D7E90EF925E96ED5
:10231000030EFA21EA6EEF6A010EE06FE552E55214
:06232000E7CFD9FF120017
:0A232600D9CFE6FFE1CFD9FFFE0E8C
:10233000DBCF08F3FD0EDBCF09F3FC0EDBCF0AF396
:10234000FB0EDBCF0BF3F90EDBCF88F3FA0EDBCFFE
:1023500089F304D8E552E7CFD9FF1200E66A4B0EA5
:10236000E66EE66AE66A88EC14F0E552E552E5525C
:10237000E5520301846B856B010E076F866B050EBA
:10238000876F8EC38AF38FC38BF390C38CF391C393
:102390008DF307C392F312000301846B856B010E6A
:1023A000076F866B050E876F8EC38AF38FC38BF31F
:1023B00090C38CF391C38DF307C392F31200D9CF6E
:1023C000E6FFE1CFD9FF060EE126DF6AFBEC17F04E
:1023D00006C08EF307C08FF308C090F309C091F3D5
:1023E0008A0EE96E030EEA6EEE5003018E1909E1C2
:1023F000EE508F1906E1EE50901903E1EE5091195D
:1024000000E113E00751925D08E1020E075D05E16E
:102410008707875102E1A2DFB7D08EC38AF38FC34B
:102420008BF390C38CF391C38DF30751030A01E141
:10243000A6D0010A16E0030A02E0AEDFA3D049EC01
:1024400015F0000901E1A0D066EC15F0DF6E030184
:102450000851DF5C05E1846B020E076F050E876F84
:1024600091D049EC15F0000901E18ED066EC15F031
:10247000DF6E03010951DF5C6DE1020EDB6A030EC2
:10248000DB68D950030FE66E000EDA20E66E86D8C0
:10249000E552E552E76E020EE7CFDBFFDB50020AA2
:1024A0004DE0030A05E0010A01E050D075DF6CD071
:1024B00003018851891140E0D950040FE66E000EE7
:1024C000DA20E66E860EE66E030EE66E0C0EE66E03
:1024D000030EE66E05D089C3FAFF03018851F96E39
:1024E000FADF146E060EE15E14500301856F010ED3
:1024F000DB6A8551F36E010EDBCFF4FFF350F45C21
:102500001AE2040EDBCFE9FF050EDBCFEAFFEF5046
:10251000E66E010EDB50EA6A480FE96E030EEA220E
:10252000E552E750EF6E040EDB2A050E01E3DB2ACD
:10253000010EDB2ADED701D02FDF08D00301010E08
:10254000486F852B86C349F3852B00D00301030E0A
:10255000076F14D08451842BEA6A0C0FE96E030EC6
:10256000EA22DFCFEFFF3C0E845D08E3010E486FE7
:10257000852B900E496F852B030E076F03D059D81A
:102580000BDF00D007C392F3060EE15C02E2E16AC2
:10259000E552E16EE552E7CFD9FF1200D9CFE6FF51
:1025A000E1CFD9FF020EE12603018405EA6A0C0F90
:1025B000E96E030EEA22EFCFDFFF010EDB6A0C05A6
:1025C00005E0FF0E0C5D02E0000E27D08405E66EEC
:1025D0000C0EE66E030EE66E9BD8E552E552E55210
:1025E000E76E010EE7CFDBFFDB50DF5C0CE10301A0
:1025F00084078451EA6A0C0FE96E030EEA22EF6A3F
:10260000010E0BD00AD0FD0EDBCFE9FFFE0EDBCFB3
:10261000EAFF910EEF6E000E00D0146E020EE15C28
:1026200002E2E16AE552E16E1450E552E7CFD9FFCC
:102630001200D9CFE6FFE1CFD9FF020EE126DF6A13
:10264000010EDB6A85C3E6FF480EE66E030EE66EFA
:102650005FD8E552E552E552DF6E0AC3E6FFECECC7
:1026600014F0E552010EDB6A03018551F36E010E91
:10267000DBCFF4FFF350F45C0FE2010EDB50EA6AAB
:10268000480FE96E030EEA22EF50E66EECEC14F010
:10269000E552010EDB2AE8D7DFCFE6FFECEC14F0C1
:1026A000E5520BC3E6FFECEC14F0E55208EC15F034
:1026B0000400020EE15C02E2E16AE552E16EE552DD
:1026C000E7CFD9FF1200D9CFE6FFE1CFD9FFFD0E4A
:1026D000DBCFF6FFFE0EDBCFF7FF0800F55012E070
:1026E000FD0EDBCFF6FFFE0EDBCFF7FF0800F55047
:1026F000E66EECEC14F0E552FD0EDB2AFE0E01E373
:10270000DB2AE5D708EC15F0E552E7CFD9FF120038
:10271000D9CFE6FFE1CFD9FF030EE126DF6A010E34
:10272000DB6AFC0EDB50F36E010EDBCFF4FFF350DF
:10273000F45C12E2010EDB50E76EFD0EDBCFE9FF29
:10274000FE0EDBCFEAFFE750E926000EEA22EF504B
:10275000DF1A010EDB2AE5D7DF50146E030EE15CB1
:1027600003E200D0E16AE552E16E1450E552E7CF92
:10277000D9FF1200D9CFE6FFE1CFD9FFE652FC0E18
:10278000DBCF85F303010A0E866FDF6A8551DF5CBC
:1027900018E2FD0EDBCFE9FFFE0EDBCFEAFFEF50C4
:1027A000E66EDF50EA6A480FE96E030EEA22E55250
:1027B000E750EF6EFD0EDB2AFE0E01E3DB2ADF2A77
:0E27C000E5D737DFE552E552E7CFD9FF12002B
:0227CE00DACF60
:1027D000E4FFE2CFDAFFE9CFE4FFEACFE4FFF6CF90
:1027E000E4FFF7CFE4FFF5CFE4FFF3CFE4FFF4CF4E
:1027F000E4FFFACFE4FF00EE00F0140EE80403E378
:10280000EECFE4FFFBD700EE14F0080EE80403E37C
:10281000EECFE4FFFBD7E652D9CFE6FFE1CFD9FFF9
:10282000E65233EC1BF0DF6E02013F513F2BEA6AA8
:10283000420FE96E020EEA22DFCFEFFF3C0E3F5D52
:1028400001E33F6B412B9E9AE552E552E7CFD9FF5A
:10285000E55200EE1BF0080EE80403E3E5CFEDFFC0
:10286000FBD700EE13F0140EE80403E3E5CFEDFF11
:10287000FBD7E5CFFAFFE5CFF4FFE5CFF3FFE5CFD8
:10288000F5FFE5CFF7FFE5CFF6FFE5CFEAFFE5CFB0
:10289000E9FFE5CFDAFF1100DACFE4FFE2CFDAFF9C
:1028A000E9CFE4FFEACFE4FFE652D9CFE6FFE1CF7C
:1028B000D9FFE6520201025104E1ACA2FED7AC9A64
:1028C0001BD00151EA6A030FE96E020EEA22EFCF34
:1028D000DFFFDF50AD6E012B3C0E015D01E3016BAC
:1028E000000EE76E0219E8AE02D0023503D0E750C1
:1028F000D880025501E20207E552E552E7CFD9FF41
:10290000E552E5CFEAFFE5CFE9FFE5CFDAFF1100B9
:10291000D9CFE6FFE1CFD9FFE6527C0EDF6ED9506A
:10292000FB0FE96EFF0EDA20EA6EEE2A000EEE22B1
:10293000EE22EE22D950FB0FE96EFF0EDA20EA6E8E
:10294000040EE76ED890EF36010EEB36020EEB3632
:10295000030EEB36E706F6E1146A480E156EE80E34
:10296000166E010E176E14C006F015C007F016C0E3
:1029700008F017C009F0FB0EDBCF0BF0FC0EDBCF2D
:102980000CF0FD0EDBCF0DF0FE0EDBCF0EF0ABEC4E
:102990001AF0FB0E06C0DBFFFC0E07C0DBFFFD0ECE
:1029A00008C0DBFFFE0E09C0DBFFFB0EDBCFE6FF3E
:1029B000FC0EDBCFE6FFDFCFE6FF0DEC1AF0E552B1
:1029C000E552E552D08EAC8AAC9EF28C9F8AE552DD
:1029D000E552E7CFD9FF1200D9CFE6FFE1CFD9FF0B
:1029E000ACA2FED702010051002BEA6A030FE96E88
:1029F000020EEA22FE0EDBCFEFFF022B3C0E005D43
:102A000001E3006B010E00D0E552E7CFD9FF1200C1
:102A1000D9CFE6FFE1CFD9FF020EE126000E020179
:102A2000E76E0219E8AE02D0023503D0E750D88035
:102A3000025523E20151EA6A030FE96E020EEA220F
:102A4000010EEFCFDBFFACA2FED7010EDB50AD6E67
:102A5000ACA2FED70201012B3C0E015D01E3016B2C
:102A6000000EE76E0219E8AE02D0023503D0E7503F
:102A7000D880025501E20207D1D7146E020EE15C44
:102A800002E2E16AE552E16E1450E552E7CFD9FF68
:102A90001200D9CFE6FFE1CFD9FFE652DF6A9D9A57
:102AA000000E0201E76E4119E8AE02D0413503D0B5
:102AB000E750D880415502E2010EDF6E9D8ADF505B
:102AC00000D0E552E552E7CFD9FF1200D9CFE6FF9B
:102AD000E1CFD9FFE6529D9A02014051402BEA6AAC
:102AE000420FE96E020EEA22EFCFDFFF3C0E405D9F
:102AF00001E3406B000EE76E4119E8AE02D04135AC
:102B000003D0E750D880415501E241079D8ADF504C
:0C2B100000D0E552E552E7CFD9FF1200DB
:042B1C00D9CFE6FF28
:102B2000E1CFD9FFE6528DD8DF6A040EDF5C09E2FF
:102B3000DF50EA6AA20FE96E020EEA22EF6ADF2A8C
:102B4000F4D7E552E552E7CFD9FF1200D9CFE6FF1F
:102B5000E1CFD9FF9BD8FC0EDBCFE6FFFD0EDBCF2C
:102B6000E6FFFE0EDBCFE6FFA5D8E552E552E552C3
:102B7000E552E7CFD9FF1200D9CFE6FFE1CFD9FF69
:102B8000E652FC0EDB50DF6EFB0EDB50D880DF54CC
:102B90001AE37CD8DFCFE6FF176ADF34FE0B173667
:102BA000166EFD0EDB501624146EFE0EDB50172041
:102BB000156E14C0E6FF15C0E6FF7CD8E552E5525D
:102BC000E552DF2AE1D7E552E552E7CFD9FF1200FF
:102BD000D9CFE6FFE1CFD9FFE652DF6A57D8DF6AE7
:102BE000040EDF5C15E2DFCFE6FF156ADF34FE0B73
:102BF0001536146EA60E1426020E152214C0E6FF1A
:102C000015C0E6FF57D8E552E552E552DF2AE8D76E
:102C1000E552E552E7CFD9FF1200D9CFE6FFE1CF69
:102C2000D9FFFE0EEA6ADB34FE0BEA36E96EA60E29
:102C3000E926020EEA22EF5000D0E552E7CFD9FF95
:102C40001200D9CFE6FFE1CFD9FFE652DF6A040ECA
:102C5000DF5C17E2EA6ADF34FE0BEA36E96EA60EA5
:102C6000E926020EEA22EF6AEA6ADF34FE0BEA3650
:102C7000E96EA60EE926020EEA22EE52EF6ADF2A7C
:102C8000E6D7E552E552E7CFD9FF12008150010B9C
:102C90000201A26F8150020B01E0010EA36F81506F
:102CA000040B01E0010EA46F8150080B01E0010E3E
:102CB000A56F1200D9CFE6FFE1CFD9FFFD0EDBCF24
:102CC000E9FFFE0EDBCFEAFFEF50010A3DE0010A0B
:102CD00001E074D0FC0EDB50EA6AA20FE96E020E2E
:102CE000EA22EF50010B27E1FD0EDBCFE9FFFE0EDC
:102CF000DBCFEAFFEE52EF2AFD0EDBCFE9FFFE0E3F
:102D0000DBCFEAFFEECF14F0EFCF15F0020E00019B
:102D1000155C10E3FD0EDBCFE9FFFE0EDBCFEAFF13
:102D2000010EEF6EFD0EDBCFE9FFFE0EDBCFEAFFFB
:102D3000EE52EF6A08D0FD0EDBCFE9FFFE0EDBCFCF
:102D4000EAFFEE52EF6A3AD0FC0EDB50EA6AA20FBD
:102D5000E96E020EEA22EF50010B010826E1FD0E9A
:102D6000DBCFE9FFFE0EDBCFEAFFEE52EF2AFD0ECE
:102D7000DBCFE9FFFE0EDBCFEAFFEECF14F0EFCFA3
:102D800015F0020E0001155C0FE3FD0EDBCFE9FF2D
:102D9000FE0EDBCFEAFFEF6AFD0EDBCFE9FFFE0E92
:102DA000DBCFEAFFEE52EF6A08D0FD0EDBCFE9FF82
:102DB000FE0EDBCFEAFFEE52EF6A00D0E552E7CF1E
:042DC000D9FF120025
:0C2DC400DACFE4FFE2CFDAFFE9CFE4FF52
:102DD000EACFE4FFF6CFE4FFF7CFE4FFF5CFE4FF5F
:102DE000F3CFE4FFF4CFE4FFFACFE4FF00EE00F00E
:102DF000140EE80403E3EECFE4FFFBD700EE14F07B
:102E0000080EE80403E3EECFE4FFFBD7E652F294AA
:102E10000201862B000E8723882B89238A2B8B2384
:102E20008C078D5B8D3504E28C510008000E8D55AA
:102E300008E38E2B000E8F2390239123C80E8C6FF6
:102E40008D6B8051811107E005D081C2FAFF02012C
:102E50008051F96EFADF7EC2E6FF7FC2E6FF8CEC9E
:102E60001BF0E552E552E55200EE1BF0080EE804B7
:102E700003E3E5CFEDFFFBD700EE13F0140EE804FB
:102E800003E3E5CFEDFFFBD7E5CFFAFFE5CFF4FF96
:102E9000E5CFF3FFE5CFF5FFE5CFF7FFE5CFF6FF91
:102EA000E5CFEAFFE5CFE9FFE5CFDAFF1100DACFA2
:102EB000E4FFE2CFDAFFE9CFE4FFEACFE4FFF6CFA9
:102EC000E4FFF7CFE4FFF5CFE4FFF3CFE4FFF4CF67
:102ED000E4FFFACFE4FF00EE00F0140EE80403E391
:102EE000EECFE4FFFBD700EE14F0080EE80403E396
:102EF000EECFE4FFFBD7E6529E9082C2E6FF83C28C
:102F0000E6FF70EC1BF0E552E55202018451851199
:102F100007E005D085C2FAFF02018451F96EFADF9D
:102F2000E55200EE1BF0080EE80403E3E5CFEDFFE9
:102F3000FBD700EE13F0140EE80403E3E5CFEDFF3A
:102F4000FBD7E5CFFAFFE5CFF4FFE5CFF3FFE5CF01
:102F5000F5FFE5CFF7FFE5CFF6FFE5CFEAFFE5CFD9
:102F6000E9FFE5CFDAFF1100D9CFE6FFE1CFD9FFC6
:102F70009F0EE66EA8EC1BF0E552FD0EDBCF7EF255
:102F8000FE0EDBCF7FF2FB0EDBCF80F2FC0EDBCF41
:102F900081F2FD0EDBCFE6FFFE0EDBCFE6FF8CEC11
:102FA0001BF0E552E552E552E7CFD9FF1200D9CF29
:102FB000E6FFE1CFD9FFC50EE66EF1EC1AF0E5525F
:102FC000FD0EDBCFE6FFFE0EDBCFE6FF70EC1BF065
:102FD000E552E5529F80FD0EDBCF82F2FE0EDBCF85
:102FE00083F2FB0EDBCF84F2FC0EDBCF85F2E552E1
:102FF000E7CFD9FF1200D9CFE6FFE1CFD9FF040E0A
:10300000E126F29A8EC2DFFF010E8FC2DBFF020EB5
:1030100090C2DBFF030E91C2DBFFF28ADECF06F027
:10302000DECF07F0DECF08F0DDCF09F0DD52DD5254
:10303000040EE15C03E200D0E16AE552E16EE55284
:10304000E7CFD9FF1200F29E02018E6B8F6B906B5F
:06305000916BF28E1200EC
:0A305600C76AC78E590EC86E280E17
:10306000C66EC56A9E96A196948694881200949620
:10307000949882888286050EE66E21EC1CF0E5525B
:103080008298050EE66E21EC1CF0E5528296050E44
:10309000E66E21EC1CF0E55212009496949882980A
:1030A000050EE66E21EC1CF0E5528286050EE66EFA
:1030B00021EC1CF0E55282881200D9CFE6FFE1CF67
:1030C000D9FFE65294969488DF6ADF500A080EE32F
:1030D000050EE66E21EC1CF0E5528286050EE66ECA
:1030E00021EC1CF0E5528296DF2AEFD7E552E5523B
:1030F000E7CFD9FF1200D9CFE6FFE1CFD9FFE652E3
:1031000094969498DF6A080EDF5C25E2FE0EDB5091
:10311000800B02E0010E01D0000EE8B08288E8A02A
:103120008298030EE66E21EC1CF0E5528286060EB4
:10313000E66E21EC1CF0E5528296020EE66E21EC62
:103140001CF0E552FE0EDBCFF3FFF39EF346F3CF08
:10315000DBFFDF2AD8D79488020EE66E21EC1CF044
:10316000E5528286060EE66E21EC1CF0E552829650
:10317000060EE66E21EC1CF0E552E552E552E7CF73
:10318000D9FF1200D9CFE6FFE1CFD9FF020EE12629
:10319000DF6A949694989488010EDB6A080EF36EA9
:1031A000010EDBCFF4FFF350F45C17E28286060ECB
:1031B000E66E21EC1CF0E552DF9EDF468250100BDC
:1031C00001E0010EDF10DF6E8296060EE66E21EC46
:1031D0001CF0E552010EDB2AE1D79498FE0EDB04C9
:1031E00002E1829801D08288020EE66E21EC1CF08A
:1031F000E5528286060EE66E21EC1CF0E5528296C0
:10320000060EE66E21EC1CF0E552DF50146E020E45
:10321000E15C03E200D0E16AE552E16E1450E55250
:10322000E7CFD9FF1200D9CFE6FFE1CFD9FFE652B1
:103230001EDFFE0EDBCFE6FF5EDFE552FD0EDBCFCD
:10324000E6FF59DFE55213DFFE0EDB28E66E53DFA3
:10325000E552E66A97DFE552DF6E1FDFDF5000D0F0
:10326000E552E552E7CFD9FF1200D9CFE6FFE1CF13
:10327000D9FFFDDEFE0EDBCFE6FF3DDFE552FD0EA2
:10328000DBCFE6FF38DFE552FC0EDBCFE6FF33DFB6
:0C329000E55203DFE552E7CFD9FF120042
:04329C00D9CFE6FFA1
:1032A000E1CFD9FF040EE126DF6A030EDB6A12ECE0
:1032B0001BF0B0EC0AF08EEC15F0060EE66E80EC1A
:1032C0000EF0E552000EE66EE66ABF0EE66EE00E08
:1032D000E66EB4EC17F0E552E552E552E552FC0E0D
:1032E000E66E1D0EE66E770EE66EEC0EE66ED7EC21
:1032F00017F0E552E552E552E5524C0EE66E1C0E13
:10330000E66EDD0EE66ECC0EE66E0D0EE66E3A0E45
:10331000E66E93EC11F0146E060EE15E1450EDECC7
:103320000AF011EC00F0F28EDFEC11F00201580E01
:10333000865D020E875905E317EC1CF00201866BCF
:10334000876B02010A0E885D000E895906E3E8ECDE
:1033500015F00201886B896BDF2A020EDF5C03E344
:103360007AEC0BF0DF6AE0D7040EE15C02E2E16A7E
:0C337000E552E16EE552E7CFD9FF1200F4
:04337C00500EF66E8B
:10338000000EF76E000EF86E02010900F550BE6FD8
:103390000900F550BF6F03E1BE6701D03DD00900C1
:1033A000F550B96F0900F550BA6F0900F550BB6FC1
:1033B00009000900F550E96E0900F550EA6E0900B0
:1033C00009000900F550BC6F0900F550BD6F0900F8
:1033D0000900F6CFC0F2F7CFC1F2F8CFC2F2B9C2FE
:1033E000F6FFBAC2F7FFBBC2F8FF0201BC5302E10D
:1033F000BD5307E00900F550EE6EBC07F8E2BD07CB
:10340000F9D7C0C2F6FFC1C2F7FFC2C2F8FF02017E
:0A341000BE07000EBF5BBFD712001D
:06341A00D9CFE6FFDACF76
:10342000E6FFE1CFD9FFE2CFDAFFAC6AAB6AFD0E6F
:10343000DBB0AC88DBA202D0AC8CAB8CDBB4AC8E46
:10344000DBA602D0AB8801D0AB8ADBB8AC849E98F7
:10345000DBBAAB86DBAC02D09D8A01D09D9A9E9AE6
:10346000DBAE02D09D8801D09D98FB0EDB50AF6E85
:10347000FB0EFC0EDBCF15F015C014F0156A1450CE
:10348000B06EAC8AAB8E949C948EAC50100B04E062
:10349000AC50800B01E1948CE552E5CFDAFFE7CF29
:0434A000D9FF12003E
:0C34A400D9CFE6FFDACFE6FFE1CFD9FF79
:1034B000E2CFDAFFE652DF6AFF0EE76EFC0EDBCFEB
:1034C00014F0E75014161450A96EFB0EDB50A86ED2
:1034D000A69EA69CA684F250800B01E0010EDF6E32
:1034E000F29E550EA76EAA0EA76EA682A6B2FED7B2
:1034F000DF50E8B0F28EE8A0F29EA694E552E552C5
:0A350000E5CFDAFFE7CFD9FF120094
:06350A00446563004E6FF2
:1035100076004F63740053657000417567004A750B
:103520006C004A756E004D617900417072004D610A
:103530007200466562004A616E0053617400467213
:1035400069005468750057656400547565004D6FD7
:063550006E0053756E00D1
:0A355600056A046A036A026A200E87
:10356000E76ED89006360736083609360236033637
:10357000043605360B50025C0C5003580D500458AD
:103580000E50055809E30B50025E0C50035A0D50C3
:0E359000045A0E50055A062AE72EE4D7120000
:02359E00D9CF83
:1035A000E6FFDACFE6FFE1CFD9FFE2CFDAFFFF0E89
:1035B000E76EFC0EDBCF14F0FD0EDBCF15F0E7500D
:1035C0001416156A1450A96EA69CA69EA68000002B
:1035D0000000A85000D0E552E5CFDAFFE7CFD9FFD1
:0235E0001200D7
:0E35E200D9CFE6FFDACFE6FFE1CFD9FFE2CF87
:1035F000DAFFFD0EDB507E0BCD6EFD0EDBAC02D094
:10360000CD8E01D0CD9ECF6ACE6A9E90DBAE02D029
:103610009D8001D09D90CD80E552E5CFDAFFE7CFC8
:04362000D9FF1200BC
:0C362400C26A0F0EC16EB50EC06E700EB3
:10363000D3129B8C9490949C948E956A92909292C3
:10364000929492969298929A93809382938493867E
:103650009388938C938C938E94969498969096944A
:0636600096928492120014
:0A366600D9CFE6FFDACFE6FFE1CF8F
:10367000D9FFE2CFDAFFE652F20E0301FD17ABAC41
:1036800003D0FD91ABB0FD81ABB4FD85ABB2FD873E
:10369000AE50DF6EDF50E552E552E5CFDAFFE7CFFF
:0436A000D9FF12003C
:0C36A40008C012F008500D02F4CF07F02F
:1036B000F3CF06F009500E02F4CF09F0F3CF08F073
:1036C0000D02F3500726F4500822E86A092212502E
:1036D0000E02F3500726F4500822E86A0922000C73
:1036E000D9CFE6FFDACFE6FFE1CFD9FFE2CFDAFFAD
:1036F000E652E652FC0EDBCFDEFFDBCFDDFF010E34
:10370000DB50CF6EDF50CE6EE552E552E552E5CF8D
:08371000DAFFE7CFD9FF120038
:08371800D9CFE6FFDACFE6FF8E
:10372000E1CFD9FFE2CFDAFFE652E652FC0EDBCF63
:10373000DEFFDBCFDDFF010EDB50D76EDF50D66E34
:10374000E552E552E552E5CFDAFFE7CFD9FF1200A7
:10375000D9CFE6FFDACFE6FFE1CFD9FFE2CFDAFF3C
:10376000FD0EDB507F0BD56ED76AD66AF294FD0E44
:10377000DBAE02D0F28A01D0F29AD58EE552E5CFC7
:08378000DAFFE7CFD9FF1200C8
:08378800056A046A100EE76EE9
:10379000D89008360936043605360D50045C0E50B4
:1037A000055805E30D50045E0E50055A082AE72E11
:0437B000F0D712003C
:0C37B400000EF36E00EE00F0060E01D8CF
:1037C0001200EA6002D0EE6AFCD7F350E960120002
:0437D000EE6AFCD7CA
:0C37D40010EE80F020EE80F0F86A019CFE
:1037E000BEEC19F003EC00F04EEC19F0FBD7120020
:1037F000FE0EE3CFE9FFFF0EE3CFEAFFF36AF46AC0
:0C380000EE5203E0F34AF42AFBD712005A
:04380C00056A080E33
:10381000E76ED890093605360E50055C02E3056E5A
:08382000092AE72EF7D7120078
:083828000301FF6B1200030114
:10383000FF0503E1FF6B849003D0010EFF6F8480CE
:02384000120074
:0E384200FF0EE350E84E1200000000D000D050
:0838500000D0E82EFAD71200A7
:08385800000000000000000068
:103860000000000000000000000000000000000058
:103870000000000000000000000000000000000048
:103880000000000000000000000000000000000038
:103890000000000000000000000000000000000028
:1038A0000000000000000000000000000000000018
:1038B0000000000000000000000000000000000008
:1038C00000000000000000000000000000000000F8
:0638D000000000000000F2
:0738D60000000000000000EB
:0338DD00000000E8
:0938E000000000000000000000DF
:0738E90000000000000000D8
:1038F00000000000000000000000000000000000C8
:0439000000000000C3
:0C390400000000000000000000000000B7
:1039100000000000000000000000000000000000A7
:103920000000000000000000000000000000000097
:103930000000000000000000000000000000000087
:103940000000000000000000000000000000000077
:103950000000000000000000000000000000000067
:103960000000000000000000000000000000000057
:103970000000000000000000000000000000000047
:103980000000000000000000000000000000000037
:103990000000000000000000000000000000C8005F
:0439A0000000000023
:0C39A4000052354E354A35463542353E5E
:1039B000353A35363532352E352A35263522351EFF
:0C39C000351A35163512350E350A350063
:0439CC004944454FD6
:0539D0004E49435300C5
:0B39D5003F065B4F666D7D077F6F00B3
:0239E000FFFFE7
:0E39E2000000000000000000000000000000D7
:1039F0000000000039353935393900000000000079
:073A00005059720327121355
:020000040030CA
:0100010008F6
:010002001BE2
:0100030012EA
:010005008179
:010006008178
:010008000FE8
:01000900C036
:01000A000FE6
:01000B00E014
:01000C000FE4
:01000D0040B2
:00000001FF
