:020000040000FA
:0600000008EF17F01200EA
:020006001200E6
:08000800F2A402D089EF12F00E
:100010009EA002D0FEEF12F01200D08EF28E1200DF
:10002000056A046A100EE76ED89008360936043661
:1000300005360D50045C0E50055805E30D50045E66
:0C0040000E50055A082AE72EF0D71200D7
:01004C0000B3
:100050000900112F00005C03000017000000062FAC
:100060000000A60300000B0000004C000000C503C8
:10007000000001000000FD2E0000BB03000009008D
:100080000000D52E00001903000028000000C12E3A
:1000900000007303000014000000A62E00004103BE
:1000A00000001B000000972E0000970300000F00C7
:0E00B00000007E2E000000030000190000007A
:0200BE00D9CF98
:1000C000E6FFE1CFD9FFE652FD0EDBCF16F0FE0EC4
:1000D000DBCF17F017C016F0176A640E1702F3CFC4
:1000E00017F01602F3CF16F0F4501726FD0EDBCFF3
:1000F00018F0FE0EDBCF19F0040ED890193218322A
:10010000E804FBE10A0E1902F3CF19F01802F3CF4D
:1001100018F0F450192616501810146E17501910B4
:10012000156E0F0EE76EFD0EDBCF1AF0FE0EDBCF65
:100130001BF0E7501A161B6A14501A10DF6EDF50BE
:1001400000D0E552E552E7CFD9FF1200D9CFE6FF44
:10015000E1CFD9FFFE0EDB50F00BE83A060DFE0EA4
:10016000DBCFE7FFF350E75EFE0EE7CFDBFFDB50B0
:10017000146E156A14C0F3FF15C0F4FF00D0E552E9
:10018000E7CFD9FF1200D9CFE6FFE1CFD9FF020EAA
:10019000E1260A0E146E14C00EF0FE0EDBCF09F03D
:1001A00016EC17F00950DF6E0A0E146E14C00EF034
:1001B000FE0EDBCF09F016EC17F0010E05C0DBFFD9
:1001C000DB500F0B146E0F0EDF14100DF3501410D4
:1001D000146E020EE15C03E200D0E16AE552E16ECA
:1001E0001450E552E7CFD9FF1200D9CFE6FFE1CF97
:1001F000D9FF0E0EE126FD0EDBCF14F0FE0EDBCF95
:1002000015F00A0E0D6E0E6A14C008F015C009F044
:1002100010EC00F004C014F005C015F00A0E14C074
:10022000DBFF0B0E15C0DBFF0C0EDB6A0D0EDB6A6D
:100230000A0EDB50E76E040EE7CFDBFFFD0EDBCFCF
:1002400014F0FE0EDBCF15F00A0E0D6E0E6A14C010
:1002500008F015C009F010EC00F008C014F009C057
:1002600015F0060E14C0DBFF070E15C0DBFF080EED
:10027000DB6A090EDB6A060EDBCF06F0070EDBCF6A
:1002800007F0080EDBCF08F0090EDBCF09F00A0EED
:100290000B6E0C6A0D6A0E6AF0EC15F00A0E02C0C5
:1002A000DBFF0B0E03C0DBFF0C0E04C0DBFF0D0EEB
:1002B00005C0DBFF0A0EDB50E76E030EE7CFDBFF66
:1002C000060EDBCF06F0070EDBCF07F0080EDBCF04
:1002D00008F0090EDBCF09F00A0E0B6E0C6A0D6AEE
:1002E0000E6AF0EC15F0060E06C0DBFF070E07C025
:1002F000DBFF080E08C0DBFF090E09C0DBFF060E9E
:10030000DBCF06F0070EDBCF07F0080EDBCF08F0DF
:10031000090EDBCF09F00A0E0B6E0C6A0D6A0E6A2D
:10032000F0EC15F00A0E02C0DBFF0B0E03C0DBFF82
:100330000C0E04C0DBFF0D0E05C0DBFF0A0EDB5008
:10034000E76E020EE7CFDBFF060EDBCF06F0070EEF
:10035000DBCF07F0080EDBCF08F0090EDBCF09F08A
:100360000A0E0B6E0C6A0D6A0E6AF0EC15F0060EA2
:1003700006C0DBFF070E07C0DBFF080E08C0DBFF6F
:10038000090E09C0DBFF060EDBCF06F0070EDBCF40
:1003900007F0080EDBCF08F0090EDBCF09F00A0EDC
:1003A0000B6E0C6A0D6A0E6AF0EC15F00A0E02C0B4
:1003B000DBFF0B0E03C0DBFF0C0E04C0DBFF0D0EDA
:1003C00005C0DBFF0A0EDB50E76E010EE7CFDBFF57
:1003D000060EDBCF06F0070EDBCF07F0080EDBCFF3
:1003E00008F0090EDBCF09F00A0E0B6E0C6A0D6ADD
:1003F0000E6AF0EC15F0060E06C0DBFF070E07C014
:10040000DBFF080E08C0DBFF090E09C0DBFF060E8C
:10041000DB50DF6E050EDB6AF36EDBCFF4FFF350CB
:10042000F45C21E2D9CF14F0DACF15F0050EDB50E1
:100430000F011424E96E000E1520EA6EEF50E66EEF
:10044000050EDB50E76EFB0EDBCFE9FFFC0EDBCFCA
:10045000EAFFE750E926000EEA22E552E750EF6E88
:10046000050EDB2AD9D70E0EE15C02E2E16AE55205
:10047000E16EE552E7CFD9FF1200D9CFE6FFE1CF19
:10048000D9FF080EE1260A0E146E14C00EF0FE0EFF
:10049000DBCF09F016EC17F00550E66ED950060FC9
:1004A000E96EDACFEAFFE552E750EE6EED6A060E2E
:1004B000DB50E76E020EE7CFDBFF0A0E146E14C0AE
:1004C0000EF0FE0EDBCF09F016EC17F00950E66EC9
:1004D000D950040FE96EDACFEAFFE552E750EE6E2D
:1004E000ED6A040EDBCF14F0050EDBCF15F00A0E1B
:1004F0000D6E0E6A14C008F015C009F010EC00F083
:1005000004C014F005C015F0060E14C0DBFF070E82
:1005100015C0DBFF060EDB50E76E010EE7CFDBFFF9
:100520000A0E146E156A040EDBCF08F0050EDBCF41
:1005300009F014C00DF015C00EF010EC00F0040E20
:1005400008C0DBFF050E09C0DBFF040EDB50DF6EC9
:10055000030EDB6AF36EDBCFF4FFF350F45C21E2B1
:10056000D9CF14F0DACF15F0030EDB500F011424AD
:10057000E96E000E1520EA6EEF50E66E030EDB50BA
:10058000E76EFC0EDBCFE9FFFD0EDBCFEAFFE750A5
:10059000E926000EEA22E552E750EF6E030EDB2A51
:1005A000D9D7080EE15C02E2E16AE552E16EE5525C
:1005B000E7CFD9FF1200D9CFE6FFE1CFD9FF130E65
:1005C000E126FB0EDBCF06F0FC0EDBCF07F0FD0EC5
:1005D000DBCF08F0FE0EDBCF09F00A0E0B6E0C6AC3
:1005E0000D6A0E6AF0EC15F00F0E02C0DBFF100E64
:1005F00003C0DBFF110E04C0DBFF120E05C0DBFFE2
:100600000F0EDB50E76E090EE7CFDBFFFB0EDBCFF3
:1006100006F0FC0EDBCF07F0FD0EDBCF08F0FE0E80
:10062000DBCF09F00A0E0B6E0C6A0D6A0E6AF0EC55
:1006300015F00B0E06C0DBFF0C0E07C0DBFF0D0E26
:1006400008C0DBFF0E0E09C0DBFF0B0EDBCF06F090
:100650000C0EDBCF07F00D0EDBCF08F00E0EDBCF5C
:1006600009F00A0E0B6E0C6A0D6A0E6AF0EC15F0BA
:100670000F0E02C0DBFF100E03C0DBFF110E04C023
:10068000DBFF120E05C0DBFF0F0EDB50E76E080E1E
:10069000E7CFDBFF0B0EDBCF06F00C0EDBCF07F056
:1006A0000D0EDBCF08F00E0EDBCF09F00A0E0B6E3D
:1006B0000C6A0D6A0E6AF0EC15F00B0E06C0DBFF3B
:1006C0000C0E07C0DBFF0D0E08C0DBFF0E0E09C0CD
:1006D000DBFF0B0EDBCF06F00C0EDBCF07F00D0EB1
:1006E000DBCF08F00E0EDBCF09F00A0E0B6E0C6AA2
:1006F0000D6A0E6AF0EC15F00F0E02C0DBFF100E53
:1007000003C0DBFF110E04C0DBFF120E05C0DBFFD0
:100710000F0EDB50E76E070EE7CFDBFF0B0EDBCFD4
:1007200006F00C0EDBCF07F00D0EDBCF08F00E0E3F
:10073000DBCF09F00A0E0B6E0C6A0D6A0E6AF0EC44
:1007400015F00B0E06C0DBFF0C0E07C0DBFF0D0E15
:1007500008C0DBFF0E0E09C0DBFF0B0EDBCF06F07F
:100760000C0EDBCF07F00D0EDBCF08F00E0EDBCF4B
:1007700009F00A0E0B6E0C6A0D6A0E6AF0EC15F0A9
:100780000F0E02C0DBFF100E03C0DBFF110E04C012
:10079000DBFF120E05C0DBFF0F0EDB50E76E060E0F
:1007A000E7CFDBFF0B0EDBCF06F00C0EDBCF07F045
:1007B0000D0EDBCF08F00E0EDBCF09F00A0E0B6E2C
:1007C0000C6A0D6A0E6AF0EC15F00B0E06C0DBFF2A
:1007D0000C0E07C0DBFF0D0E08C0DBFF0E0E09C0BC
:1007E000DBFF0B0EDBCF06F00C0EDBCF07F00D0EA0
:1007F000DBCF08F00E0EDBCF09F00A0E0B6E0C6A91
:100800000D6A0E6AF0EC15F00F0E02C0DBFF100E41
:1008100003C0DBFF110E04C0DBFF120E05C0DBFFBF
:100820000F0EDB50E76E050EE7CFDBFF0B0EDBCFC5
:1008300006F00C0EDBCF07F00D0EDBCF08F00E0E2E
:10084000DBCF09F00A0E0B6E0C6A0D6A0E6AF0EC33
:1008500015F00B0E06C0DBFF0C0E07C0DBFF0D0E04
:1008600008C0DBFF0E0E09C0DBFF0B0EDBCF06F06E
:100870000C0EDBCF07F00D0EDBCF08F00E0EDBCF3A
:1008800009F00A0E0B6E0C6A0D6A0E6AF0EC15F098
:100890000F0E02C0DBFF100E03C0DBFF110E04C001
:1008A000DBFF120E05C0DBFF0F0EDB50E76E040E00
:1008B000E7CFDBFF0B0EDBCF06F00C0EDBCF07F034
:1008C0000D0EDBCF08F00E0EDBCF09F00A0E0B6E1B
:1008D0000C6A0D6A0E6AF0EC15F00B0E06C0DBFF19
:1008E0000C0E07C0DBFF0D0E08C0DBFF0E0E09C0AB
:1008F000DBFF0B0EDBCF06F00C0EDBCF07F00D0E8F
:10090000DBCF08F00E0EDBCF09F00A0E0B6E0C6A7F
:100910000D6A0E6AF0EC15F00F0E02C0DBFF100E30
:1009200003C0DBFF110E04C0DBFF120E05C0DBFFAE
:100930000F0EDB50E76E030EE7CFDBFF0B0EDBCFB6
:1009400006F00C0EDBCF07F00D0EDBCF08F00E0E1D
:10095000DBCF09F00A0E0B6E0C6A0D6A0E6AF0EC22
:1009600015F00B0E06C0DBFF0C0E07C0DBFF0D0EF3
:1009700008C0DBFF0E0E09C0DBFF0B0EDBCF06F05D
:100980000C0EDBCF07F00D0EDBCF08F00E0EDBCF29
:1009900009F00A0E0B6E0C6A0D6A0E6AF0EC15F087
:1009A0000F0E02C0DBFF100E03C0DBFF110E04C0F0
:1009B000DBFF120E05C0DBFF0F0EDB50E76E020EF1
:1009C000E7CFDBFF0B0EDBCF06F00C0EDBCF07F023
:1009D0000D0EDBCF08F00E0EDBCF09F00A0E0B6E0A
:1009E0000C6A0D6A0E6AF0EC15F00B0E06C0DBFF08
:1009F0000C0E07C0DBFF0D0E08C0DBFF0E0E09C09A
:100A0000DBFF0B0EDBCF06F00C0EDBCF07F00D0E7D
:100A1000DBCF08F00E0EDBCF09F00A0E0B6E0C6A6E
:100A20000D6A0E6AF0EC15F00F0E02C0DBFF100E1F
:100A300003C0DBFF110E04C0DBFF120E05C0DBFF9D
:100A40000F0EDB50E76E010EE7CFDBFF0B0EDBCFA7
:100A500006F00C0EDBCF07F00D0EDBCF08F00E0E0C
:100A6000DBCF09F00A0E0B6E0C6A0D6A0E6AF0EC11
:100A700015F00B0E06C0DBFF0C0E07C0DBFF0D0EE2
:100A800008C0DBFF0E0E09C0DBFF0B0EDB50DF6E74
:100A90000A0EDB6AF36EDBCFF4FFF350F45C22E264
:100AA000D9CF14F0DACF15F00A0EDB500F01142461
:100AB000E96E000E1520EA6EEF503009E66E0A0E60
:100AC000DB50E76EF90EDBCFE9FFFA0EDBCFEAFF72
:100AD000E750E926000EEA22E552E750EF6E0A0ED3
:100AE000DB2AD8D7130EE15C02E2E16AE552E16E3F
:100AF000E552E7CFD9FF1200D9CFE6FFE1CFD9FF0A
:100B0000FE0EDB50F00BE83A060DFE0EDBCFE7FFE2
:100B1000F350E75EFE0EE7CFDBFFDB5000D0E5527F
:100B2000E7CFD9FF1200D9CFE6FFE1CFD9FF0A0EF8
:100B3000146E14C00EF0FE0EDBCF09F016EC17F0A9
:100B40000950060DFE0EDBCFE7FFF350E726FE0E41
:100B5000E7CFDBFFDB50146E156A14C0F3FF15C03E
:100B6000F4FF00D0E552E7CFD9FF1200D9CFE6FF5E
:100B7000E1CFD9FF060EE126F36EFC0EDBCFF4FFCA
:100B8000F350F45C71E2020EDB6A030EDB6A040EC2
:100B9000DB6A050EDB6ADF6AFC0EDB50DF5C58E2C5
:100BA000FC0EDBCFE6FFDF28E552E75CE76E010EC7
:100BB000E7CFDBFFF36E040EF3CFDBFF050EDB6A3E
:100BC000010EDB50000814E20A0E086E096A040EDA
:100BD000DBCF0DF0050EDBCF0EF076EC16F0040E39
:100BE00006C0DBFF050E07C0DBFF010EDB06E8D702
:100BF000020EDBCF16F0030EDBCF17F0DF50E76EEF
:100C0000FD0EDBCFE9FFFE0EDBCFEAFFE750E92662
:100C1000000EEA22EF500F0B186E196A040EDBCF9C
:100C200008F0050EDBCF09F018C00DF019C00EF06A
:100C300076EC16F016500624146E17500720156E29
:100C4000020E14C0DBFF030E15C0DBFFDF2AA4D7A2
:100C5000020EDBCF14F0030EDBCF15F014C0F3FF50
:100C600015C0F4FF04D003D0F36AF46A00D0060E76
:100C7000E15C02E2E16AE552E16EE552E7CFD9FFBD
:020C8000120060
:0E0C8200D9CFE6FFE1CFD9FFFE0EDB04E96E0D
:100C9000EA6AD890E936EA361A0EE926030EEA2205
:100CA000EECF14F0EFCF15F014C0F3FF15C0F4FF32
:100CB00000D0E552E7CFD9FF1200D9CFE6FFE1CF50
:100CC000D9FFFE0EDBCFE6FFE66A5FEC00F0E552EF
:100CD000E552FF0FE96EEA6AD890E936EA36280E47
:100CE000E926030EEA22EECF14F0EFCF15F014C080
:100CF000F3FF15C0F4FF00D0E552E7CFD9FF120093
:100D0000D9CFE6FFE1CFD9FFDEEC13F0D00EE66ECF
:100D100022EC14F0E552E66A22EC14F0E552DEEC27
:100D200013F0D10EE66E22EC14F0E552010EE66EE1
:100D300069EC14F0E552E66EFD0EDBCFE9FFFE0E26
:100D4000DBCFEAFFE552E750EF6E010EE66E69EC8D
:100D500014F0E552E66E010EE76EFD0EDBCFE9FF03
:100D6000FE0EDBCFEAFFE750E926000EEA22E5524D
:100D7000E750EF6E010EE66E69EC14F0E552E66E98
:100D8000020EE76EFD0EDBCFE9FFFE0EDBCFEAFFC2
:100D9000E750E926000EEA22E552E750EF6E010E19
:100DA000E66E69EC14F0E552E66E030EE76EFD0E9A
:100DB000DBCFE9FFFE0EDBCFEAFFE750E926000EAE
:100DC000EA22E552E750EF6E010EE66E69EC14F090
:100DD000E552E66E040EE76EFD0EDBCFE9FFFE0E78
:100DE000DBCFEAFFE750E926000EEA22E552E750A2
:100DF000EF6E010EE66E69EC14F0E552E66E050E3C
:100E0000E76EFD0EDBCFE9FFFE0EDBCFEAFFE7501A
:100E1000E926000EEA22E552E750EF6EE66A69EC39
:100E200014F0E552E66E060EE76EFD0EDBCFE9FF2D
:100E3000FE0EDBCFEAFFE750E926000EEA22E5527C
:100E4000E750EF6EF4EC13F0E552E7CFD9FF120054
:100E5000D9CFE6FFE1CFD9FFDEEC13F0D00EE66E7E
:100E600022EC14F0E552E66A22EC14F0E552FD0E95
:100E7000DBCFE9FFFE0EDBCFEAFFEF50E66E22ECA0
:100E800014F0E552010EE76EFD0EDBCFE9FFFE0E1A
:100E9000DBCFEAFFE750E926000EEA22EF50E66ECC
:100EA00022EC14F0E552020EE76EFD0EDBCFE9FFF7
:100EB000FE0EDBCFEAFFE750E926000EEA22EF50F4
:100EC000E66E22EC14F0E552030EE76EFD0EDBCF6A
:100ED000E9FFFE0EDBCFEAFFE750E926000EEA222B
:100EE000EF50E66E22EC14F0E552040EE76EFD0EB4
:100EF000DBCFE9FFFE0EDBCFEAFFE750E926000E6D
:100F0000EA22EF50E66E22EC14F0E552050EE76E91
:100F1000FD0EDBCFE9FFFE0EDBCFEAFFE750E9264F
:100F2000000EEA22EF50E66E22EC14F0E552060EB7
:100F3000E76EFD0EDBCFE9FFFE0EDBCFEAFFE750E9
:100F4000E926000EEA22EF50E66E22EC14F0E5529C
:100F5000F4EC13F0E552E7CFD9FF1200D9CFE6FF4A
:100F6000E1CFD9FFFD0EDB041DE1FE0EDB50400991
:100F7000E76EFE0EE7CFDBFFFC0EDB0408E1FE0EA2
:100F8000DB502009E76EFE0EE7CFDBFF0AD0FC0E38
:100F9000DB5007E1FE0EDB50DF0BE76EFE0EE7CF06
:100FA000DBFF0AD0FD0EDB5007E1FE0EDB50BF0B6E
:100FB000E76EFE0EE7CFDBFFFE0EDB5000D0E55202
:100FC000E7CFD9FF1200D9CFE6FFE1CFD9FFFD0E61
:100FD000DBCFE9FFFE0EDBCFEAFFEE52EF50E66E0D
:100FE000FB0EDBCFE9FFFC0EDBCFEAFFEE52E55252
:100FF000E750EF6EFD0EDBCFE9FFFE0EDBCFEAFF21
:10100000EF50E66EFB0EDBCFE9FFFC0EDBCFEAFF15
:10101000E552E750EF6EFD0EDBCFE9FFFE0EDBCFB2
:10102000EAFF020EE926000EEA22EFCF14F00C0EC2
:10103000145C42E3FD0EDBCFE9FFFE0EDBCFEAFFDF
:10104000020EE926000EEA22EF50F40FE66EFB0EC8
:10105000DBCFE9FFFC0EDBCFEAFF020EE926000E34
:10106000EA22E552E750EF6EFB0EDBCFE9FFFC0E04
:10107000DBCFEAFF070EE926000EEA22010EEF6E33
:101080000C0E146EFD0EDBCFE9FFFE0EDBCFEAFF88
:10109000020EE926000EEA22EF50145C0CE1FB0E72
:1010A000DBCFE9FFFC0EDBCFEAFF020EE926000EE4
:1010B000EA220C0EEF6E4BD0FD0EDBCFE9FFFE0EE9
:1010C000DBCFEAFF020EE926000EEA22EFCF14F092
:1010D0000C0E145C3CE2FD0EDBCFE9FFFE0EDBCF15
:1010E000EAFF020EE926000EEA22EF50E66EFB0E42
:1010F000DBCFE9FFFC0EDBCFEAFF020EE926000E94
:10110000EA22E552E750EF6EFB0EDBCFE9FFFC0E63
:10111000DBCFEAFF070EE926000EEA22EF6AFD0E9A
:10112000DBCFE9FFFE0EDBCFEAFF020EE926000E61
:10113000EA22EF500CE1FB0EDBCFE9FFFC0EDBCF28
:10114000EAFF020EE926000EEA220C0EEF6EE552CF
:10115000E7CFD9FF1200D9CFE6FFE1CFD9FFFD0ECF
:10116000DBCFE9FFFE0EDBCFEAFFEE52EF50E66E7B
:10117000FB0EDBCFE9FFFC0EDBCFEAFFEE52E552C0
:10118000E750EF6EFD0EDBCFE9FFFE0EDBCFEAFF8F
:10119000EF50E66EFB0EDBCFE9FFFC0EDBCFEAFF84
:1011A000E552E750EF6EFD0EDBCFE9FFFE0EDBCF21
:1011B000EAFF070EE926000EEA22EF0436E1FD0EF3
:1011C000DBCFE9FFFE0EDBCFEAFF020EE926000EC1
:1011D000EA22EF500C0FE66EFB0EDBCFE9FFFC0EB0
:1011E000DBCFEAFF020EE926000EEA22E552E750C5
:1011F000EF6E0C0E146EFD0EDBCFE9FFFE0EDBCFA3
:10120000EAFF020EE926000EEA22EF50145C0CE120
:10121000FB0EDBCFE9FFFC0EDBCFEAFF020EE92677
:10122000000EEA220C0EEF6E3FD0FD0EDBCFE9FF81
:10123000FE0EDBCFEAFF070EE926000EEA22EF5092
:1012400033E1FD0EDBCFE9FFFE0EDBCFEAFF020E3E
:10125000E926000EEA22EF50E66EFB0EDBCFE9FF37
:10126000FC0EDBCFEAFF020EE926000EEA22E55271
:10127000E750EF6E0C0E146EFD0EDBCFE9FFFE0E95
:10128000DBCFEAFF020EE926000EEA22EF50145CE3
:101290000BE1FB0EDBCFE9FFFC0EDBCFEAFF020E1A
:1012A000E926000EEA22EF6AE552E7CFD9FF1200E5
:1012B000D9CFE6FFE1CFD9FFE652DF6AFD0EDB04AE
:1012C0000DE1FE0EDB500C0FDF6E0C0E146EFE0EE9
:1012D000DB50145C02E10C0EDF6E16D0FD0EDB500D
:1012E0000BE1FE0EDB50DF6E0C0E146EFE0EDB50BB
:1012F000145C01E1DF6A08D0AA0E146EFD0EDB500B
:10130000145C02E1AA0EDF6EDF5000D0E552E55218
:10131000E7CFD9FF1200D9CFE6FFE1CFD9FFDEEC4E
:1013200013F0D00EE66E22EC14F0E552E66A22ECE1
:1013300014F0E552050EE76EFD0EDBCFE9FFFE0E61
:10134000DBCFEAFFE750E926000EEA22EF500F0B51
:10135000146E040EE76EFD0EDBCFE9FFFE0EDBCF51
:10136000EAFFE750E926000EEA22EF500F0B100DBE
:10137000F3501410E66E22EC14F0E552030EE76E03
:10138000FD0EDBCFE9FFFE0EDBCFEAFFE750E926DB
:10139000000EEA22EF500F0B146E020EE76EFD0EE8
:1013A000DBCFE9FFFE0EDBCFEAFFE750E926000EB8
:1013B000EA22EF500F0B100DF3501410E66E22ECE2
:1013C00014F0E552010EE76EFD0EDBCFE9FFFE0ED5
:1013D000DBCFEAFFE750E926000EEA22EF500F0BC1
:1013E000146EFD0EDBCFE9FFFE0EDBCFEAFFEF5000
:1013F0000F0B100DF3501410E66E22EC14F0E552B2
:10140000F4EC13F0E552E7CFD9FF1200D9CFE6FF95
:10141000E1CFD9FFDEEC13F0D00EE66E22EC14F033
:10142000E552040EE66E22EC14F0E552010EE76E72
:10143000FD0EDBCFE9FFFE0EDBCFEAFFE750E9262A
:10144000000EEA22EF500F0B146EFD0EDBCFE9FF0A
:10145000FE0EDBCFEAFFEF500F0B100DF350141010
:10146000E66E22EC14F0E552030EE76EFD0EDBCFC4
:10147000E9FFFE0EDBCFEAFFE750E926000EEA2285
:10148000EF500F0B146E020EE76EFD0EDBCFE9FF7F
:10149000FE0EDBCFEAFFE750E926000EEA22EF500E
:1014A0000F0B100DF3501410E66E22EC14F0E55201
:1014B000050EE76EFD0EDBCFE9FFFE0EDBCFEAFF88
:1014C000E750E926000EEA22EF500F0B146E040ECF
:1014D000E76EFD0EDBCFE9FFFE0EDBCFEAFFE75044
:1014E000E926000EEA22EF500F0B100DF3501410F6
:1014F000E66E22EC14F0E552F4EC13F0E552E7CF7F
:10150000D9FF1200D9CFE6FFE1CFD9FFDEEC13F00F
:10151000D00EE66E22EC14F0E552030EE66E22ECDD
:1015200014F0E552FE0EDBCFE6FF22EC14F0E5529C
:10153000F4EC13F0E552E7CFD9FF1200D9CFE6FF64
:10154000E1CFD9FFE652E66AD00EE66EBAEC14F0AF
:10155000E552E552DF6E7F0EDF14DF6EDFCFE6FF70
:10156000E66AD00EE66EDCEC14F0E552E552E55288
:10157000900EE66E070EE66ED00EE66EDCEC14F012
:10158000E552E552E552E552E552E7CFD9FF1200A8
:101590008E0EE66E030EE66E80EC06F0E552E55226
:1015A0000301405103018E5D05E08EC340F303014A
:0615B000010E196F12008C
:0A15B600D9CFE6FFE1CFD9FFE652DE
:1015C000DF6A040EDF5C16E2100EDF24E66EE66AC8
:1015D00014EC16F0E552E552E66EDF50EA6A070FAA
:1015E000E96E030EEA22E552E750EF6E3CEC17F08D
:1015F000DF2AE7D7300E0301075D176E300E085D56
:101600000A0DF3501724156E166A300E095D146E1C
:10161000300E0A5D0A0DF35014243C0DF3501524CE
:10162000146FF4501620156F000EE66EE66A14EC87
:1016300016F0E552E5520301006F3CEC17F0DF6A4B
:10164000060EDF5C16E2200EDF24E66EE66A14EC7E
:1016500016F0E552E552E66EDF50EA6A010FE96ED8
:10166000030EEA22E552E750EF6E3CEC17F0DF2A5A
:10167000E7D7C3DA010EE66EE66A14EC16F0E5521F
:10168000E552E8B08482E8A084923CEC17F0020EA8
:10169000E66EE66A14EC16F0E552E5520301136FAC
:1016A0003CEC17F084A209D0070EE66E030EE66E3E
:1016B000E8EC0EF0E552E55284848494E552E5525C
:1016C000E7CFD9FF1200D9CFE6FFE1CFD9FFE6522D
:1016D00003010051010A01E11AD1030A01E17AD0A4
:1016E000020A01E002D2E66AAFEC11F0E55201080D
:1016F00018E10301185115E1010E186F24DA040EE8
:10170000E66EE66A010EE66E030EE66E77EC10F00A
:10171000E552E552E552E55270DA84920301136B0B
:1017200058D0E66AAFEC11F0E552000915E103016B
:10173000180512E1186B010EE66E000EE66EE66A01
:1017400097EC15F0E552E552E5523CEC17F0848435
:101750000301010E006F3DD0010EE66EAFEC11F0FB
:10176000E55201081AE11CDA0301116B070EE66E5F
:10177000030EE66EE8EC0EF0E552E55211C3E6FF0B
:10178000F40EE66E010EE66EE7EC10F0E552E5525F
:10179000E5520301020E006F1CD0040EE66EAFECA2
:1017A00011F0E552010815E10301130512E18492DD
:1017B0008450020B01E0010EE66E010EE66EE66A51
:1017C00097EC15F0E552E552E5523CEC17F00301B9
:1017D000006B8BD18474020EE66EAFEC11F0E55213
:1017E000010811E10301112B1151030801E2116BF2
:1017F00011C3E6FFF40EE66E010EE66EE7EC10F0A4
:10180000E552E552E552030EE66EAFEC11F0E552FB
:1018100001082AE103011151EA6A070FE96E030E7C
:10182000EA22EF2A1151EA6A070FE96E030EEA2253
:10183000EFCF14F01151EA6A620FE96E030EEA224B
:10184000EF50D880145408E21151EA6A070FE96E8C
:10185000030EEA22300EEF6E070EE66E030EE66E02
:10186000E8EC0EF0E552E552010EE66EAFEC11F039
:10187000E55201084BE1D5EC0FF0070EE66E030EC2
:10188000E66EE8EC0EF0E552E552DF6A040EDF5C2E
:1018900015E2DF50EA6A070FE96E030EEA22EF5005
:1018A000E66E100EDF24E66EE66A97EC15F0E55260
:1018B000E552E5523CEC17F0DF2AE8D7300E030181
:1018C000075D176E300E085D0A0DF3501724156E74
:1018D000166A300E095D146E300E0A5D0A0DF35063
:1018E00014243C0DF3501524146FF4501620156F7A
:1018F000E66A000EE66EE66A97EC15F0E552E552F0
:10190000E5523CEC17F084840301006BEED0126BBF
:10191000E66AAFEC11F0E552010805E10301185148
:1019200002E1010E186FE66AAFEC11F0E552000912
:1019300012E1030118050FE1186BE66A000EE66E6E
:10194000E66A97EC15F0E552E552E5523CEC17F0EB
:101950000301006BCAD0660EE66E030EE66E80ECE5
:1019600006F0E552E552C6D8DF6A060EDF5C26E2D5
:10197000DF50EA6A010FE96E030EEA22EFCF14F09E
:10198000DF50EA6A0B0FE96E030EEA22EF50145C97
:1019900013E0DF50EA6A010FE96E030EEA22EF500E
:1019A000E66E200EDF24E66EE66A97EC15F0E5524F
:1019B000E552E5523CEC17F0DF2AD7D70301685116
:1019C000000804E2360E0301042703D0300E0301A1
:1019D0000427300E015D176E300E025D0A0DF350C4
:1019E0001724156E166A300E035D146E300E045DFA
:1019F0000A0DF35014243C0DF3501524166FF450C7
:101A00001620176F135107E11451165D1551175920
:101A100002E3010E126F12051EE18482010E136FA4
:101A20008450020B01E0010EE66E010EE66EE66ADE
:101A300097EC15F0E552E552E5523CEC17F013C374
:101A4000E6FF020EE66EE66A97EC15F0E552E55207
:101A5000E5523CEC17F0040EE66EE66A010EE66E07
:101A6000030EE66E77EC10F0E552E552E552E552D2
:101A700003016851000804E2360E0301045F03D03D
:101A8000300E0301045FDF6A060EDF5C13E2DF50F5
:101A9000EA6A010FE96E030EEA22EF50E66EDF50AC
:101AA000EA6A0B0FE96E030EEA22E552E750EF6E89
:101AB000DF2AEAD70301680506E1390E675D03E115
:101AC000590E665D03E0030112050EE1E66A000EA1
:101AD000E66EE66A97EC15F0E552E552E5523CEC0D
:101AE00017F00301006B01D000D0E552E552E7CFBB
:101AF000D9FF12000F0E03016615300F0301016FAD
:101B0000F00E03016615E8380F0B300F0301026F6A
:101B10000F0E03016715300F0301036FF00E030171
:101B20006715E8380F0B0301046F0F0E03016815EA
:101B3000300F0301056F300E03016815E8380F0BF5
:101B40000301066F1200D9CFE6FFE1CFD9FF020EE5
:101B5000E126DE6ADD6ADECF14F0DDCF15F0D89025
:101B6000155004E6060E145C000E15580FE2DECF89
:101B7000E9FFDDCFEAFF010EE926030EEA22300E6F
:101B8000EF6EDF2A010E01E3DB2AE5D7020EE15CEE
:101B900002E2E16AE552E16EE552E7CFD9FF1200B9
:101BA000D9CFE6FFE1CFD9FF020EE126DE6ADD6A7A
:101BB000DECF14F0DDCF15F0D890155004E6040EFA
:101BC000145C000E15580FE2DECFE9FFDDCFEAFF0F
:101BD000070EE926030EEA22300EEF6EDF2A010E11
:101BE00001E3DB2AE5D7020EE15C02E2E16AE5529D
:101BF000E16EE552E7CFD9FF1200300E0301015D1F
:101C0000146E300E025D100DF350141003016C6F52
:101C1000300E0301035D146E300E045D100DF350A1
:101C2000141003016D6F300E0301055D146E300E4C
:101C3000065D100DF350141003016E6F6C0EE66E0E
:0E1C4000030EE66E28EC07F0E552E5521200A6
:021C4E00D9CFEC
:101C5000E6FFE1CFD9FF050EE126FE0EDB500808B6
:101C600002E2000E66D0FE0EDBCF52F3DF6A030104
:101C70005251DF5C0AE2DF50EA6A4A0FE96E030E56
:101C8000EA22B0C3EFFFDF2AF2D7420E586F030EED
:101C9000596FDF6A0B0EDF5C48E2010EDB6AFE0E55
:101CA000DB50F36E010EDBCFF4FFF350F45C15E272
:101CB000DF50EA6AA60FE96E030EEA22EF50E66EE5
:101CC000010EDB50EA6A420FE96E030EEA22E5528A
:101CD000E750EF6E010EDB2AE2D7020EDB6A640EDC
:101CE000F36E020EDBCFF4FFF350F45C1CE22DD850
:101CF000030EF36EF3CFDBFF040EDB6A030EDBCFC4
:101D000014F0DB06040EDBCF15F001E2DB06145005
:101D1000151006E0080EE66EE8EC16F0E552EED778
:101D2000020EDB2ADCD7DF2AB5D70301536B010E85
:101D300000D0146E050EE15C02E2E16AE552E16E4C
:101D40001450E552E7CFD9FF120003014151010AB7
:101D500014E0010A01E03BD05351EA6A5825E96ECC
:101D60005951EA22EF50E66E41D9E5520301532B57
:101D70005251535D01E3536B2AD05351EA6A5825FF
:101D8000E96E5951EA22EF50E66E30D9E55203016F
:101D9000532B5251535D01E3536B542B000E5523CB
:101DA0005651545D5751555911E3546B556B420EC2
:101DB000581902E1030E591905E14A0E586F030E36
:101DC000596F04D0420E586F030E596F00D01200A5
:101DD000D9CFE6FFE1CFD9FFE652DF6ADF6A030120
:101DE0005251DF5C16E2DF50E76EFD0EDBCFE9FFFC
:101DF000FE0EDBCFEAFFE750E926000EEA22EF50A5
:101E0000E66E53D9E552000902E1000E41D0DF2A07
:101E1000E6D7DF6A5251DF5C38E2DF50E76EFD0E35
:101E2000DBCFE9FFFE0EDBCFEAFFE750E926000E2D
:101E3000EA22EF50200809E1DF50EA6A420FE96E1A
:101E4000030EEA22B0C3EFFF1ED0DF50E76EFD0E97
:101E5000DBCFE9FFFE0EDBCFEAFFE750E926000EFD
:101E6000EA22EF50D00FEA6AA60FE96E030EEA22CB
:101E7000EF50E66EDF50EA6A420FE96E030EEA2287
:101E8000E552E750EF6EDF2AC5D7536B010E00D045
:101E9000E552E552E7CFD9FF1200D9CFE6FFE1CFF7
:101EA000D9FFE652DF6ADF6A03015251DF5C19E2B3
:101EB000DF50E76EFD0EDBCFE9FFFE0EDBCFEAFF62
:101EC000E750E926000EEA22EF50E66EDF50EA6A9C
:101ED000420FE96E030EEA22E552E750EF6EDF2A69
:101EE000E3D7536BE552E552E7CFD9FF1200D9CFC4
:101EF000E6FFE1CFD9FFE652DF6AFE0EDBCF14F03A
:101F000003015251D880145402E2000E2DD0FD0E70
:101F1000DBCFE6FFCAD8E552000902E1000E24D06B
:101F2000FD0EDB5020080AE1FE0EDB50EA6A420F8C
:101F3000E96E030EEA22B0C3EFFF14D0FD0EDB50B2
:101F4000D00FEA6AA60FE96E030EEA22EF50E66EA2
:101F5000FE0EDB50EA6A420FE96E030EEA22E552FA
:101F6000E750EF6E010E00D0E552E552E7CFD9FF02
:101F70001200D9CFE6FFE1CFD9FFFD0EDBCF56F33C
:101F8000FE0EDBCF57F3010E0F0B030105E0D890D7
:101F900057335633E806FBE10301546B556B010ED2
:101FA000416FE552E7CFD9FF12000301420E586F8F
:101FB000030E596F416B1200D9CFE6FFE1CFD9FF75
:101FC000E652DF6A03015251DF5C0AE2DF50EA6A3F
:101FD000420FE96E030EEA22B0C3EFFFDF2AF2D709
:101FE000536BE552E552E7CFD9FF1200D9CFE6FF98
:101FF000E1CFD9FF8092809480968098080EE66E9B
:1020000031EC17F0E552FE0EDB50836E03015351A5
:10201000030A0DE0010A09E0030A05E0010A01E0F4
:1020200008D0808206D0808404D0808602D0808848
:1020300000D0080EE66E31EC17F0E552E552E7CF1E
:10204000D9FF1200D9CFE6FFE1CFD9FF020EE1267A
:10205000FE0EDB50DF6EFE0EDBCFE6FFFD0EDB502B
:10206000E552E724DF5C17E2DF50EA6A420FE96ECF
:10207000030EEA22010EEFCFDBFFDB508009E66E94
:10208000DF50EA6A420FE96E030EEA22E552E7509A
:10209000EF6EDF2AE0D7020EE15C02E2E16AE55270
:1020A000E16EE552E7CFD9FF1200D9CFE6FFE1CFCD
:1020B000D9FFE652DF6AFE0EDB50200803E1010E75
:1020C000DF6E0ED0300EF36EFE0EDBCFF4FFF3505A
:1020D000F45C06E3FE0EDB50390802E3010EDF6E0E
:1020E000DF5000D0E552E552E7CFD9FF1200D9CF3B
:1020F000E6FFE1CFD9FFE652DF6AFC0EDB50DF6E70
:10210000FB0EDB50DF5C16E2DF50E76EFD0EDBCF2F
:10211000E9FFFE0EDBCFEAFFE750E926000EEA22D8
:10212000EF50E66EC2DFE552000902E1000E4AD030
:10213000DF2AE6D7FC0EDB50DF6EFB0EDBCFE6FFBF
:10214000FC0EDB50E552E724DF5C38E2DF50E76E3F
:10215000FD0EDBCFE9FFFE0EDBCFEAFFE750E926FD
:10216000000EEA22EF50200809E1DF50EA6A420F30
:10217000E96E030EEA22B0C3EFFF1ED0DF50E76E18
:10218000FD0EDBCFE9FFFE0EDBCFEAFFE750E926CD
:10219000000EEA22EF50D00FEA6AA60FE96E030E96
:1021A000EA22EF50E66EDF50EA6A420FE96E030E54
:1021B000EA22E552E750EF6EDF2ABFD70301536BE7
:1021C000010E00D0E552E552E7CFD9FF1200D9CF7A
:1021D000E6FFE1CFD9FFE652FD0EDBCF56F3FE0E50
:1021E000DBCF57F3010E0F0B030105E0D8905733F7
:1021F0005633E806FBE10301546B556BFC0EDB50D4
:102200005A6F5B6BDF6A5251DF5C1CE2DF50146E69
:10221000156A5A51141802E15B51151811E0DF508C
:10222000EA6A420FE96E030EEA22EF50E66EDF50D3
:10223000EA6A4A0FE96E030EEA22E552E750EF6EB2
:10224000DF2AE1D74A0E5A25E96E030E5B21EA6EBA
:10225000EF6A010E416FE552E552E7CFD9FF120058
:10226000D9CFE6FFE1CFD9FFE6528DD8DF6A050E60
:10227000DF5C09E2DF50EA6A970FE96E030EEA229B
:10228000EF6ADF2AF4D7E552E552E7CFD9FF120013
:10229000D9CFE6FFE1CFD9FF9BD8FC0EDBCFE6FF1D
:1022A000FD0EDBCFE6FFFE0EDBCFE6FFAAD8E55240
:1022B000E552E552E552E7CFD9FF1200D9CFE6FF4C
:1022C000E1CFD9FFE652FC0EDB50DF6EFB0EDB5098
:1022D000D880DF541AE37CD8DFCFE6FF176ADF34FB
:1022E000FE0B1736166EFD0EDB501624146EFE0E16
:1022F000DB501720156E14C0E6FF15C0E6FF81D82D
:10230000E552E552E552DF2AE1D7E552E552E7CF43
:10231000D9FF1200D9CFE6FFE1CFD9FFE652DF6A3D
:1023200057D8DF6A050EDF5C15E2DFCFE6FF156ADE
:10233000DF34FE0B1536146E9C0E1426030E152288
:1023400014C0E6FF15C0E6FF5CD8E552E552E55241
:10235000DF2AE8D7E552E552E7CFD9FF1200D9CFFF
:10236000E6FFE1CFD9FFFE0EEA6ADB34FE0BEA3668
:10237000E96E9C0EE926030EEA22EF5000D0E552EA
:10238000E7CFD9FF1200D9CFE6FFE1CFD9FFE65260
:10239000DF6A050EDF5C17E2EA6ADF34FE0BEA361D
:1023A000E96E9C0EE926030EEA22EF6AEA6ADF3440
:1023B000FE0BEA36E96E9C0EE926030EEA22EE5287
:1023C000EF6ADF2AE6D7E552E552E7CFD9FF1200E0
:1023D0008150010B0301976F8150020B01E0010E48
:1023E000986F8150040B01E0010E996F8150080B2A
:1023F00001E0010E9A6F8150100B01E0010E9B6FFE
:102400001200D9CFE6FFE1CFD9FFFD0EDBCFE9FF08
:10241000FE0EDBCFEAFFEF50010A3DE0010A01E0CA
:1024200074D0FC0EDB50EA6A970FE96E030EEA22C5
:10243000EF50010B27E1FD0EDBCFE9FFFE0EDBCFF6
:10244000EAFFEE52EF2AFD0EDBCFE9FFFE0EDBCFF7
:10245000EAFFEECF14F0EFCF15F0020E0001155C8D
:1024600010E3FD0EDBCFE9FFFE0EDBCFEAFF010E2E
:10247000EF6EFD0EDBCFE9FFFE0EDBCFEAFFEE5283
:10248000EF6A08D0FD0EDBCFE9FFFE0EDBCFEAFFDF
:10249000EE52EF6A3AD0FC0EDB50EA6A970FE96E13
:1024A000030EEA22EF50010B010826E1FD0EDBCFFF
:1024B000E9FFFE0EDBCFEAFFEE52EF2AFD0EDBCF87
:1024C000E9FFFE0EDBCFEAFFEECF14F0EFCF15F001
:1024D000020E0001155C0FE3FD0EDBCFE9FFFE0EDF
:1024E000DBCFEAFFEF6AFD0EDBCFE9FFFE0EDBCFAD
:1024F000EAFFEE52EF6A08D0FD0EDBCFE9FFFE0ED9
:10250000DBCFEAFFEE52EF6A00D0E552E7CFD9FF0A
:022510001200B7
:0E251200DACFE4FFE2CFDAFFE9CFE4FFEACF51
:10252000E4FFF6CFE4FFF7CFE4FFF5CFE4FFF3CF0E
:10253000E4FFF4CFE4FFFACFE4FF00EE00F0140E66
:10254000E80403E3EECFE4FFFBD700EE14F0080E3F
:10255000E80403E3EECFE4FFFBD7E652F294030175
:102560007B2B000E7C237D2B7E237F2B80238107FA
:10257000825B823504E281510008000E825508E337
:10258000832B000E842385238623C80E816F826BE4
:102590007551761107E005D076C3FAFF0301755136
:1025A000F96EFADF73C3E6FF74C3E6FFB0EC16F012
:1025B000E552E552E55200EE1BF0080EE80403E395
:1025C000E5CFEDFFFBD700EE13F0140EE80403E3B4
:1025D000E5CFEDFFFBD7E5CFFAFFE5CFF4FFE5CF81
:1025E000F3FFE5CFF5FFE5CFF7FFE5CFF6FFE5CF4A
:1025F000EAFFE5CFE9FFE5CFDAFF1100DACFE4FF2C
:10260000E2CFDAFFE9CFE4FFEACFE4FFF6CFE4FF61
:10261000F7CFE4FFF5CFE4FFF3CFE4FFF4CFE4FF1F
:10262000FACFE4FF00EE00F0140EE80403E3EECF6F
:10263000E4FFFBD700EE14F0080EE80403E3EECF4E
:10264000E4FFFBD7E6529E9077C3E6FF78C3E6FF30
:1026500094EC16F0E552E552030179517A1107E046
:1026600005D07AC3FAFF03017951F96EFADFE5521A
:1026700000EE1BF0080EE80403E3E5CFEDFFFBD707
:1026800000EE13F0140EE80403E3E5CFEDFFFBD7F3
:10269000E5CFFAFFE5CFF4FFE5CFF3FFE5CFF5FF98
:1026A000E5CFF7FFE5CFF6FFE5CFEAFFE5CFE9FF9E
:1026B000E5CFDAFF1100D9CFE6FFE1CFD9FF9F0EBA
:1026C000E66ECCEC16F0E552FD0EDBCF73F3FE0E9A
:1026D000DBCF74F3FB0EDBCF75F3FC0EDBCF76F3B1
:1026E000FD0EDBCFE6FFFE0EDBCFE6FFB0EC16F013
:1026F000E552E552E552E7CFD9FF1200D9CFE6FF08
:10270000E1CFD9FFC50EE66E36EC16F0E552FD0EB0
:10271000DBCFE6FFFE0EDBCFE6FF94EC16F0E552D2
:10272000E5529F80FD0EDBCF77F3FE0EDBCF78F313
:10273000FB0EDBCF79F3FC0EDBCF7AF3E552E7CF6C
:10274000D9FF1200D9CFE6FFE1CFD9FF040EE12671
:10275000F29A83C3DFFF010E84C3DBFF020E85C341
:10276000DBFF030E86C3DBFFF28ADECF06F0DECF8F
:1027700007F0DECF08F0DDCF09F0DD52DD52040EA8
:10278000E15C03E200D0E16AE552E16EE552E7CF99
:10279000D9FF1200F29E0301836B846B856B866BFD
:0427A000F28E1200A3
:0C27A400C76AC78E590EC86E280EC66E9C
:1027B000C56A9E96A19694869488120094969498E1
:1027C00082888286050EE66E31EC17F0E55282981B
:1027D000050EE66E31EC17F0E5528296050EE66EB8
:1027E00031EC17F0E5521200949694988298050EF9
:1027F000E66E31EC17F0E5528286050EE66E31EC9E
:1028000017F0E55282881200D9CFE6FFE1CFD9FF59
:10281000E65294969488DF6ADF500A080EE3050EAC
:10282000E66E31EC17F0E5528286050EE66E31EC6D
:1028300017F0E5528296DF2AEFD7E552E552E7CF4F
:10284000D9FF1200D9CFE6FFE1CFD9FFE652949627
:102850009498DF6A080EDF5C25E2FE0EDB50800BE9
:1028600002E0010E01D0000EE8B08288E8A0829854
:10287000030EE66E31EC17F0E5528286060EE66E28
:1028800031EC17F0E5528296020EE66E31EC17F04D
:10289000E552FE0EDBCFF3FFF39EF346F3CFDBFFF3
:1028A000DF2AD8D79488020EE66E31EC17F0E55295
:1028B0008286060EE66E31EC17F0E5528296060E21
:1028C000E66E31EC17F0E552E552E552E7CFD9FF5D
:1028D0001200D9CFE6FFE1CFD9FF020EE126DF6A71
:1028E000949694989488010EDB6A080EF36E010E9C
:1028F000DBCFF4FFF350F45C17E28286060EE66E3F
:1029000031EC17F0E552DF9EDF468250100B01E0FC
:10291000010EDF10DF6E8296060EE66E31EC17F0C8
:10292000E552010EDB2AE1D79498FE0EDB0402E1AA
:10293000829801D08288020EE66E31EC17F0E552E3
:102940008286060EE66E31EC17F0E5528296060E90
:10295000E66E31EC17F0E552DF50146E020EE15CCA
:1029600003E200D0E16AE552E16E1450E552E7CF90
:10297000D9FF1200D9CFE6FFE1CFD9FFE6521EDF23
:10298000FE0EDBCFE6FF5EDFE552FD0EDBCFE6FF9E
:1029900059DFE55213DFFE0EDB28E66E53DFE5520A
:1029A000E66A97DFE552DF6E1FDFDF5000D0E552A9
:1029B000E552E7CFD9FF1200D9CFE6FFE1CFD9FF2B
:1029C000FDDEFE0EDBCFE6FF3DDFE552FD0EDBCF89
:1029D000E6FF38DFE552FC0EDBCFE6FF33DFE552E2
:0A29E00003DFE552E7CFD9FF120034
:0629EA00D9CFE6FFE1CFAA
:1029F000D9FF040EE126DF6A030EDB6A57EC16F0FE
:102A00009EEC0AF030EC11F0040EE66E27EC0EF0AE
:102A1000E5524A0EE66E1D0EE66EBF0EE66EE00E45
:102A2000E66E5BEC13F0E552E552E552E552DBEC65
:102A30000AF00DEC00F0F28E0301580E7B5D020EE1
:102A40007C5905E327EC17F003017B6B7C6B0301DA
:102A50000A0E7D5D000E7E5905E38AEC11F003013C
:102A60007D6B7E6B0301FA0E7F5D000E805905E3DE
:102A700063EC0BF003017F6B806BDED7040EE15C2F
:102A800002E2E16AE552E16EE552E7CFD9FF1200BA
:102A9000500EF66E000EF76E000EF86E0301090080
:102AA000F550B66F0900F550B76F03E1B66701D076
:102AB0003DD00900F550B16F0900F550B26F090023
:102AC000F550B36F09000900F550E96E0900F550A3
:102AD000EA6E090009000900F550B46F0900F550CD
:102AE000B56F09000900F6CFB8F3F7CFB9F3F8CF07
:102AF000BAF3B1C3F6FFB2C3F7FFB3C3F8FF0301E4
:102B0000B45302E1B55307E00900F550EE6EB40787
:102B1000F8E2B507F9D7B8C3F6FFB9C3F7FFBAC3F0
:0E2B2000F8FF0301B607000EB75BBFD7120027
:022B2E00D9CFFD
:102B3000E6FFDACFE6FFE1CFD9FFE2CFDAFFE652D8
:102B4000DF6AFF0EE76EFC0EDBCF14F0E7501416C1
:102B50001450A96EFB0EDB50A86EA69EA69CA68400
:102B6000F250800B01E0010EDF6EF29E550EA76E53
:102B7000AA0EA76EA682A6B2FED7DF50E8B0F28EEC
:102B8000E8A0F29EA694E552E552E5CFDAFFE7CF42
:042B9000D9FF120057
:0C2B9400446563004E6F76004F637400D0
:102BA00053657000417567004A756C004A756E0088
:102BB0004D617900417072004D617200466562009E
:102BC0004A616E0053617400467269005468750072
:102BD00057656400547565004D6F6E0053756E0047
:102BE000056A046A036A026A200EE76ED890063608
:102BF00007360836093602360336043605360B50DA
:102C0000025C0C5003580D5004580E50055809E34F
:102C10000B50025E0C50035A0D50045A0E50055AC8
:082C2000062AE72EE4D712009A
:082C2800D9CFE6FFDACFE6FF89
:102C3000E1CFD9FFE2CFDAFFFF0EE76EFC0EDBCF6C
:102C400014F0FD0EDBCF15F0E7501416156A145082
:102C5000A96EA69CA69EA68000000000A85000D0E9
:0C2C6000E552E5CFDAFFE7CFD9FF120004
:042C6C00D9CFE6FFD7
:102C7000DACFE6FFE1CFD9FFE2CFDAFFFD0EDB507E
:102C80007E0BCD6EFD0EDBAC02D0CD8E01D0CD9E85
:102C9000CF6ACE6A9E90DBAE02D09D8001D09D901F
:0E2CA000CD80E552E5CFDAFFE7CFD9FF120075
:022CAE00C26AF8
:102CB0000F0EC16EB50EC06E700ED3129B8C949029
:102CC000949C948E956A9292929492969298938004
:102CD0009382938493869388938C938C938E94960B
:0C2CE0009498969096949692849212001C
:042CEC0008C012F01A
:102CF00008500D02F4CF07F0F3CF06F009500E0292
:102D0000F4CF09F0F3CF08F00D02F3500726F4508A
:102D10000822E86A092212500E02F3500726F450E6
:082D20000822E86A0922000CF8
:082D2800D9CFE6FFDACFE6FF88
:102D3000E1CFD9FFE2CFDAFFE652E652FC0EDBCF5D
:102D4000DEFFDBCFDDFF010EDB50CF6EDF50CE6E3E
:102D5000E552E552E552E5CFDAFFE7CFD9FF1200A1
:102D6000D9CFE6FFDACFE6FFE1CFD9FFE2CFDAFF36
:102D7000E652E652FC0EDBCFDEFFDBCFDDFF010EBD
:102D8000DB50D76EDF50D66EE552E552E552E5CF07
:082D9000DAFFE7CFD9FF1200C2
:082D9800D9CFE6FFDACFE6FF18
:102DA000E1CFD9FFE2CFDAFFFD0EDB507F0BD56E0E
:102DB000D76AD66AF294FD0EDBAE02D0F28A01D059
:102DC000F29AD58EE552E5CFDAFFE7CFD9FF1200B0
:102DD000FF0EE3501C6E480E01D04C0EE76EE72E3E
:102DE000FED7E76AE72EFED71C2EF7D700001200A9
:102DF000000EF36E00EE00F0060E01D81200EA603D
:102E000002D0EE6AFCD7F350E9601200EE6AFCD7FC
:102E100010EE80F020EE80F0F86A019C48EC15F08E
:0C2E200003EC00F0F5EC14F0FBD71200FE
:042E2C00056A080E1D
:102E3000E76ED890093605360E50055C02E3056E44
:082E4000092AE72EF7D7120062
:082E48000301C56B1200030138
:102E5000C50503E1C56B849003D0010EC56F848066
:022E600012005E
:0E2E6200FF0EE350E84E1200000000D000D03A
:082E700000D0E82EFAD7120091
:062E7800A6B2FED7120015
:022E7E00000052
:102E80000000000000000000000000000000000042
:072E9000000000000000003B
:092E970000000000000000000032
:062EA0000000000000002C
:0A2EA6000000000000000000000022
:102EB0000000000000000000000000000000000012
:012EC0000011
:0F2EC1000000000000000000000000000000C83A
:052ED0000000000000FD
:0B2ED50000DC2BD82BD42BD02BCC2BF7
:102EE000C82BC42BC02BBC2BB82BB42BB02BAC2BBA
:0D2EF000A82BA42BA02B9C2B982B942B001F
:032EFD0049444500
:062F00004F4E494353004F
:0A2F06003F065B4F666D7D077F6F8D
:012F100000C0
:0F2F1100000000000000393539390000000000D1
:082F20000050590003271213B1
:020000040030CA
:0100010008F6
:010002001BE2
:0100030012EA
:010005008179
:010006008178
:010008000FE8
:01000900C036
:01000A000FE6
:01000B00E014
:01000C000FE4
:01000D0040B2
:00000001FF
