:020000040000FA
:06000000DFEF16F0120014
:020006001200E6
:08000800F2A402D057EF12F040
:100010009EA002D0CCEF12F01200D08EF28E120011
:10002000056A046A100EE76ED89008360936043661
:1000300005360D50045C0E50055805E30D50045E66
:0C0040000E50055A082AE72EF0D71200D7
:01004C0000B3
:100050000900AE2E0000300300001F000000A32E98
:1000600000009D0300000B0000004C000000BC03DA
:100070000000010000009A2E0000B20300000900F9
:100080000000722E000008030000280000005E2E11
:1000900000006A03000014000000432E00004F031C
:1000A00000001B000000342E00008E0300000F0033
:0E00B00000002C2E00000003000008000000DD
:0200BE00D9CF98
:1000C000E6FFE1CFD9FFE652FD0EDBCF16F0FE0EC4
:1000D000DBCF17F017C016F0176A640E1702F3CFC4
:1000E00017F01602F3CF16F0F4501726FD0EDBCFF3
:1000F00018F0FE0EDBCF19F0040ED890193218322A
:10010000E804FBE10A0E1902F3CF19F01802F3CF4D
:1001100018F0F450192616501810146E17501910B4
:10012000156E0F0EE76EFD0EDBCF1AF0FE0EDBCF65
:100130001BF0E7501A161B6A14501A10DF6EDF50BE
:1001400000D0E552E552E7CFD9FF1200D9CFE6FF44
:10015000E1CFD9FFFE0EDB50F00BE83A060DFE0EA4
:10016000DBCFE7FFF350E75EFE0EE7CFDBFFDB50B0
:10017000146E156A14C0F3FF15C0F4FF00D0E552E9
:10018000E7CFD9FF1200D9CFE6FFE1CFD9FF020EAA
:10019000E1260A0E146E14C00EF0FE0EDBCF09F03D
:1001A000EDEC16F00950DF6E0A0E146E14C00EF05E
:1001B000FE0EDBCF09F0EDEC16F0010E05C0DBFF03
:1001C000DB500F0B146E0F0EDF14100DF3501410D4
:1001D000146E020EE15C03E200D0E16AE552E16ECA
:1001E0001450E552E7CFD9FF1200D9CFE6FFE1CF97
:1001F000D9FF0E0EE126FD0EDBCF14F0FE0EDBCF95
:1002000015F00A0E0D6E0E6A14C008F015C009F044
:1002100010EC00F004C014F005C015F00A0E14C074
:10022000DBFF0B0E15C0DBFF0C0EDB6A0D0EDB6A6D
:100230000A0EDB50E76E040EE7CFDBFFFD0EDBCFCF
:1002400014F0FE0EDBCF15F00A0E0D6E0E6A14C010
:1002500008F015C009F010EC00F008C014F009C057
:1002600015F0060E14C0DBFF070E15C0DBFF080EED
:10027000DB6A090EDB6A060EDBCF06F0070EDBCF6A
:1002800007F0080EDBCF08F0090EDBCF09F00A0EED
:100290000B6E0C6A0D6A0E6AC7EC15F00A0E02C0EE
:1002A000DBFF0B0E03C0DBFF0C0E04C0DBFF0D0EEB
:1002B00005C0DBFF0A0EDB50E76E030EE7CFDBFF66
:1002C000060EDBCF06F0070EDBCF07F0080EDBCF04
:1002D00008F0090EDBCF09F00A0E0B6E0C6A0D6AEE
:1002E0000E6AC7EC15F0060E06C0DBFF070E07C04E
:1002F000DBFF080E08C0DBFF090E09C0DBFF060E9E
:10030000DBCF06F0070EDBCF07F0080EDBCF08F0DF
:10031000090EDBCF09F00A0E0B6E0C6A0D6A0E6A2D
:10032000C7EC15F00A0E02C0DBFF0B0E03C0DBFFAB
:100330000C0E04C0DBFF0D0E05C0DBFF0A0EDB5008
:10034000E76E020EE7CFDBFF060EDBCF06F0070EEF
:10035000DBCF07F0080EDBCF08F0090EDBCF09F08A
:100360000A0E0B6E0C6A0D6A0E6AC7EC15F0060ECB
:1003700006C0DBFF070E07C0DBFF080E08C0DBFF6F
:10038000090E09C0DBFF060EDBCF06F0070EDBCF40
:1003900007F0080EDBCF08F0090EDBCF09F00A0EDC
:1003A0000B6E0C6A0D6A0E6AC7EC15F00A0E02C0DD
:1003B000DBFF0B0E03C0DBFF0C0E04C0DBFF0D0EDA
:1003C00005C0DBFF0A0EDB50E76E010EE7CFDBFF57
:1003D000060EDBCF06F0070EDBCF07F0080EDBCFF3
:1003E00008F0090EDBCF09F00A0E0B6E0C6A0D6ADD
:1003F0000E6AC7EC15F0060E06C0DBFF070E07C03D
:10040000DBFF080E08C0DBFF090E09C0DBFF060E8C
:10041000DB50DF6E050EDB6AF36EDBCFF4FFF350CB
:10042000F45C21E2D9CF14F0DACF15F0050EDB50E1
:100430000F011424E96E000E1520EA6EEF50E66EEF
:10044000050EDB50E76EFB0EDBCFE9FFFC0EDBCFCA
:10045000EAFFE750E926000EEA22E552E750EF6E88
:10046000050EDB2AD9D70E0EE15C02E2E16AE55205
:10047000E16EE552E7CFD9FF1200D9CFE6FFE1CF19
:10048000D9FF080EE1260A0E146E14C00EF0FE0EFF
:10049000DBCF09F0EDEC16F00550E66ED950060FF3
:1004A000E96EDACFEAFFE552E750EE6EED6A060E2E
:1004B000DB50E76E020EE7CFDBFF0A0E146E14C0AE
:1004C0000EF0FE0EDBCF09F0EDEC16F00950E66EF3
:1004D000D950040FE96EDACFEAFFE552E750EE6E2D
:1004E000ED6A040EDBCF14F0050EDBCF15F00A0E1B
:1004F0000D6E0E6A14C008F015C009F010EC00F083
:1005000004C014F005C015F0060E14C0DBFF070E82
:1005100015C0DBFF060EDB50E76E010EE7CFDBFFF9
:100520000A0E146E156A040EDBCF08F0050EDBCF41
:1005300009F014C00DF015C00EF010EC00F0040E20
:1005400008C0DBFF050E09C0DBFF040EDB50DF6EC9
:10055000030EDB6AF36EDBCFF4FFF350F45C21E2B1
:10056000D9CF14F0DACF15F0030EDB500F011424AD
:10057000E96E000E1520EA6EEF50E66E030EDB50BA
:10058000E76EFC0EDBCFE9FFFD0EDBCFEAFFE750A5
:10059000E926000EEA22E552E750EF6E030EDB2A51
:1005A000D9D7080EE15C02E2E16AE552E16EE5525C
:1005B000E7CFD9FF1200D9CFE6FFE1CFD9FF130E65
:1005C000E126FB0EDBCF06F0FC0EDBCF07F0FD0EC5
:1005D000DBCF08F0FE0EDBCF09F00A0E0B6E0C6AC3
:1005E0000D6A0E6AC7EC15F00F0E02C0DBFF100E8D
:1005F00003C0DBFF110E04C0DBFF120E05C0DBFFE2
:100600000F0EDB50E76E090EE7CFDBFFFB0EDBCFF3
:1006100006F0FC0EDBCF07F0FD0EDBCF08F0FE0E80
:10062000DBCF09F00A0E0B6E0C6A0D6A0E6AC7EC7E
:1006300015F00B0E06C0DBFF0C0E07C0DBFF0D0E26
:1006400008C0DBFF0E0E09C0DBFF0B0EDBCF06F090
:100650000C0EDBCF07F00D0EDBCF08F00E0EDBCF5C
:1006600009F00A0E0B6E0C6A0D6A0E6AC7EC15F0E3
:100670000F0E02C0DBFF100E03C0DBFF110E04C023
:10068000DBFF120E05C0DBFF0F0EDB50E76E080E1E
:10069000E7CFDBFF0B0EDBCF06F00C0EDBCF07F056
:1006A0000D0EDBCF08F00E0EDBCF09F00A0E0B6E3D
:1006B0000C6A0D6A0E6AC7EC15F00B0E06C0DBFF64
:1006C0000C0E07C0DBFF0D0E08C0DBFF0E0E09C0CD
:1006D000DBFF0B0EDBCF06F00C0EDBCF07F00D0EB1
:1006E000DBCF08F00E0EDBCF09F00A0E0B6E0C6AA2
:1006F0000D6A0E6AC7EC15F00F0E02C0DBFF100E7C
:1007000003C0DBFF110E04C0DBFF120E05C0DBFFD0
:100710000F0EDB50E76E070EE7CFDBFF0B0EDBCFD4
:1007200006F00C0EDBCF07F00D0EDBCF08F00E0E3F
:10073000DBCF09F00A0E0B6E0C6A0D6A0E6AC7EC6D
:1007400015F00B0E06C0DBFF0C0E07C0DBFF0D0E15
:1007500008C0DBFF0E0E09C0DBFF0B0EDBCF06F07F
:100760000C0EDBCF07F00D0EDBCF08F00E0EDBCF4B
:1007700009F00A0E0B6E0C6A0D6A0E6AC7EC15F0D2
:100780000F0E02C0DBFF100E03C0DBFF110E04C012
:10079000DBFF120E05C0DBFF0F0EDB50E76E060E0F
:1007A000E7CFDBFF0B0EDBCF06F00C0EDBCF07F045
:1007B0000D0EDBCF08F00E0EDBCF09F00A0E0B6E2C
:1007C0000C6A0D6A0E6AC7EC15F00B0E06C0DBFF53
:1007D0000C0E07C0DBFF0D0E08C0DBFF0E0E09C0BC
:1007E000DBFF0B0EDBCF06F00C0EDBCF07F00D0EA0
:1007F000DBCF08F00E0EDBCF09F00A0E0B6E0C6A91
:100800000D6A0E6AC7EC15F00F0E02C0DBFF100E6A
:1008100003C0DBFF110E04C0DBFF120E05C0DBFFBF
:100820000F0EDB50E76E050EE7CFDBFF0B0EDBCFC5
:1008300006F00C0EDBCF07F00D0EDBCF08F00E0E2E
:10084000DBCF09F00A0E0B6E0C6A0D6A0E6AC7EC5C
:1008500015F00B0E06C0DBFF0C0E07C0DBFF0D0E04
:1008600008C0DBFF0E0E09C0DBFF0B0EDBCF06F06E
:100870000C0EDBCF07F00D0EDBCF08F00E0EDBCF3A
:1008800009F00A0E0B6E0C6A0D6A0E6AC7EC15F0C1
:100890000F0E02C0DBFF100E03C0DBFF110E04C001
:1008A000DBFF120E05C0DBFF0F0EDB50E76E040E00
:1008B000E7CFDBFF0B0EDBCF06F00C0EDBCF07F034
:1008C0000D0EDBCF08F00E0EDBCF09F00A0E0B6E1B
:1008D0000C6A0D6A0E6AC7EC15F00B0E06C0DBFF42
:1008E0000C0E07C0DBFF0D0E08C0DBFF0E0E09C0AB
:1008F000DBFF0B0EDBCF06F00C0EDBCF07F00D0E8F
:10090000DBCF08F00E0EDBCF09F00A0E0B6E0C6A7F
:100910000D6A0E6AC7EC15F00F0E02C0DBFF100E59
:1009200003C0DBFF110E04C0DBFF120E05C0DBFFAE
:100930000F0EDB50E76E030EE7CFDBFF0B0EDBCFB6
:1009400006F00C0EDBCF07F00D0EDBCF08F00E0E1D
:10095000DBCF09F00A0E0B6E0C6A0D6A0E6AC7EC4B
:1009600015F00B0E06C0DBFF0C0E07C0DBFF0D0EF3
:1009700008C0DBFF0E0E09C0DBFF0B0EDBCF06F05D
:100980000C0EDBCF07F00D0EDBCF08F00E0EDBCF29
:1009900009F00A0E0B6E0C6A0D6A0E6AC7EC15F0B0
:1009A0000F0E02C0DBFF100E03C0DBFF110E04C0F0
:1009B000DBFF120E05C0DBFF0F0EDB50E76E020EF1
:1009C000E7CFDBFF0B0EDBCF06F00C0EDBCF07F023
:1009D0000D0EDBCF08F00E0EDBCF09F00A0E0B6E0A
:1009E0000C6A0D6A0E6AC7EC15F00B0E06C0DBFF31
:1009F0000C0E07C0DBFF0D0E08C0DBFF0E0E09C09A
:100A0000DBFF0B0EDBCF06F00C0EDBCF07F00D0E7D
:100A1000DBCF08F00E0EDBCF09F00A0E0B6E0C6A6E
:100A20000D6A0E6AC7EC15F00F0E02C0DBFF100E48
:100A300003C0DBFF110E04C0DBFF120E05C0DBFF9D
:100A40000F0EDB50E76E010EE7CFDBFF0B0EDBCFA7
:100A500006F00C0EDBCF07F00D0EDBCF08F00E0E0C
:100A6000DBCF09F00A0E0B6E0C6A0D6A0E6AC7EC3A
:100A700015F00B0E06C0DBFF0C0E07C0DBFF0D0EE2
:100A800008C0DBFF0E0E09C0DBFF0B0EDB50DF6E74
:100A90000A0EDB6AF36EDBCFF4FFF350F45C22E264
:100AA000D9CF14F0DACF15F00A0EDB500F01142461
:100AB000E96E000E1520EA6EEF503009E66E0A0E60
:100AC000DB50E76EF90EDBCFE9FFFA0EDBCFEAFF72
:100AD000E750E926000EEA22E552E750EF6E0A0ED3
:100AE000DB2AD8D7130EE15C02E2E16AE552E16E3F
:100AF000E552E7CFD9FF1200D9CFE6FFE1CFD9FF0A
:100B0000FE0EDB50F00BE83A060DFE0EDBCFE7FFE2
:100B1000F350E75EFE0EE7CFDBFFDB5000D0E5527F
:100B2000E7CFD9FF1200D9CFE6FFE1CFD9FF0A0EF8
:100B3000146E14C00EF0FE0EDBCF09F0EDEC16F0D3
:100B40000950060DFE0EDBCFE7FFF350E726FE0E41
:100B5000E7CFDBFFDB50146E156A14C0F3FF15C03E
:100B6000F4FF00D0E552E7CFD9FF1200D9CFE6FF5E
:100B7000E1CFD9FF060EE126F36EFC0EDBCFF4FFCA
:100B8000F350F45C71E2020EDB6A030EDB6A040EC2
:100B9000DB6A050EDB6ADF6AFC0EDB50DF5C58E2C5
:100BA000FC0EDBCFE6FFDF28E552E75CE76E010EC7
:100BB000E7CFDBFFF36E040EF3CFDBFF050EDB6A3E
:100BC000010EDB50000814E20A0E086E096A040EDA
:100BD000DBCF0DF0050EDBCF0EF04DEC16F0040E62
:100BE00006C0DBFF050E07C0DBFF010EDB06E8D702
:100BF000020EDBCF16F0030EDBCF17F0DF50E76EEF
:100C0000FD0EDBCFE9FFFE0EDBCFEAFFE750E92662
:100C1000000EEA22EF500F0B186E196A040EDBCF9C
:100C200008F0050EDBCF09F018C00DF019C00EF06A
:100C30004DEC16F016500624146E17500720156E52
:100C4000020E14C0DBFF030E15C0DBFFDF2AA4D7A2
:100C5000020EDBCF14F0030EDBCF15F014C0F3FF50
:100C600015C0F4FF04D003D0F36AF46A00D0060E76
:100C7000E15C02E2E16AE552E16EE552E7CFD9FFBD
:020C8000120060
:0E0C8200D9CFE6FFE1CFD9FFFE0EDB04E96E0D
:100C9000EA6AD890E936EA36090EE926030EEA2216
:100CA000EECF14F0EFCF15F014C0F3FF15C0F4FF32
:100CB00000D0E552E7CFD9FF1200D9CFE6FFE1CF50
:100CC000D9FFFE0EDBCFE6FFE66A5FEC00F0E552EF
:100CD000E552FF0FE96EEA6AD890E936EA36170E58
:100CE000E926030EEA22EECF14F0EFCF15F014C080
:100CF000F3FF15C0F4FF00D0E552E7CFD9FF120093
:100D0000D9CFE6FFE1CFD9FFACEC13F0D00EE66E01
:100D1000F0EC13F0E552E66AF0EC13F0E552ACECBF
:100D200013F0D10EE66EF0EC13F0E552010EE66E14
:100D300037EC14F0E552E66EFD0EDBCFE9FFFE0E58
:100D4000DBCFEAFFE552E750EF6E010EE66E37ECBF
:100D500014F0E552E66E010EE76EFD0EDBCFE9FF03
:100D6000FE0EDBCFEAFFE750E926000EEA22E5524D
:100D7000E750EF6E010EE66E37EC14F0E552E66ECA
:100D8000020EE76EFD0EDBCFE9FFFE0EDBCFEAFFC2
:100D9000E750E926000EEA22E552E750EF6E010E19
:100DA000E66E37EC14F0E552E66E030EE76EFD0ECC
:100DB000DBCFE9FFFE0EDBCFEAFFE750E926000EAE
:100DC000EA22E552E750EF6E010EE66E37EC14F0C2
:100DD000E552E66E040EE76EFD0EDBCFE9FFFE0E78
:100DE000DBCFEAFFE750E926000EEA22E552E750A2
:100DF000EF6E010EE66E37EC14F0E552E66E050E6E
:100E0000E76EFD0EDBCFE9FFFE0EDBCFEAFFE7501A
:100E1000E926000EEA22E552E750EF6EE66A37EC6B
:100E200014F0E552E66E060EE76EFD0EDBCFE9FF2D
:100E3000FE0EDBCFEAFFE750E926000EEA22E5527C
:100E4000E750EF6EC2EC13F0E552E7CFD9FF120086
:100E5000D9CFE6FFE1CFD9FFACEC13F0D00EE66EB0
:100E6000F0EC13F0E552E66AF0EC13F0E552FD0EFB
:100E7000DBCFE9FFFE0EDBCFEAFFEF50E66EF0ECD2
:100E800013F0E552010EE76EFD0EDBCFE9FFFE0E1B
:100E9000DBCFEAFFE750E926000EEA22EF50E66ECC
:100EA000F0EC13F0E552020EE76EFD0EDBCFE9FF2A
:100EB000FE0EDBCFEAFFE750E926000EEA22EF50F4
:100EC000E66EF0EC13F0E552030EE76EFD0EDBCF9D
:100ED000E9FFFE0EDBCFEAFFE750E926000EEA222B
:100EE000EF50E66EF0EC13F0E552040EE76EFD0EE7
:100EF000DBCFE9FFFE0EDBCFEAFFE750E926000E6D
:100F0000EA22EF50E66EF0EC13F0E552050EE76EC4
:100F1000FD0EDBCFE9FFFE0EDBCFEAFFE750E9264F
:100F2000000EEA22EF50E66EF0EC13F0E552060EEA
:100F3000E76EFD0EDBCFE9FFFE0EDBCFEAFFE750E9
:100F4000E926000EEA22EF50E66EF0EC13F0E552CF
:100F5000C2EC13F0E552E7CFD9FF1200D9CFE6FF7C
:100F6000E1CFD9FFFD0EDB041DE1FE0EDB50400991
:100F7000E76EFE0EE7CFDBFFFC0EDB0408E1FE0EA2
:100F8000DB502009E76EFE0EE7CFDBFF0AD0FC0E38
:100F9000DB5007E1FE0EDB50DF0BE76EFE0EE7CF06
:100FA000DBFF0AD0FD0EDB5007E1FE0EDB50BF0B6E
:100FB000E76EFE0EE7CFDBFFFE0EDB5000D0E55202
:100FC000E7CFD9FF1200D9CFE6FFE1CFD9FFFD0E61
:100FD000DBCFE9FFFE0EDBCFEAFFEE52EF50E66E0D
:100FE000FB0EDBCFE9FFFC0EDBCFEAFFEE52E55252
:100FF000E750EF6EFD0EDBCFE9FFFE0EDBCFEAFF21
:10100000EF50E66EFB0EDBCFE9FFFC0EDBCFEAFF15
:10101000E552E750EF6EFD0EDBCFE9FFFE0EDBCFB2
:10102000EAFF020EE926000EEA22EFCF14F00C0EC2
:10103000145C42E3FD0EDBCFE9FFFE0EDBCFEAFFDF
:10104000020EE926000EEA22EF50F40FE66EFB0EC8
:10105000DBCFE9FFFC0EDBCFEAFF020EE926000E34
:10106000EA22E552E750EF6EFB0EDBCFE9FFFC0E04
:10107000DBCFEAFF070EE926000EEA22010EEF6E33
:101080000C0E146EFD0EDBCFE9FFFE0EDBCFEAFF88
:10109000020EE926000EEA22EF50145C0CE1FB0E72
:1010A000DBCFE9FFFC0EDBCFEAFF020EE926000EE4
:1010B000EA220C0EEF6E4BD0FD0EDBCFE9FFFE0EE9
:1010C000DBCFEAFF020EE926000EEA22EFCF14F092
:1010D0000C0E145C3CE2FD0EDBCFE9FFFE0EDBCF15
:1010E000EAFF020EE926000EEA22EF50E66EFB0E42
:1010F000DBCFE9FFFC0EDBCFEAFF020EE926000E94
:10110000EA22E552E750EF6EFB0EDBCFE9FFFC0E63
:10111000DBCFEAFF070EE926000EEA22EF6AFD0E9A
:10112000DBCFE9FFFE0EDBCFEAFF020EE926000E61
:10113000EA22EF500CE1FB0EDBCFE9FFFC0EDBCF28
:10114000EAFF020EE926000EEA220C0EEF6EE552CF
:10115000E7CFD9FF1200D9CFE6FFE1CFD9FFFD0ECF
:10116000DBCFE9FFFE0EDBCFEAFFEE52EF50E66E7B
:10117000FB0EDBCFE9FFFC0EDBCFEAFFEE52E552C0
:10118000E750EF6EFD0EDBCFE9FFFE0EDBCFEAFF8F
:10119000EF50E66EFB0EDBCFE9FFFC0EDBCFEAFF84
:1011A000E552E750EF6EFD0EDBCFE9FFFE0EDBCF21
:1011B000EAFF070EE926000EEA22EF0436E1FD0EF3
:1011C000DBCFE9FFFE0EDBCFEAFF020EE926000EC1
:1011D000EA22EF500C0FE66EFB0EDBCFE9FFFC0EB0
:1011E000DBCFEAFF020EE926000EEA22E552E750C5
:1011F000EF6E0C0E146EFD0EDBCFE9FFFE0EDBCFA3
:10120000EAFF020EE926000EEA22EF50145C0CE120
:10121000FB0EDBCFE9FFFC0EDBCFEAFF020EE92677
:10122000000EEA220C0EEF6E3FD0FD0EDBCFE9FF81
:10123000FE0EDBCFEAFF070EE926000EEA22EF5092
:1012400033E1FD0EDBCFE9FFFE0EDBCFEAFF020E3E
:10125000E926000EEA22EF50E66EFB0EDBCFE9FF37
:10126000FC0EDBCFEAFF020EE926000EEA22E55271
:10127000E750EF6E0C0E146EFD0EDBCFE9FFFE0E95
:10128000DBCFEAFF020EE926000EEA22EF50145CE3
:101290000BE1FB0EDBCFE9FFFC0EDBCFEAFF020E1A
:1012A000E926000EEA22EF6AE552E7CFD9FF1200E5
:1012B000D9CFE6FFE1CFD9FFE652DF6AFD0EDB04AE
:1012C0000DE1FE0EDB500C0FDF6E0C0E146EFE0EE9
:1012D000DB50145C02E10C0EDF6E16D0FD0EDB500D
:1012E0000BE1FE0EDB50DF6E0C0E146EFE0EDB50BB
:1012F000145C01E1DF6A08D0AA0E146EFD0EDB500B
:10130000145C02E1AA0EDF6EDF5000D0E552E55218
:10131000E7CFD9FF1200D9CFE6FFE1CFD9FFACEC80
:1013200013F0D00EE66EF0EC13F0E552E66AF0EC46
:1013300013F0E552050EE76EFD0EDBCFE9FFFE0E62
:10134000DBCFEAFFE750E926000EEA22EF500F0B51
:10135000146E040EE76EFD0EDBCFE9FFFE0EDBCF51
:10136000EAFFE750E926000EEA22EF500F0B100DBE
:10137000F3501410E66EF0EC13F0E552030EE76E36
:10138000FD0EDBCFE9FFFE0EDBCFEAFFE750E926DB
:10139000000EEA22EF500F0B146E020EE76EFD0EE8
:1013A000DBCFE9FFFE0EDBCFEAFFE750E926000EB8
:1013B000EA22EF500F0B100DF3501410E66EF0EC14
:1013C00013F0E552010EE76EFD0EDBCFE9FFFE0ED6
:1013D000DBCFEAFFE750E926000EEA22EF500F0BC1
:1013E000146EFD0EDBCFE9FFFE0EDBCFEAFFEF5000
:1013F0000F0B100DF3501410E66EF0EC13F0E552E5
:10140000C2EC13F0E552E7CFD9FF1200D9CFE6FFC7
:10141000E1CFD9FFACEC13F0D00EE66EF0EC13F098
:10142000E552040EE66EF0EC13F0E552010EE76EA5
:10143000FD0EDBCFE9FFFE0EDBCFEAFFE750E9262A
:10144000000EEA22EF500F0B146EFD0EDBCFE9FF0A
:10145000FE0EDBCFEAFFEF500F0B100DF350141010
:10146000E66EF0EC13F0E552030EE76EFD0EDBCFF7
:10147000E9FFFE0EDBCFEAFFE750E926000EEA2285
:10148000EF500F0B146E020EE76EFD0EDBCFE9FF7F
:10149000FE0EDBCFEAFFE750E926000EEA22EF500E
:1014A0000F0B100DF3501410E66EF0EC13F0E55234
:1014B000050EE76EFD0EDBCFE9FFFE0EDBCFEAFF88
:1014C000E750E926000EEA22EF500F0B146E040ECF
:1014D000E76EFD0EDBCFE9FFFE0EDBCFEAFFE75044
:1014E000E926000EEA22EF500F0B100DF3501410F6
:1014F000E66EF0EC13F0E552C2EC13F0E552E7CFE4
:10150000D9FF1200D9CFE6FFE1CFD9FFACEC13F041
:10151000D00EE66EF0EC13F0E552030EE66EF0EC42
:1015200013F0E552FE0EDBCFE6FFF0EC13F0E552D0
:10153000C2EC13F0E552E7CFD9FF1200D9CFE6FF96
:10154000E1CFD9FFE652E66AD00EE66E88EC14F0E1
:10155000E552E552DF6E7F0EDF14DF6EDFCFE6FF70
:10156000E66AD00EE66EAAEC14F0E552E552E552BA
:10157000900EE66E070EE66ED00EE66EAAEC14F044
:10158000E552E552E552E552E552E7CFD9FF1200A8
:10159000850EE66E030EE66E80EC06F0E552E5522F
:1015A00003012F510301855D05E085C32FF303017E
:0615B000010E086F12009D
:0A15B600D9CFE6FFE1CFD9FFE652DE
:1015C000DF6A040EDF5C16E2100EDF24E66EE66AC8
:1015D000EBEC15F0E552E552E66EDF50EA6A3A0FA1
:1015E000E96E030EEA22E552E750EF6E13EC17F0B6
:1015F000DF2AE7D7000EE66EE66AEBEC15F0E5525F
:10160000E5520301006F13EC17F003010051010ACA
:1016100029E0030A26E0020A01E048D0DF6A040E4E
:10162000DF5C16E2200EDF24E66EE66AEBEC15F0D6
:10163000E552E552E66EDF50EA6A360FE96E030EB8
:10164000EA22E552E750EF6E13EC17F0DF2AE7D7F6
:10165000360EE66E030EE66EB6EC0EF0E552E5527F
:1016600025D024D0DF6A040EDF5C16E2200EDF24D2
:10167000E66EE66AEBEC15F0E552E552E66EDF50F9
:10168000EA6A360FE96E030EEA22E552E750EF6E82
:1016900013EC17F0DF2AE7D78CDA360EE66E030E6E
:1016A000E66EB6EC0EF0E552E55200D0010EE66EA5
:1016B000E66AEBEC15F0E552E552E8B08482E8A06A
:1016C000849213EC17F0E552E552E7CFD9FF1200F0
:1016D000D9CFE6FFE1CFD9FFE65203010051010A5D
:1016E00001E11DD1030A64E0020A01E0BFD1848454
:1016F000E66A7DEC11F0E552010821E10301015198
:101700001EE1FDD9360EE66E030EE66EB6EC0EF067
:10171000E552E5524EDA84920301076B010E016F28
:10172000E66E000EE66EE66A6EEC15F0E552E552E6
:10173000E55213EC17F00301010E006F25D0010EE6
:10174000E66E7DEC11F0E55201081EE10301045143
:101750001BE102DA0301056B3A0EE66E030EE66E3C
:10176000B6EC0EF0E552E55205C3E6FFF40EE66E68
:10177000010EE66EB5EC10F0E552E552E5520301BC
:10178000010E046F020E006FE66A7DEC11F0E55267
:10179000000902E10301016B010EE66E7DEC11F020
:1017A000E552000904E10301040501E1046B5ED187
:1017B0008484020EE66E7DEC11F0E552010817E11B
:1017C0000301035114E1052B0551030801E2056BE8
:1017D00005C3E6FFF40EE66E010EE66EB5EC10F002
:1017E000E552E552E5520301010E036F0BD0020EE4
:1017F000E66E7DEC11F0E552000904E103010305FA
:1018000001E1036B030EE66E7DEC11F0E552010879
:1018100030E1030102512DE10551EA6A3A0FE96E08
:10182000030EEA22EF2A0551EA6A3A0FE96E030E27
:10183000EA22EFCF14F00551EA6A3E0FE96E030E7B
:10184000EA22EF50D880145408E20551EA6A3A0FB0
:10185000E96E030EEA22300EEF6E3A0EE66E030ECC
:10186000E66EB6EC0EF0E552E5520301010E026F92
:101870000BD0030EE66E7DEC11F0E552000904E199
:101880000301020501E1026B010EE66E7DEC11F031
:10189000E552010838E10301045135E1A3EC0FF0F2
:1018A0003A0EE66E030EE66EB6EC0EF0E552E55229
:1018B00084840301010E046FDF6A040EDF5C15E20D
:1018C000DF50EA6A3A0FE96E030EEA22EF50E66E45
:1018D000100EDF24E66EE66A6EEC15F0E552E55276
:1018E000E55213EC17F0DF2AE8D7E66A000EE66E41
:1018F000E66A6EEC15F0E552E552E55213EC17F08E
:101900000301006B0BD0010EE66E7DEC11F0E55289
:10191000000904E10301040501E1046BA7D0066B93
:10192000E66A7DEC11F0E552010814E10301015172
:1019300011E1010E016FE66A000EE66EE66A6EECDA
:1019400015F0E552E552E55213EC17F00301006B78
:101950008DD00AD0E66A7DEC11F0E552000904E171
:101960000301010501E1016B040EE66E7DEC11F04F
:10197000E552010813E10301070510E18492845048
:10198000020B01E0010EE66E010EE66EE66A6EECF9
:1019900015F0E552E552E55213EC17F0420EE66EF3
:1019A000030EE66E80EC06F0E552E55264D8360E82
:1019B000E66E030EE66EB6EC0EF0E552E552DF6A17
:1019C000040EDF5C15E2DF50EA6A360FE96E030EA3
:1019D000EA22EF50E66E200EDF24E66EE66A6EEC39
:1019E00015F0E552E552E55213EC17F0DF2AE8D77F
:1019F0000301075123E1DF6A040EDF5C1FE2DF50C1
:101A0000EA6A3A0FE96E030EEA22EF50300814E258
:101A1000DF50EA6A3A0FE96E030EEA22EFCF14F0C4
:101A2000DF50EA6A360FE96E030EEA22EF50145CCB
:101A300003E00301010E066FDF2ADED70301065122
:101A400014E1075112E18482010E076F8450020BEA
:101A500001E0010EE66E010EE66EE66A6EEC15F030
:101A6000E552E552E55213EC17F000D0E552E5528D
:101A7000E7CFD9FF1200D9CFE6FFE1CFD9FF040E9F
:101A8000E126DF6A03014451000803E2360EDF6EEF
:101A900002D0300EDF6E440513E1390E435D10E1D4
:101AA000590E425D0DE1E66A000EE66EE66A6EECE6
:101AB00015F0E552E552E55213EC17F00301006B07
:101AC0000F0E03014215300F366FF00E4215E83845
:101AD0000F0B300F376F0F0E4315300F386FF00EAE
:101AE0004315E8380F0BDF24396F040EE15C02E286
:101AF000E16AE552E16EE552E7CFD9FF1200D9CF96
:101B0000E6FFE1CFD9FF020EE126DE6ADD6ADECF15
:101B100014F0DDCF15F0D890155004E6040E145CD7
:101B2000000E15580FE2DECFE9FFDDCFEAFF360EDB
:101B3000E926030EEA22300EEF6EDF2A010E01E3E2
:101B4000DB2AE5D7020EE15C02E2E16AE552E16ED2
:101B5000E552E7CFD9FF1200D9CFE6FFE1CFD9FF99
:101B6000020EE126DE6ADD6ADECF14F0DDCF15F06D
:101B7000D890155004E6040E145C000E15580FE2C0
:101B8000DECFE9FFDDCFEAFF3A0EE926030EEA22B7
:101B9000300EEF6EDF2A010E01E3DB2AE5D7020EDD
:101BA000E15C02E2E16AE552E16EE552E7CFD9FF7E
:101BB0001200300E0301365D146E300E375D100DCD
:101BC000F3501410486F300E385D146E300E395DCE
:101BD000100DF3501410496F480EE66E030EE66EBA
:0A1BE00028EC07F0E552E552120070
:061BEA00D9CFE6FFE1CFB8
:101BF000D9FF050EE126FE0EDB50080802E2000EBA
:101C000066D0FE0EDBCF60F3DF6A03016051DF5C5C
:101C10000AE2DF50EA6A580FE96E030EEA22A7C310
:101C2000EFFFDF2AF2D7500E666F030E676FDF6A91
:101C30000B0EDF5C48E2010EDB6AFE0EDB50F36E3A
:101C4000010EDBCFF4FFF350F45C15E2DF50EA6ADB
:101C50009D0FE96E030EEA22EF50E66E010EDB5097
:101C6000EA6A500FE96E030EEA22E552E750EF6E82
:101C7000010EDB2AE2D7020EDB6A640EF36E020E5F
:101C8000DBCFF4FFF350F45C1CE22DD8030EF36EAF
:101C9000F3CFDBFF040EDB6A030EDBCF14F0DB06B1
:101CA000040EDBCF15F001E2DB061450151006E040
:101CB000080EE66EBFEC16F0E552EED7020EDB2AF8
:101CC000DCD7DF2AB5D70301616B010E00D0146E9B
:101CD000050EE15C02E2E16AE552E16E1450E55264
:101CE000E7CFD9FF120003014F51010A14E0010AA6
:101CF00001E03BD06151EA6A6625E96E6751EA224C
:101D0000EF50E66E41D9E5520301612B6051615DF0
:101D100001E3616B2AD06151EA6A6625E96E675179
:101D2000EA22EF50E66E30D9E5520301612B605193
:101D3000615D01E3616B622B000E63236451625DA0
:101D40006551635911E3626B636B500E661902E1D2
:101D5000030E671905E1580E666F030E676F04D016
:101D6000500E666F030E676F00D01200D9CFE6FFEA
:101D7000E1CFD9FFE652DF6ADF6A03016051DF5C21
:101D800016E2DF50E76EFD0EDBCFE9FFFE0EDBCF84
:101D9000EAFFE750E926000EEA22EF50E66E53D93B
:101DA000E552000902E1000E41D0DF2AE6D7DF6AE2
:101DB0006051DF5C38E2DF50E76EFD0EDBCFE9FFFC
:101DC000FE0EDBCFEAFFE750E926000EEA22EF50D5
:101DD000200809E1DF50EA6A500FE96E030EEA229B
:101DE000A7C3EFFF1ED0DF50E76EFD0EDBCFE9FF8C
:101DF000FE0EDBCFEAFFE750E926000EEA22EF50A5
:101E0000D00FEA6A9D0FE96E030EEA22EF50E66EEC
:101E1000DF50EA6A500FE96E030EEA22E552E750FE
:101E2000EF6EDF2AC5D7616B010E00D0E552E55297
:101E3000E7CFD9FF1200D9CFE6FFE1CFD9FFE652B5
:101E4000DF6ADF6A03016051DF5C19E2DF50E76E91
:101E5000FD0EDBCFE9FFFE0EDBCFEAFFE750E92600
:101E6000000EEA22EF50E66EDF50EA6A500FE96E8C
:101E7000030EEA22E552E750EF6EDF2AE3D7616BEB
:101E8000E552E552E7CFD9FF1200D9CFE6FFE1CF07
:101E9000D9FFE652DF6AFE0EDBCF14F0030160517A
:101EA000D880145402E2000E2DD0FD0EDBCFE6FFE9
:101EB000CAD8E552000902E1000E24D0FD0EDB5025
:101EC00020080AE1FE0EDB50EA6A500FE96E030EAD
:101ED000EA22A7C3EFFF14D0FD0EDB50D00FEA6A51
:101EE0009D0FE96E030EEA22EF50E66EFE0EDB5008
:101EF000EA6A500FE96E030EEA22E552E750EF6EF0
:101F0000010E00D0E552E552E7CFD9FF1200D9CF3C
:101F1000E6FFE1CFD9FFFD0EDBCF64F3FE0EDBCF92
:101F200065F3010E0F0B030105E0D89065336433B0
:101F3000E806FBE10301626B636B010E4F6FE55234
:101F4000E7CFD9FF12000301500E666F030E676FD3
:101F50004F6B1200D9CFE6FFE1CFD9FFE652DF6A1F
:101F600003016051DF5C0AE2DF50EA6A500FE96E5C
:101F7000030EEA22A7C3EFFFDF2AF2D7616BE55217
:101F8000E552E7CFD9FF1200D9CFE6FFE1CFD9FF65
:101F90008080808280848086080EE66E08EC17F0D0
:101FA000E552FE0EDB1C836E03016151030A0DE056
:101FB000010A09E0030A05E0010A01E008D0809067
:101FC00006D0809204D0809402D0809600D0080E73
:101FD000E66E08EC17F0E552E552E7CFD9FF1200A4
:101FE000D9CFE6FFE1CFD9FF020EE126FE0EDB508E
:101FF000DF6EFE0EDBCFE6FFFD0EDB50E552E72481
:10200000DF5C17E2DF50EA6A500FE96E030EEA2246
:10201000010EEFCFDBFFDB508009E66EDF50EA6A8E
:10202000500FE96E030EEA22E552E750EF6EDF2A09
:10203000E0D7020EE15C02E2E16AE552E16EE552B0
:10204000E7CFD9FF1200D9CFE6FFE1CFD9FFE652A3
:10205000DF6AFE0EDB50200803E1010EDF6E0ED0BA
:10206000300EF36EFE0EDBCFF4FFF350F45C06E3AC
:10207000FE0EDB50390802E3010EDF6EDF5000D0A8
:10208000E552E552E7CFD9FF1200D9CFE6FFE1CF05
:10209000D9FFE652DF6AFC0EDB50DF6EFB0EDB5031
:1020A000DF5C16E2DF50E76EFD0EDBCFE9FFFE0ED0
:1020B000DBCFEAFFE750E926000EEA22EF50E66E9A
:1020C000C2DFE552000902E1000E4AD0DF2AE6D75E
:1020D000FC0EDB50DF6EFB0EDBCFE6FFFC0EDB50B1
:1020E000E552E724DF5C38E2DF50E76EFD0EDBCF20
:1020F000E9FFFE0EDBCFEAFFE750E926000EEA22F9
:10210000EF50200809E1DF50EA6A500FE96E030E34
:10211000EA22A7C3EFFF1ED0DF50E76EFD0EDBCF34
:10212000E9FFFE0EDBCFEAFFE750E926000EEA22C8
:10213000EF50D00FEA6A9D0FE96E030EEA22EF50CE
:10214000E66EDF50EA6A500FE96E030EEA22E552AE
:10215000E750EF6EDF2ABFD70301616B010E00D09D
:10216000E552E552E7CFD9FF1200D9CFE6FFE1CF24
:10217000D9FFE652FD0EDBCF64F3FE0EDBCF65F335
:10218000010E0F0B030105E0D89065336433E806B8
:10219000FBE10301626B636BFC0EDB50686F696BE4
:1021A000DF6A6051DF5C1CE2DF50146E156A685113
:1021B000141802E16951151811E0DF50EA6A500F56
:1021C000E96E030EEA22EF50E66EDF50EA6A580F1E
:1021D000E96E030EEA22E552E750EF6EDF2AE1D7FF
:1021E000580E6825E96E030E6921EA6EEF6A010E4A
:0C21F0004F6FE552E552E7CFD9FF120017
:0421FC00D9CFE6FF52
:10220000E1CFD9FFE6528DD8DF6A050EDF5C09E227
:10221000DF50EA6A8E0FE96E030EEA22EF6ADF2AC8
:10222000F4D7E552E552E7CFD9FF1200D9CFE6FF48
:10223000E1CFD9FF9BD8FC0EDBCFE6FFFD0EDBCF55
:10224000E6FFFE0EDBCFE6FFAAD8E552E552E552E7
:10225000E552E7CFD9FF1200D9CFE6FFE1CFD9FF92
:10226000E652FC0EDB50DF6EFB0EDB50D880DF54F5
:102270001AE37CD8DFCFE6FF176ADF34FE0B173690
:10228000166EFD0EDB501624146EFE0EDB5017206A
:10229000156E14C0E6FF15C0E6FF81D8E552E55281
:1022A000E552DF2AE1D7E552E552E7CFD9FF120028
:1022B000D9CFE6FFE1CFD9FFE652DF6A57D8DF6A10
:1022C000050EDF5C15E2DFCFE6FF156ADF34FE0B9B
:1022D0001536146E930E1426030E152214C0E6FF55
:1022E00015C0E6FF5CD8E552E552E552DF2AE8D793
:1022F000E552E552E7CFD9FF1200D9CFE6FFE1CF93
:10230000D9FFFE0EEA6ADB34FE0BEA36E96E930E65
:10231000E926030EEA22EF5000D0E552E7CFD9FFBD
:102320001200D9CFE6FFE1CFD9FFE652DF6A050EF2
:10233000DF5C17E2EA6ADF34FE0BEA36E96E930EE1
:10234000E926030EEA22EF6AEA6ADF34FE0BEA3678
:10235000E96E930EE926030EEA22EE52EF6ADF2AB7
:10236000E6D7E552E552E7CFD9FF12008150010BC5
:1023700003018E6F8150020B01E0010E8F6F8150BF
:10238000040B01E0010E906F8150080B01E0010E7B
:10239000916F8150100B01E0010E926F1200D9CFA6
:1023A000E6FFE1CFD9FFFD0EDBCFE9FFFE0EDBCF6D
:1023B000EAFFEF50010A3DE0010A01E074D0FC0E93
:1023C000DB50EA6A8E0FE96E030EEA22EF50010B32
:1023D00027E1FD0EDBCFE9FFFE0EDBCFEAFFEE5279
:1023E000EF2AFD0EDBCFE9FFFE0EDBCFEAFFEECFDB
:1023F00014F0EFCF15F0020E0001155C10E3FD0E96
:10240000DBCFE9FFFE0EDBCFEAFF010EEF6EFD0E24
:10241000DBCFE9FFFE0EDBCFEAFFEE52EF6A08D01A
:10242000FD0EDBCFE9FFFE0EDBCFEAFFEE52EF6AD7
:102430003AD0FC0EDB50EA6A8E0FE96E030EEA22F8
:10244000EF50010B010826E1FD0EDBCFE9FFFE0E88
:10245000DBCFEAFFEE52EF2AFD0EDBCFE9FFFE0EE7
:10246000DBCFEAFFEECF14F0EFCF15F0020E000144
:10247000155C0FE3FD0EDBCFE9FFFE0EDBCFEAFFBD
:10248000EF6AFD0EDBCFE9FFFE0EDBCFEAFFEE5277
:10249000EF6A08D0FD0EDBCFE9FFFE0EDBCFEAFFCF
:0E24A000EE52EF6A00D0E552E7CFD9FF1200EE
:0224AE00DACF83
:1024B000E4FFE2CFDAFFE9CFE4FFEACFE4FFF6CFB3
:1024C000E4FFF7CFE4FFF5CFE4FFF3CFE4FFF4CF71
:1024D000E4FFFACFE4FF00EE00F0140EE80403E39B
:1024E000EECFE4FFFBD700EE14F0080EE80403E3A0
:1024F000EECFE4FFFBD7E652F2940301722B000EFD
:102500007323742B7523762B77237807795B7935C2
:1025100004E278510008000E795508E37A2B000E8A
:102520007B237C237D23C80E786F796B6C516D11F2
:1025300007E005D06DC3FAFF03016C51F96EFADFB5
:102540006AC3E6FF6BC3E6FF87EC16F0E552E5527F
:10255000E55200EE1BF0080EE80403E3E5CFEDFFC3
:10256000FBD700EE13F0140EE80403E3E5CFEDFF14
:10257000FBD7E5CFFAFFE5CFF4FFE5CFF3FFE5CFDB
:10258000F5FFE5CFF7FFE5CFF6FFE5CFEAFFE5CFB3
:10259000E9FFE5CFDAFF1100DACFE4FFE2CFDAFF9F
:1025A000E9CFE4FFEACFE4FFF6CFE4FFF7CFE4FFA3
:1025B000F5CFE4FFF3CFE4FFF4CFE4FFFACFE4FF7D
:1025C00000EE00F0140EE80403E3EECFE4FFFBD7C7
:1025D00000EE14F0080EE80403E3EECFE4FFFBD7AF
:1025E000E6529E906EC3E6FF6FC3E6FF6BEC16F0FB
:1025F000E552E55203017051711107E005D071C336
:10260000FAFF03017051F96EFADFE55200EE1BF09C
:10261000080EE80403E3E5CFEDFFFBD700EE13F06F
:10262000140EE80403E3E5CFEDFFFBD7E5CFFAFF97
:10263000E5CFF4FFE5CFF3FFE5CFF5FFE5CFF7FFFB
:10264000E5CFF6FFE5CFEAFFE5CFE9FFE5CFDAFF1B
:102650001100D9CFE6FFE1CFD9FF9F0EE66EA3ECC4
:1026600016F0E552FD0EDBCF6AF3FE0EDBCF6BF307
:10267000FB0EDBCF6CF3FC0EDBCF6DF3FD0EDBCF7F
:10268000E6FFFE0EDBCFE6FF87EC16F0E552E552E3
:10269000E552E7CFD9FF1200D9CFE6FFE1CFD9FF4E
:1026A000C50EE66E0DEC16F0E552FD0EDBCFE6FF33
:1026B000FE0EDBCFE6FF6BEC16F0E552E5529F8095
:1026C000FD0EDBCF6EF3FE0EDBCF6FF3FB0EDBCF29
:1026D00070F3FC0EDBCF71F3E552E7CFD9FF1200A8
:1026E000D9CFE6FFE1CFD9FF040EE126F29A7AC3F3
:1026F000DFFF010E7BC3DBFF020E7CC3DBFF030E9B
:102700007DC3DBFFF28ADECF06F0DECF07F0DECF3F
:1027100008F0DDCF09F0DD52DD52040EE15C03E28A
:1027200000D0E16AE552E16EE552E7CFD9FF120031
:10273000F29E03017A6B7B6B7C6B7D6BF28E1200D9
:10274000C76AC78E590EC86E280EC66EC56A9E9699
:10275000A196948694881200949694988288828692
:10276000050EE66E08EC17F0E5528298050EE66E4F
:1027700008EC17F0E5528296050EE66E08EC17F0AD
:10278000E5521200949694988298050EE66E08EC35
:1027900017F0E5528286050EE66E08EC17F0E5525A
:1027A00082881200D9CFE6FFE1CFD9FFE652949696
:1027B0009488DF6ADF500A080EE3050EE66E08EC27
:1027C00017F0E5528286050EE66E08EC17F0E5522A
:1027D0008296DF2AEFD7E552E552E7CFD9FF120004
:1027E000D9CFE6FFE1CFD9FFE65294969498DF6AFD
:1027F000080EDF5C25E2FE0EDB50800B02E0010ECE
:1028000001D0000EE8B08288E8A08298030EE66E40
:1028100008EC17F0E5528286060EE66E08EC17F01B
:10282000E5528296020EE66E08EC17F0E552FE0EB7
:10283000DBCFF3FFF39EF346F3CFDBFFDF2AD8D7DE
:102840009488020EE66E08EC17F0E5528286060EBA
:10285000E66E08EC17F0E5528296060EE66E08EC7E
:1028600017F0E552E552E552E7CFD9FF1200D9CF74
:10287000E6FFE1CFD9FF020EE126DF6A9496949835
:102880009488010EDB6A080EF36E010EDBCFF4FFB5
:10289000F350F45C17E28286060EE66E08EC17F041
:1028A000E552DF9EDF468250100B01E0010EDF1083
:1028B000DF6E8296060EE66E08EC17F0E552010E0A
:1028C000DB2AE1D79498FE0EDB0402E1829801D066
:1028D0008288020EE66E08EC17F0E5528286060E3C
:1028E000E66E08EC17F0E5528296060EE66E08ECEE
:1028F00017F0E552DF50146E020EE15C03E200D0E7
:10290000E16AE552E16E1450E552E7CFD9FF1200BB
:10291000D9CFE6FFE1CFD9FFE6521EDFFE0EDBCFB7
:10292000E6FF5EDFE552FD0EDBCFE6FF59DFE55245
:1029300013DFFE0EDB28E66E53DFE552E66A97DF13
:10294000E552DF6E1FDFDF5000D0E552E552E7CFE2
:10295000D9FF1200D9CFE6FFE1CFD9FFFDDEFE0E91
:10296000DBCFE6FF3DDFE552FD0EDBCFE6FF38DFD4
:10297000E552FC0EDBCFE6FF33DFE55203DFE55225
:06298000E7CFD9FF1200B1
:0A298600D9CFE6FFE1CFD9FF040E20
:10299000E126DF6A030EDB6A2EEC16F09EEC0AF0ED
:1029A000FEEC10F0040EE66EF5EC0DF0E552000EB4
:1029B000E66EE66ABF0EE66EE00EE66E29EC13F0F8
:1029C000E552E552E552E552E60EE66E1C0EE66E65
:1029D000770EE66EEC0EE66E4CEC13F0E552E55227
:1029E000E552E552DBEC0AF00DEC00F0F28E03014B
:1029F000580E725D020E735905E3FEEC16F00301EA
:102A0000726B736B03010A0E745D000E755906E359
:102A100058EC11F00301746B756BDF2A020EDF5C5A
:102A200003E368EC0BF0DF6AE2D7040EE15C02E23C
:0E2A3000E16AE552E16EE552E7CFD9FF1200F0
:022A3E00500E38
:102A4000F66E000EF76E000EF86E03010900F550E9
:102A5000AD6F0900F550AE6F03E1AD6701D03DD019
:102A60000900F550A86F0900F550A96F0900F5504D
:102A7000AA6F09000900F550E96E0900F550EA6EE9
:102A8000090009000900F550AB6F0900F550AC6F63
:102A900009000900F6CFAFF3F7CFB0F3F8CFB1F3E9
:102AA000A8C3F6FFA9C3F7FFAAC3F8FF0301AB53FE
:102AB00002E1AC5307E00900F550EE6EAB07F8E217
:102AC000AC07F9D7AFC3F6FFB0C3F7FFB1C3F8FF48
:0C2AD0000301AD07000EAE5BBFD7120083
:042ADC00D9CFE6FF69
:102AE000DACFE6FFE1CFD9FFE2CFDAFFE652DF6AC5
:102AF000FF0EE76EFC0EDBCF14F0E75014161450F7
:102B0000A96EFB0EDB50A86EA69EA69CA684F25072
:102B1000800B01E0010EDF6EF29E550EA76EAA0E2D
:102B2000A76EA682A6B2FED7DF50E8B0F28EE8A06C
:102B3000F29EA694E552E552E5CFDAFFE7CFD9FF42
:022B4000120081
:0E2B4200446563004E6F76004F637400536568
:102B50007000417567004A756C004A756E004D61E2
:102B60007900417072004D617200466562004A61F1
:102B70006E005361740046726900546875005765B1
:0E2B80006400547565004D6F6E0053756E0055
:022B8E00056AD6
:102B9000046A036A026A200EE76ED890063607368A
:102BA0000836093602360336043605360B50025C09
:102BB0000C5003580D5004580E50055809E30B50A3
:102BC000025E0C50035A0D50045A0E50055A062A44
:062BD000E72EE4D712001D
:0A2BD600D9CFE6FFDACFE6FFE1CF2A
:102BE000D9FFE2CFDAFFFF0EE76EFC0EDBCF14F069
:102BF000FD0EDBCF15F0E7501416156A1450A96EC0
:102C0000A69CA69EA68000000000A85000D0E55219
:0A2C1000E5CFDAFFE7CFD9FF12008D
:062C1A00D9CFE6FFDACF7E
:102C2000E6FFE1CFD9FFE2CFDAFFFD0EDB507E0BEE
:102C3000CD6EFD0EDBAC02D0CD8E01D0CD9ECF6A25
:102C4000CE6A9E90DBAE02D09D8001D09D90CD805B
:0C2C5000E552E5CFDAFFE7CFD9FF120014
:042C5C00C26A0F0E2B
:102C6000C16EB50EC06E700ED3129B8C9490949C66
:102C7000948E956A92909292929492969380938277
:102C8000938493869388938C938C938E9496949844
:0A2C9000969096949692849212009A
:062C9A0008C012F0085012
:102CA0000D02F4CF07F0F3CF06F009500E02F4CF77
:102CB00009F0F3CF08F00D02F3500726F450082274
:102CC000E86A092212500E02F3500726F450082237
:062CD000E86A0922000C75
:0A2CD600D9CFE6FFDACFE6FFE1CF29
:102CE000D9FFE2CFDAFFE652E652FC0EDBCFDEFF81
:102CF000DBCFDDFF010EDB50CF6EDF50CE6EE55235
:0E2D0000E552E552E5CFDAFFE7CFD9FF12002A
:022D0E00D9CF1B
:102D1000E6FFDACFE6FFE1CFD9FFE2CFDAFFE652F6
:102D2000E652FC0EDBCFDEFFDBCFDDFF010EDB501A
:102D3000D76EDF50D66EE552E552E552E5CFDAFFA9
:062D4000E7CFD9FF1200ED
:0A2D4600D9CFE6FFDACFE6FFE1CFB8
:102D5000D9FFE2CFDAFFFD0EDB507F0BD56ED76ACD
:102D6000D66AF294FD0EDBAE02D0F28A01D0F29A5E
:0E2D7000D58EE552E5CFDAFFE7CFD9FF12008E
:022D7E00FF0E46
:102D8000E3501C6E480E01D04C0EE76EE72EFED7C6
:0E2D9000E76AE72EFED71C2EF7D700001200D0
:022D9E00000E25
:102DA000F36E00EE00F0060E01D81200EA6002D0C9
:0E2DB000EE6AFCD7F350E9601200EE6AFCD721
:022DBE0010EE15
:102DC00080F020EE80F0F86A019C1FEC15F003EC17
:0A2DD00000F0C3EC14F0FBD7120072
:062DDA00056A080EE76E19
:102DE000D890093605360E50055C02E3056E092AB7
:062DF000E72EF7D71200E8
:0A2DF6000301BC6B12000301BC05D1
:102E000003E1BC6B849003D0010EBC6F8480120080
:102E1000FF0EE350E84E1200000000D000D000D0BA
:062E2000E82EFAD71200B3
:062E2600A6B2FED7120067
:042E2C0000000000A2
:042E3000000000009E
:0C2E340000000000000000000000000092
:032E40000000008F
:0D2E43000000000000000000000000000082
:0E2E5000000000000000000000000000000074
:022E5E00000072
:102E6000000000000000000000000000C80000009A
:022E7000000060
:0E2E7200008A2B862B822B7E2B7A2B762B72DE
:102E80002B6E2B6A2B662B622B5E2B5A2B562B52EA
:0A2E90002B4E2B4A2B462B422B0041
:062E9A004944454F4E497A
:032EA00043530099
:0B2EA3003F065B4F666D7D077F6F00F0
:022EAE00000022
:102EB0000000000000000000000000003935393932
:0D2EC000000000000000505900032712130D
:020000040030CA
:0100010008F6
:010002001BE2
:0100030012EA
:010005008179
:010006008178
:010008000FE8
:01000900C036
:01000A000FE6
:01000B00E014
:01000C000FE4
:01000D0040B2
:00000001FF
