:020000040000FA
:06000000EFEF16F0120004
:020006001200E6
:08000800F2A402D070EF12F027
:100010009EA002D0E5EF12F01200D08EF28E1200F8
:10002000056A046A100EE76ED89008360936043661
:1000300005360D50045C0E50055805E30D50045E66
:0C0040000E50055A082AE72EF0D71200D7
:01004C0000B3
:100050000900DE2E00005B03000017000000D32E15
:100060000000A50300000B0000004C000000C403CA
:10007000000001000000CA2E0000BA0300000900C1
:100080000000A22E000018030000280000008E2EA1
:1000900000007203000014000000732E00004003F3
:1000A00000001B000000642E0000960300000F00FB
:0E00B00000004C2E00000003000018000000AD
:0200BE00D9CF98
:1000C000E6FFE1CFD9FFE652FD0EDBCF16F0FE0EC4
:1000D000DBCF17F017C016F0176A640E1702F3CFC4
:1000E00017F01602F3CF16F0F4501726FD0EDBCFF3
:1000F00018F0FE0EDBCF19F0040ED890193218322A
:10010000E804FBE10A0E1902F3CF19F01802F3CF4D
:1001100018F0F450192616501810146E17501910B4
:10012000156E0F0EE76EFD0EDBCF1AF0FE0EDBCF65
:100130001BF0E7501A161B6A14501A10DF6EDF50BE
:1001400000D0E552E552E7CFD9FF1200D9CFE6FF44
:10015000E1CFD9FFFE0EDB50F00BE83A060DFE0EA4
:10016000DBCFE7FFF350E75EFE0EE7CFDBFFDB50B0
:10017000146E156A14C0F3FF15C0F4FF00D0E552E9
:10018000E7CFD9FF1200D9CFE6FFE1CFD9FF020EAA
:10019000E1260A0E146E14C00EF0FE0EDBCF09F03D
:1001A000FDEC16F00950DF6E0A0E146E14C00EF04E
:1001B000FE0EDBCF09F0FDEC16F0010E05C0DBFFF3
:1001C000DB500F0B146E0F0EDF14100DF3501410D4
:1001D000146E020EE15C03E200D0E16AE552E16ECA
:1001E0001450E552E7CFD9FF1200D9CFE6FFE1CF97
:1001F000D9FF0E0EE126FD0EDBCF14F0FE0EDBCF95
:1002000015F00A0E0D6E0E6A14C008F015C009F044
:1002100010EC00F004C014F005C015F00A0E14C074
:10022000DBFF0B0E15C0DBFF0C0EDB6A0D0EDB6A6D
:100230000A0EDB50E76E040EE7CFDBFFFD0EDBCFCF
:1002400014F0FE0EDBCF15F00A0E0D6E0E6A14C010
:1002500008F015C009F010EC00F008C014F009C057
:1002600015F0060E14C0DBFF070E15C0DBFF080EED
:10027000DB6A090EDB6A060EDBCF06F0070EDBCF6A
:1002800007F0080EDBCF08F0090EDBCF09F00A0EED
:100290000B6E0C6A0D6A0E6AD7EC15F00A0E02C0DE
:1002A000DBFF0B0E03C0DBFF0C0E04C0DBFF0D0EEB
:1002B00005C0DBFF0A0EDB50E76E030EE7CFDBFF66
:1002C000060EDBCF06F0070EDBCF07F0080EDBCF04
:1002D00008F0090EDBCF09F00A0E0B6E0C6A0D6AEE
:1002E0000E6AD7EC15F0060E06C0DBFF070E07C03E
:1002F000DBFF080E08C0DBFF090E09C0DBFF060E9E
:10030000DBCF06F0070EDBCF07F0080EDBCF08F0DF
:10031000090EDBCF09F00A0E0B6E0C6A0D6A0E6A2D
:10032000D7EC15F00A0E02C0DBFF0B0E03C0DBFF9B
:100330000C0E04C0DBFF0D0E05C0DBFF0A0EDB5008
:10034000E76E020EE7CFDBFF060EDBCF06F0070EEF
:10035000DBCF07F0080EDBCF08F0090EDBCF09F08A
:100360000A0E0B6E0C6A0D6A0E6AD7EC15F0060EBB
:1003700006C0DBFF070E07C0DBFF080E08C0DBFF6F
:10038000090E09C0DBFF060EDBCF06F0070EDBCF40
:1003900007F0080EDBCF08F0090EDBCF09F00A0EDC
:1003A0000B6E0C6A0D6A0E6AD7EC15F00A0E02C0CD
:1003B000DBFF0B0E03C0DBFF0C0E04C0DBFF0D0EDA
:1003C00005C0DBFF0A0EDB50E76E010EE7CFDBFF57
:1003D000060EDBCF06F0070EDBCF07F0080EDBCFF3
:1003E00008F0090EDBCF09F00A0E0B6E0C6A0D6ADD
:1003F0000E6AD7EC15F0060E06C0DBFF070E07C02D
:10040000DBFF080E08C0DBFF090E09C0DBFF060E8C
:10041000DB50DF6E050EDB6AF36EDBCFF4FFF350CB
:10042000F45C21E2D9CF14F0DACF15F0050EDB50E1
:100430000F011424E96E000E1520EA6EEF50E66EEF
:10044000050EDB50E76EFB0EDBCFE9FFFC0EDBCFCA
:10045000EAFFE750E926000EEA22E552E750EF6E88
:10046000050EDB2AD9D70E0EE15C02E2E16AE55205
:10047000E16EE552E7CFD9FF1200D9CFE6FFE1CF19
:10048000D9FF080EE1260A0E146E14C00EF0FE0EFF
:10049000DBCF09F0FDEC16F00550E66ED950060FE3
:1004A000E96EDACFEAFFE552E750EE6EED6A060E2E
:1004B000DB50E76E020EE7CFDBFF0A0E146E14C0AE
:1004C0000EF0FE0EDBCF09F0FDEC16F00950E66EE3
:1004D000D950040FE96EDACFEAFFE552E750EE6E2D
:1004E000ED6A040EDBCF14F0050EDBCF15F00A0E1B
:1004F0000D6E0E6A14C008F015C009F010EC00F083
:1005000004C014F005C015F0060E14C0DBFF070E82
:1005100015C0DBFF060EDB50E76E010EE7CFDBFFF9
:100520000A0E146E156A040EDBCF08F0050EDBCF41
:1005300009F014C00DF015C00EF010EC00F0040E20
:1005400008C0DBFF050E09C0DBFF040EDB50DF6EC9
:10055000030EDB6AF36EDBCFF4FFF350F45C21E2B1
:10056000D9CF14F0DACF15F0030EDB500F011424AD
:10057000E96E000E1520EA6EEF50E66E030EDB50BA
:10058000E76EFC0EDBCFE9FFFD0EDBCFEAFFE750A5
:10059000E926000EEA22E552E750EF6E030EDB2A51
:1005A000D9D7080EE15C02E2E16AE552E16EE5525C
:1005B000E7CFD9FF1200D9CFE6FFE1CFD9FF130E65
:1005C000E126FB0EDBCF06F0FC0EDBCF07F0FD0EC5
:1005D000DBCF08F0FE0EDBCF09F00A0E0B6E0C6AC3
:1005E0000D6A0E6AD7EC15F00F0E02C0DBFF100E7D
:1005F00003C0DBFF110E04C0DBFF120E05C0DBFFE2
:100600000F0EDB50E76E090EE7CFDBFFFB0EDBCFF3
:1006100006F0FC0EDBCF07F0FD0EDBCF08F0FE0E80
:10062000DBCF09F00A0E0B6E0C6A0D6A0E6AD7EC6E
:1006300015F00B0E06C0DBFF0C0E07C0DBFF0D0E26
:1006400008C0DBFF0E0E09C0DBFF0B0EDBCF06F090
:100650000C0EDBCF07F00D0EDBCF08F00E0EDBCF5C
:1006600009F00A0E0B6E0C6A0D6A0E6AD7EC15F0D3
:100670000F0E02C0DBFF100E03C0DBFF110E04C023
:10068000DBFF120E05C0DBFF0F0EDB50E76E080E1E
:10069000E7CFDBFF0B0EDBCF06F00C0EDBCF07F056
:1006A0000D0EDBCF08F00E0EDBCF09F00A0E0B6E3D
:1006B0000C6A0D6A0E6AD7EC15F00B0E06C0DBFF54
:1006C0000C0E07C0DBFF0D0E08C0DBFF0E0E09C0CD
:1006D000DBFF0B0EDBCF06F00C0EDBCF07F00D0EB1
:1006E000DBCF08F00E0EDBCF09F00A0E0B6E0C6AA2
:1006F0000D6A0E6AD7EC15F00F0E02C0DBFF100E6C
:1007000003C0DBFF110E04C0DBFF120E05C0DBFFD0
:100710000F0EDB50E76E070EE7CFDBFF0B0EDBCFD4
:1007200006F00C0EDBCF07F00D0EDBCF08F00E0E3F
:10073000DBCF09F00A0E0B6E0C6A0D6A0E6AD7EC5D
:1007400015F00B0E06C0DBFF0C0E07C0DBFF0D0E15
:1007500008C0DBFF0E0E09C0DBFF0B0EDBCF06F07F
:100760000C0EDBCF07F00D0EDBCF08F00E0EDBCF4B
:1007700009F00A0E0B6E0C6A0D6A0E6AD7EC15F0C2
:100780000F0E02C0DBFF100E03C0DBFF110E04C012
:10079000DBFF120E05C0DBFF0F0EDB50E76E060E0F
:1007A000E7CFDBFF0B0EDBCF06F00C0EDBCF07F045
:1007B0000D0EDBCF08F00E0EDBCF09F00A0E0B6E2C
:1007C0000C6A0D6A0E6AD7EC15F00B0E06C0DBFF43
:1007D0000C0E07C0DBFF0D0E08C0DBFF0E0E09C0BC
:1007E000DBFF0B0EDBCF06F00C0EDBCF07F00D0EA0
:1007F000DBCF08F00E0EDBCF09F00A0E0B6E0C6A91
:100800000D6A0E6AD7EC15F00F0E02C0DBFF100E5A
:1008100003C0DBFF110E04C0DBFF120E05C0DBFFBF
:100820000F0EDB50E76E050EE7CFDBFF0B0EDBCFC5
:1008300006F00C0EDBCF07F00D0EDBCF08F00E0E2E
:10084000DBCF09F00A0E0B6E0C6A0D6A0E6AD7EC4C
:1008500015F00B0E06C0DBFF0C0E07C0DBFF0D0E04
:1008600008C0DBFF0E0E09C0DBFF0B0EDBCF06F06E
:100870000C0EDBCF07F00D0EDBCF08F00E0EDBCF3A
:1008800009F00A0E0B6E0C6A0D6A0E6AD7EC15F0B1
:100890000F0E02C0DBFF100E03C0DBFF110E04C001
:1008A000DBFF120E05C0DBFF0F0EDB50E76E040E00
:1008B000E7CFDBFF0B0EDBCF06F00C0EDBCF07F034
:1008C0000D0EDBCF08F00E0EDBCF09F00A0E0B6E1B
:1008D0000C6A0D6A0E6AD7EC15F00B0E06C0DBFF32
:1008E0000C0E07C0DBFF0D0E08C0DBFF0E0E09C0AB
:1008F000DBFF0B0EDBCF06F00C0EDBCF07F00D0E8F
:10090000DBCF08F00E0EDBCF09F00A0E0B6E0C6A7F
:100910000D6A0E6AD7EC15F00F0E02C0DBFF100E49
:1009200003C0DBFF110E04C0DBFF120E05C0DBFFAE
:100930000F0EDB50E76E030EE7CFDBFF0B0EDBCFB6
:1009400006F00C0EDBCF07F00D0EDBCF08F00E0E1D
:10095000DBCF09F00A0E0B6E0C6A0D6A0E6AD7EC3B
:1009600015F00B0E06C0DBFF0C0E07C0DBFF0D0EF3
:1009700008C0DBFF0E0E09C0DBFF0B0EDBCF06F05D
:100980000C0EDBCF07F00D0EDBCF08F00E0EDBCF29
:1009900009F00A0E0B6E0C6A0D6A0E6AD7EC15F0A0
:1009A0000F0E02C0DBFF100E03C0DBFF110E04C0F0
:1009B000DBFF120E05C0DBFF0F0EDB50E76E020EF1
:1009C000E7CFDBFF0B0EDBCF06F00C0EDBCF07F023
:1009D0000D0EDBCF08F00E0EDBCF09F00A0E0B6E0A
:1009E0000C6A0D6A0E6AD7EC15F00B0E06C0DBFF21
:1009F0000C0E07C0DBFF0D0E08C0DBFF0E0E09C09A
:100A0000DBFF0B0EDBCF06F00C0EDBCF07F00D0E7D
:100A1000DBCF08F00E0EDBCF09F00A0E0B6E0C6A6E
:100A20000D6A0E6AD7EC15F00F0E02C0DBFF100E38
:100A300003C0DBFF110E04C0DBFF120E05C0DBFF9D
:100A40000F0EDB50E76E010EE7CFDBFF0B0EDBCFA7
:100A500006F00C0EDBCF07F00D0EDBCF08F00E0E0C
:100A6000DBCF09F00A0E0B6E0C6A0D6A0E6AD7EC2A
:100A700015F00B0E06C0DBFF0C0E07C0DBFF0D0EE2
:100A800008C0DBFF0E0E09C0DBFF0B0EDB50DF6E74
:100A90000A0EDB6AF36EDBCFF4FFF350F45C22E264
:100AA000D9CF14F0DACF15F00A0EDB500F01142461
:100AB000E96E000E1520EA6EEF503009E66E0A0E60
:100AC000DB50E76EF90EDBCFE9FFFA0EDBCFEAFF72
:100AD000E750E926000EEA22E552E750EF6E0A0ED3
:100AE000DB2AD8D7130EE15C02E2E16AE552E16E3F
:100AF000E552E7CFD9FF1200D9CFE6FFE1CFD9FF0A
:100B0000FE0EDB50F00BE83A060DFE0EDBCFE7FFE2
:100B1000F350E75EFE0EE7CFDBFFDB5000D0E5527F
:100B2000E7CFD9FF1200D9CFE6FFE1CFD9FF0A0EF8
:100B3000146E14C00EF0FE0EDBCF09F0FDEC16F0C3
:100B40000950060DFE0EDBCFE7FFF350E726FE0E41
:100B5000E7CFDBFFDB50146E156A14C0F3FF15C03E
:100B6000F4FF00D0E552E7CFD9FF1200D9CFE6FF5E
:100B7000E1CFD9FF060EE126F36EFC0EDBCFF4FFCA
:100B8000F350F45C71E2020EDB6A030EDB6A040EC2
:100B9000DB6A050EDB6ADF6AFC0EDB50DF5C58E2C5
:100BA000FC0EDBCFE6FFDF28E552E75CE76E010EC7
:100BB000E7CFDBFFF36E040EF3CFDBFF050EDB6A3E
:100BC000010EDB50000814E20A0E086E096A040EDA
:100BD000DBCF0DF0050EDBCF0EF05DEC16F0040E52
:100BE00006C0DBFF050E07C0DBFF010EDB06E8D702
:100BF000020EDBCF16F0030EDBCF17F0DF50E76EEF
:100C0000FD0EDBCFE9FFFE0EDBCFEAFFE750E92662
:100C1000000EEA22EF500F0B186E196A040EDBCF9C
:100C200008F0050EDBCF09F018C00DF019C00EF06A
:100C30005DEC16F016500624146E17500720156E42
:100C4000020E14C0DBFF030E15C0DBFFDF2AA4D7A2
:100C5000020EDBCF14F0030EDBCF15F014C0F3FF50
:100C600015C0F4FF04D003D0F36AF46A00D0060E76
:100C7000E15C02E2E16AE552E16EE552E7CFD9FFBD
:020C8000120060
:0E0C8200D9CFE6FFE1CFD9FFFE0EDB04E96E0D
:100C9000EA6AD890E936EA36190EE926030EEA2206
:100CA000EECF14F0EFCF15F014C0F3FF15C0F4FF32
:100CB00000D0E552E7CFD9FF1200D9CFE6FFE1CF50
:100CC000D9FFFE0EDBCFE6FFE66A5FEC00F0E552EF
:100CD000E552FF0FE96EEA6AD890E936EA36270E48
:100CE000E926030EEA22EECF14F0EFCF15F014C080
:100CF000F3FF15C0F4FF00D0E552E7CFD9FF120093
:100D0000D9CFE6FFE1CFD9FFC5EC13F0D00EE66EE8
:100D100009EC14F0E552E66A09EC14F0E552C5EC72
:100D200013F0D10EE66E09EC14F0E552010EE66EFA
:100D300050EC14F0E552E66EFD0EDBCFE9FFFE0E3F
:100D4000DBCFEAFFE552E750EF6E010EE66E50ECA6
:100D500014F0E552E66E010EE76EFD0EDBCFE9FF03
:100D6000FE0EDBCFEAFFE750E926000EEA22E5524D
:100D7000E750EF6E010EE66E50EC14F0E552E66EB1
:100D8000020EE76EFD0EDBCFE9FFFE0EDBCFEAFFC2
:100D9000E750E926000EEA22E552E750EF6E010E19
:100DA000E66E50EC14F0E552E66E030EE76EFD0EB3
:100DB000DBCFE9FFFE0EDBCFEAFFE750E926000EAE
:100DC000EA22E552E750EF6E010EE66E50EC14F0A9
:100DD000E552E66E040EE76EFD0EDBCFE9FFFE0E78
:100DE000DBCFEAFFE750E926000EEA22E552E750A2
:100DF000EF6E010EE66E50EC14F0E552E66E050E55
:100E0000E76EFD0EDBCFE9FFFE0EDBCFEAFFE7501A
:100E1000E926000EEA22E552E750EF6EE66A50EC52
:100E200014F0E552E66E060EE76EFD0EDBCFE9FF2D
:100E3000FE0EDBCFEAFFE750E926000EEA22E5527C
:100E4000E750EF6EDBEC13F0E552E7CFD9FF12006D
:100E5000D9CFE6FFE1CFD9FFC5EC13F0D00EE66E97
:100E600009EC14F0E552E66A09EC14F0E552FD0EC7
:100E7000DBCFE9FFFE0EDBCFEAFFEF50E66E09ECB9
:100E800014F0E552010EE76EFD0EDBCFE9FFFE0E1A
:100E9000DBCFEAFFE750E926000EEA22EF50E66ECC
:100EA00009EC14F0E552020EE76EFD0EDBCFE9FF10
:100EB000FE0EDBCFEAFFE750E926000EEA22EF50F4
:100EC000E66E09EC14F0E552030EE76EFD0EDBCF83
:100ED000E9FFFE0EDBCFEAFFE750E926000EEA222B
:100EE000EF50E66E09EC14F0E552040EE76EFD0ECD
:100EF000DBCFE9FFFE0EDBCFEAFFE750E926000E6D
:100F0000EA22EF50E66E09EC14F0E552050EE76EAA
:100F1000FD0EDBCFE9FFFE0EDBCFEAFFE750E9264F
:100F2000000EEA22EF50E66E09EC14F0E552060ED0
:100F3000E76EFD0EDBCFE9FFFE0EDBCFEAFFE750E9
:100F4000E926000EEA22EF50E66E09EC14F0E552B5
:100F5000DBEC13F0E552E7CFD9FF1200D9CFE6FF63
:100F6000E1CFD9FFFD0EDB041DE1FE0EDB50400991
:100F7000E76EFE0EE7CFDBFFFC0EDB0408E1FE0EA2
:100F8000DB502009E76EFE0EE7CFDBFF0AD0FC0E38
:100F9000DB5007E1FE0EDB50DF0BE76EFE0EE7CF06
:100FA000DBFF0AD0FD0EDB5007E1FE0EDB50BF0B6E
:100FB000E76EFE0EE7CFDBFFFE0EDB5000D0E55202
:100FC000E7CFD9FF1200D9CFE6FFE1CFD9FFFD0E61
:100FD000DBCFE9FFFE0EDBCFEAFFEE52EF50E66E0D
:100FE000FB0EDBCFE9FFFC0EDBCFEAFFEE52E55252
:100FF000E750EF6EFD0EDBCFE9FFFE0EDBCFEAFF21
:10100000EF50E66EFB0EDBCFE9FFFC0EDBCFEAFF15
:10101000E552E750EF6EFD0EDBCFE9FFFE0EDBCFB2
:10102000EAFF020EE926000EEA22EFCF14F00C0EC2
:10103000145C42E3FD0EDBCFE9FFFE0EDBCFEAFFDF
:10104000020EE926000EEA22EF50F40FE66EFB0EC8
:10105000DBCFE9FFFC0EDBCFEAFF020EE926000E34
:10106000EA22E552E750EF6EFB0EDBCFE9FFFC0E04
:10107000DBCFEAFF070EE926000EEA22010EEF6E33
:101080000C0E146EFD0EDBCFE9FFFE0EDBCFEAFF88
:10109000020EE926000EEA22EF50145C0CE1FB0E72
:1010A000DBCFE9FFFC0EDBCFEAFF020EE926000EE4
:1010B000EA220C0EEF6E4BD0FD0EDBCFE9FFFE0EE9
:1010C000DBCFEAFF020EE926000EEA22EFCF14F092
:1010D0000C0E145C3CE2FD0EDBCFE9FFFE0EDBCF15
:1010E000EAFF020EE926000EEA22EF50E66EFB0E42
:1010F000DBCFE9FFFC0EDBCFEAFF020EE926000E94
:10110000EA22E552E750EF6EFB0EDBCFE9FFFC0E63
:10111000DBCFEAFF070EE926000EEA22EF6AFD0E9A
:10112000DBCFE9FFFE0EDBCFEAFF020EE926000E61
:10113000EA22EF500CE1FB0EDBCFE9FFFC0EDBCF28
:10114000EAFF020EE926000EEA220C0EEF6EE552CF
:10115000E7CFD9FF1200D9CFE6FFE1CFD9FFFD0ECF
:10116000DBCFE9FFFE0EDBCFEAFFEE52EF50E66E7B
:10117000FB0EDBCFE9FFFC0EDBCFEAFFEE52E552C0
:10118000E750EF6EFD0EDBCFE9FFFE0EDBCFEAFF8F
:10119000EF50E66EFB0EDBCFE9FFFC0EDBCFEAFF84
:1011A000E552E750EF6EFD0EDBCFE9FFFE0EDBCF21
:1011B000EAFF070EE926000EEA22EF0436E1FD0EF3
:1011C000DBCFE9FFFE0EDBCFEAFF020EE926000EC1
:1011D000EA22EF500C0FE66EFB0EDBCFE9FFFC0EB0
:1011E000DBCFEAFF020EE926000EEA22E552E750C5
:1011F000EF6E0C0E146EFD0EDBCFE9FFFE0EDBCFA3
:10120000EAFF020EE926000EEA22EF50145C0CE120
:10121000FB0EDBCFE9FFFC0EDBCFEAFF020EE92677
:10122000000EEA220C0EEF6E3FD0FD0EDBCFE9FF81
:10123000FE0EDBCFEAFF070EE926000EEA22EF5092
:1012400033E1FD0EDBCFE9FFFE0EDBCFEAFF020E3E
:10125000E926000EEA22EF50E66EFB0EDBCFE9FF37
:10126000FC0EDBCFEAFF020EE926000EEA22E55271
:10127000E750EF6E0C0E146EFD0EDBCFE9FFFE0E95
:10128000DBCFEAFF020EE926000EEA22EF50145CE3
:101290000BE1FB0EDBCFE9FFFC0EDBCFEAFF020E1A
:1012A000E926000EEA22EF6AE552E7CFD9FF1200E5
:1012B000D9CFE6FFE1CFD9FFE652DF6AFD0EDB04AE
:1012C0000DE1FE0EDB500C0FDF6E0C0E146EFE0EE9
:1012D000DB50145C02E10C0EDF6E16D0FD0EDB500D
:1012E0000BE1FE0EDB50DF6E0C0E146EFE0EDB50BB
:1012F000145C01E1DF6A08D0AA0E146EFD0EDB500B
:10130000145C02E1AA0EDF6EDF5000D0E552E55218
:10131000E7CFD9FF1200D9CFE6FFE1CFD9FFC5EC67
:1013200013F0D00EE66E09EC14F0E552E66A09EC13
:1013300014F0E552050EE76EFD0EDBCFE9FFFE0E61
:10134000DBCFEAFFE750E926000EEA22EF500F0B51
:10135000146E040EE76EFD0EDBCFE9FFFE0EDBCF51
:10136000EAFFE750E926000EEA22EF500F0B100DBE
:10137000F3501410E66E09EC14F0E552030EE76E1C
:10138000FD0EDBCFE9FFFE0EDBCFEAFFE750E926DB
:10139000000EEA22EF500F0B146E020EE76EFD0EE8
:1013A000DBCFE9FFFE0EDBCFEAFFE750E926000EB8
:1013B000EA22EF500F0B100DF3501410E66E09ECFB
:1013C00014F0E552010EE76EFD0EDBCFE9FFFE0ED5
:1013D000DBCFEAFFE750E926000EEA22EF500F0BC1
:1013E000146EFD0EDBCFE9FFFE0EDBCFEAFFEF5000
:1013F0000F0B100DF3501410E66E09EC14F0E552CB
:10140000DBEC13F0E552E7CFD9FF1200D9CFE6FFAE
:10141000E1CFD9FFC5EC13F0D00EE66E09EC14F065
:10142000E552040EE66E09EC14F0E552010EE76E8B
:10143000FD0EDBCFE9FFFE0EDBCFEAFFE750E9262A
:10144000000EEA22EF500F0B146EFD0EDBCFE9FF0A
:10145000FE0EDBCFEAFFEF500F0B100DF350141010
:10146000E66E09EC14F0E552030EE76EFD0EDBCFDD
:10147000E9FFFE0EDBCFEAFFE750E926000EEA2285
:10148000EF500F0B146E020EE76EFD0EDBCFE9FF7F
:10149000FE0EDBCFEAFFE750E926000EEA22EF500E
:1014A0000F0B100DF3501410E66E09EC14F0E5521A
:1014B000050EE76EFD0EDBCFE9FFFE0EDBCFEAFF88
:1014C000E750E926000EEA22EF500F0B146E040ECF
:1014D000E76EFD0EDBCFE9FFFE0EDBCFEAFFE75044
:1014E000E926000EEA22EF500F0B100DF3501410F6
:1014F000E66E09EC14F0E552DBEC13F0E552E7CFB1
:10150000D9FF1200D9CFE6FFE1CFD9FFC5EC13F028
:10151000D00EE66E09EC14F0E552030EE66E09EC0F
:1015200014F0E552FE0EDBCFE6FF09EC14F0E552B5
:10153000DBEC13F0E552E7CFD9FF1200D9CFE6FF7D
:10154000E1CFD9FFE652E66AD00EE66EA1EC14F0C8
:10155000E552E552DF6E7F0EDF14DF6EDFCFE6FF70
:10156000E66AD00EE66EC3EC14F0E552E552E552A1
:10157000900EE66E070EE66ED00EE66EC3EC14F02B
:10158000E552E552E552E552E552E7CFD9FF1200A8
:101590008D0EE66E030EE66E80EC06F0E552E55227
:1015A00003013F5103018D5D05E08DC33FF303014E
:0615B000010E186F12008D
:0A15B600D9CFE6FFE1CFD9FFE652DE
:1015C000DF6A040EDF5C16E2100EDF24E66EE66AC8
:1015D000FBEC15F0E552E552E66EDF50EA6A070FC4
:1015E000E96E030EEA22E552E750EF6E23EC17F0A6
:1015F000DF2AE7D7300E0301075D176E300E085D56
:101600000A0DF3501724156E166A300E095D146E1C
:10161000300E0A5D0A0DF35014243C0DF3501524CE
:10162000146FF4501620156F000EE66EE66AFBECA0
:1016300015F0E552E5520301006F23EC17F0DF6A65
:10164000060EDF5C16E2200EDF24E66EE66AFBEC97
:1016500015F0E552E552E66EDF50EA6A010FE96ED9
:10166000030EEA22E552E750EF6E23EC17F0DF2A73
:10167000E7D7AADA010EE66EE66AFBEC15F0E55252
:10168000E552E8B08482E8A0849223EC17F0020EC1
:10169000E66EE66AFBEC15F0E552E5520301136FC6
:1016A00023EC17F08484E552E552E7CFD9FF12000E
:1016B000D9CFE6FFE1CFD9FFE65203010051010A7D
:1016C00001E104D1030A67E0020A01E0F5D1E66A0C
:1016D00096EC11F0E552010822E11CDA040EE66EE8
:1016E000E66A010EE66E030EE66E5EEC10F0E55261
:1016F000E552E552E55268DA84920301136B010E5C
:10170000E66E000EE66EE66A7EEC15F0E552E552F6
:10171000E55223EC17F00301010E006F3BD0010EE0
:10172000E66E96EC11F0E55201081AE120DA0301A9
:10173000116B070EE66E030EE66ECFEC0EF0E5526F
:10174000E55211C3E6FFF40EE66E010EE66ECEEC36
:1017500010F0E552E552E5520301020E006F1AD077
:10176000040EE66E96EC11F0E552010813E1030158
:10177000130510E184928450020B01E0010EE66E25
:10178000010EE66EE66A7EEC15F0E552E552E55292
:1017900023EC17F091D1020EE66E96EC11F0E552B3
:1017A000010811E10301112B1151030801E2116B32
:1017B00011C3E6FFF40EE66E010EE66ECEEC10F0FD
:1017C000E552E552E552030EE66E96EC11F0E55255
:1017D00001082AE103011151EA6A070FE96E030EBD
:1017E000EA22EF2A1151EA6A070FE96E030EEA2294
:1017F000EFCF14F01151EA6A610FE96E030EEA228D
:10180000EF50D880145408E21151EA6A070FE96ECC
:10181000030EEA22300EEF6E070EE66E030EE66E42
:10182000CFEC0EF0E552E552010EE66E96EC11F0AB
:10183000E55201084AE1BCEC0FF0070EE66E030E1C
:10184000E66ECFEC0EF0E552E552DF6A040EDF5C87
:1018500015E2DF50EA6A070FE96E030EEA22EF5045
:10186000E66E100EDF24E66EE66A7EEC15F0E552B9
:10187000E552E55223EC17F0DF2AE8D7300E0301DA
:10188000075D176E300E085D0A0DF3501724156EB4
:10189000166A300E095D146E300E0A5D0A0DF350A3
:1018A00014243C0DF3501524146FF4501620156FBA
:1018B000E66A000EE66EE66A7EEC15F0E552E55249
:1018C000E55223EC17F00301006BF6D0126BE66AC9
:1018D00096EC11F0E55201080EE1E66A000EE66EA4
:1018E000E66A7EEC15F0E552E552E55223EC17F07E
:1018F0000301006BE1D0040EE66E96EC11F0E552A8
:10190000010813E10301130510E184928450020BD6
:1019100001E0010EE66E010EE66EE66A7EEC15F061
:10192000E552E552E55223EC17F0650EE66E030E24
:10193000E66E80EC06F0E552E552C3D8DF6A060E8B
:10194000DF5C26E2DF50EA6A010FE96E030EEA224D
:10195000EFCF14F0DF50EA6A0B0FE96E030EEA22B4
:10196000EF50145C13E0DF50EA6A010FE96E030EDA
:10197000EA22EF50E66E200EDF24E66EE66A7EEC89
:1019800015F0E552E552E55223EC17F0DF2AD7D7E0
:1019900003016751000804E2360E0301042703D057
:1019A000300E03010427300E015D176E300E025D0C
:1019B0000A0DF3501724156E166A300E035D146E6F
:1019C000300E045D0A0DF35014243C0DF350152421
:1019D000166FF4501620176F135107E11451165D5E
:1019E0001551175902E3010E126F12051EE1848290
:1019F000010E136F8450020B01E0010EE66E010E22
:101A0000E66EE66A7EEC15F0E552E552E55223EC0F
:101A100017F013C3E6FF020EE66EE66A7EEC15F0E1
:101A2000E552E552E55223EC17F0040EE66EE66A45
:101A3000010EE66E030EE66E5EEC10F0E552E55226
:101A4000E552E55203016751000804E2360E030136
:101A5000045F03D0300E0301045FDF6A060EDF5C13
:101A600013E2DF50EA6A010FE96E030EEA22EF503B
:101A7000E66EDF50EA6A0B0FE96E030EEA22E552CA
:101A8000E750EF6EDF2AEAD70301670514E1390E4C
:101A9000665D11E1590E655D0EE1E66A000EE66EC7
:101AA000E66A7EEC15F0E552E552E55223EC17F0BC
:101AB0000301006B01D000D0E552E552E7CFD9FF1A
:101AC00012000F0E03016515300F0301016FF00EB8
:101AD00003016515E8380F0B300F0301026F0F0E7D
:101AE00003016615300F0301036FF00E0301661545
:101AF000E8380F0B0301046F0F0E03016715300F59
:101B00000301056F300E03016715E8380F0B030161
:101B1000066F1200D9CFE6FFE1CFD9FF020EE12612
:101B2000DE6ADD6ADECF14F0DDCF15F0D8901550F7
:101B300004E6060E145C000E15580FE2DECFE9FF36
:101B4000DDCFEAFF010EE926030EEA22300EEF6E2A
:101B5000DF2A010E01E3DB2AE5D7020EE15C02E297
:101B6000E16AE552E16EE552E7CFD9FF1200D9CF25
:101B7000E6FFE1CFD9FF020EE126DE6ADD6ADECFA5
:101B800014F0DDCF15F0D890155004E6040E145C67
:101B9000000E15580FE2DECFE9FFDDCFEAFF070E9A
:101BA000E926030EEA22300EEF6EDF2A010E01E372
:101BB000DB2AE5D7020EE15C02E2E16AE552E16E62
:101BC000E552E7CFD9FF1200300E0301015D146E1C
:101BD000300E025D100DF350141003016B6F300EC8
:101BE0000301035D146E300E045D100DF3501410EC
:101BF00003016C6F300E0301055D146E300E065D3F
:101C0000100DF350141003016D6F6B0EE66E030E92
:0C1C1000E66E28EC07F0E552E5521200E9
:041C1C00D9CFE6FF37
:101C2000E1CFD9FF050EE126FE0EDB50080802E2E7
:101C3000000E66D0FE0EDBCF51F3DF6A0301515177
:101C4000DF5C0AE2DF50EA6A490FE96E030EEA221E
:101C5000AFC3EFFFDF2AF2D7410E576F030E586F65
:101C6000DF6A0B0EDF5C48E2010EDB6AFE0EDB5022
:101C7000F36E010EDBCFF4FFF350F45C15E2DF509E
:101C8000EA6AA50FE96E030EEA22EF50E66E010E36
:101C9000DB50EA6A410FE96E030EEA22E552E75093
:101CA000EF6E010EDB2AE2D7020EDB6A640EF36EE2
:101CB000020EDBCFF4FFF350F45C1CE22DD8030ED0
:101CC000F36EF3CFDBFF040EDB6A030EDBCF14F001
:101CD000DB06040EDBCF15F001E2DB061450151015
:101CE00006E0080EE66ECFEC16F0E552EED7020ED7
:101CF000DB2ADCD7DF2AB5D70301526B010E00D0F7
:101D0000146E050EE15C02E2E16AE552E16E1450E8
:101D1000E552E7CFD9FF120003014051010A14E058
:101D2000010A01E03BD05251EA6A5725E96E585149
:101D3000EA22EF50E66E41D9E5520301522B515190
:101D4000525D01E3526B2AD05251EA6A5725E96E7F
:101D50005851EA22EF50E66E30D9E5520301522B7A
:101D60005151525D01E3526B532B000E54235551D8
:101D7000535D5651545911E3536B546B410E57192F
:101D800002E1030E581905E1490E576F030E586F13
:101D900004D0410E576F030E586F00D01200D9CFF8
:101DA000E6FFE1CFD9FFE652DF6ADF6A0301515156
:101DB000DF5C16E2DF50E76EFD0EDBCFE9FFFE0EC3
:101DC000DBCFEAFFE750E926000EEA22EF50E66E8D
:101DD00053D9E552000902E1000E41D0DF2AE6D7CF
:101DE000DF6A5151DF5C38E2DF50E76EFD0EDBCF7A
:101DF000E9FFFE0EDBCFEAFFE750E926000EEA22FC
:101E0000EF50200809E1DF50EA6A410FE96E030E46
:101E1000EA22AFC3EFFF1ED0DF50E76EFD0EDBCF2F
:101E2000E9FFFE0EDBCFEAFFE750E926000EEA22CB
:101E3000EF50D00FEA6AA50FE96E030EEA22EF50C9
:101E4000E66EDF50EA6A410FE96E030EEA22E552C0
:101E5000E750EF6EDF2AC5D7526B010E00D0E55276
:101E6000E552E7CFD9FF1200D9CFE6FFE1CFD9FF86
:101E7000E652DF6ADF6A03015151DF5C19E2DF508D
:101E8000E76EFD0EDBCFE9FFFE0EDBCFEAFFE7508A
:101E9000E926000EEA22EF50E66EDF50EA6A410FB3
:101EA000E96E030EEA22E552E750EF6EDF2AE3D730
:101EB000526BE552E552E7CFD9FF1200D9CFE6FFCA
:101EC000E1CFD9FFE652DF6AFE0EDBCF14F003014B
:101ED0005151D880145402E2000E2DD0FD0EDBCFFC
:101EE000E6FFCAD8E552000902E1000E24D0FD0E3B
:101EF000DB5020080AE1FE0EDB50EA6A410FE96E72
:101F0000030EEA22AFC3EFFF14D0FD0EDB50D00F5B
:101F1000EA6AA50FE96E030EEA22EF50E66EFE0EA6
:101F2000DB50EA6A410FE96E030EEA22E552E75000
:101F3000EF6E010E00D0E552E552E7CFD9FF120057
:101F4000D9CFE6FFE1CFD9FFFD0EDBCF55F3FE0E73
:101F5000DBCF56F3010E0F0B030105E0D89056338B
:101F60005533E806FBE10301536B546B010E406FE0
:101F7000E552E7CFD9FF12000301410E576F030E60
:101F8000586F406B1200D9CFE6FFE1CFD9FFE65280
:101F9000DF6A03015151DF5C0AE2DF50EA6A410F58
:101FA000E96E030EEA22AFC3EFFFDF2AF2D7526BCE
:101FB000E552E552E7CFD9FF1200D9CFE6FFE1CFD6
:101FC000D9FF8092809480968098080EE66E18EC77
:101FD00017F0E552FE0EDB50836E03015251030AE7
:101FE0000DE0010A09E0030A05E0010A01E008D05A
:101FF000808206D0808404D0808602D0808800D081
:10200000080EE66E18EC17F0E552E552E7CFD9FF5F
:102010001200D9CFE6FFE1CFD9FF020EE126FE0E76
:10202000DB50DF6EFE0EDBCFE6FFFD0EDB50E55230
:10203000E724DF5C17E2DF50EA6A410FE96E030E26
:10204000EA22010EEFCFDBFFDB508009E66EDF50A6
:10205000EA6A410FE96E030EEA22E552E750EF6E9D
:10206000DF2AE0D7020EE15C02E2E16AE552E16EAE
:10207000E552E7CFD9FF1200D9CFE6FFE1CFD9FF74
:10208000E652DF6AFE0EDB50200803E1010EDF6E30
:102090000ED0300EF36EFE0EDBCFF4FFF350F45C87
:1020A00006E3FE0EDB50390802E3010EDF6EDF505F
:1020B00000D0E552E552E7CFD9FF1200D9CFE6FFB5
:1020C000E1CFD9FFE652DF6AFC0EDB50DF6EFB0E7C
:1020D000DB50DF5C16E2DF50E76EFD0EDBCFE9FF81
:1020E000FE0EDBCFEAFFE750E926000EEA22EF50B2
:1020F000E66EC2DFE552000902E1000E4AD0DF2A97
:10210000E6D7FC0EDB50DF6EFB0EDBCFE6FFFC0EEE
:10211000DB50E552E724DF5C38E2DF50E76EFD0E6E
:10212000DBCFE9FFFE0EDBCFEAFFE750E926000E2A
:10213000EA22EF50200809E1DF50EA6A410FE96E18
:10214000030EEA22AFC3EFFF1ED0DF50E76EFD0E95
:10215000DBCFE9FFFE0EDBCFEAFFE750E926000EFA
:10216000EA22EF50D00FEA6AA50FE96E030EEA22C9
:10217000EF50E66EDF50EA6A410FE96E030EEA2285
:10218000E552E750EF6EDF2ABFD70301526B010E15
:1021900000D0E552E552E7CFD9FF1200D9CFE6FFD4
:1021A000E1CFD9FFE652FD0EDBCF55F3FE0EDBCFBC
:1021B00056F3010E0F0B030105E0D890563355334B
:1021C000E806FBE10301536B546BFC0EDB50596FC7
:1021D0005A6BDF6A5151DF5C1CE2DF50146E156AE6
:1021E0005951141802E15A51151811E0DF50EA6AEA
:1021F000410FE96E030EEA22EF50E66EDF50EA6A05
:10220000490FE96E030EEA22E552E750EF6EDF2A2E
:10221000E1D7490E5925E96E030E5A21EA6EEF6A9D
:0E222000010E406FE552E552E7CFD9FF1200E4
:02222E00D9CF06
:10223000E6FFE1CFD9FFE6528DD8DF6A050EDF5CFD
:1022400009E2DF50EA6A960FE96E030EEA22EF6AAE
:10225000DF2AF4D7E552E552E7CFD9FF1200D9CFF4
:10226000E6FFE1CFD9FF9BD8FC0EDBCFE6FFFD0EEA
:10227000DBCFE6FFFE0EDBCFE6FFAAD8E552E55244
:10228000E552E552E7CFD9FF1200D9CFE6FFE1CF03
:10229000D9FFE652FC0EDB50DF6EFB0EDB50D88020
:1022A000DF541AE37CD8DFCFE6FF176ADF34FE0B7A
:1022B0001736166EFD0EDB501624146EFE0EDB5024
:1022C0001720156E14C0E6FF15C0E6FF81D8E55251
:1022D000E552E552DF2AE1D7E552E552E7CFD9FFD3
:1022E0001200D9CFE6FFE1CFD9FFE652DF6A57D817
:1022F000DF6A050EDF5C15E2DFCFE6FF156ADF342B
:10230000FE0B1536146E9B0E1426030E152214C0F8
:10231000E6FF15C0E6FF5CD8E552E552E552DF2A3C
:10232000E8D7E552E552E7CFD9FF1200D9CFE6FF53
:10233000E1CFD9FFFE0EEA6ADB34FE0BEA36E96E26
:102340009B0EE926030EEA22EF5000D0E552E7CFBC
:10235000D9FF1200D9CFE6FFE1CFD9FFE652DF6AFD
:10236000050EDF5C17E2EA6ADF34FE0BEA36E96E3F
:102370009B0EE926030EEA22EF6AEA6ADF34FE0BBF
:10238000EA36E96E9B0EE926030EEA22EE52EF6A68
:10239000DF2AE6D7E552E552E7CFD9FF1200815098
:1023A000010B0301966F8150020B01E0010E976F44
:1023B0008150040B01E0010E986F8150080B01E081
:1023C000010E996F8150100B01E0010E9A6F1200FF
:1023D000D9CFE6FFE1CFD9FFFD0EDBCFE9FFFE0E3F
:1023E000DBCFEAFFEF50010A3DE0010A01E074D0C3
:1023F000FC0EDB50EA6A960FE96E030EEA22EF50FC
:10240000010B27E1FD0EDBCFE9FFFE0EDBCFEAFF7C
:10241000EE52EF2AFD0EDBCFE9FFFE0EDBCFEAFF27
:10242000EECF14F0EFCF15F0020E0001155C10E3B3
:10243000FD0EDBCFE9FFFE0EDBCFEAFF010EEF6EF4
:10244000FD0EDBCFE9FFFE0EDBCFEAFFEE52EF6AB7
:1024500008D0FD0EDBCFE9FFFE0EDBCFEAFFEE5228
:10246000EF6A3AD0FC0EDB50EA6A960FE96E030E73
:10247000EA22EF50010B010826E1FD0EDBCFE9FF58
:10248000FE0EDBCFEAFFEE52EF2AFD0EDBCFE9FFB7
:10249000FE0EDBCFEAFFEECF14F0EFCF15F0020E09
:1024A0000001155C0FE3FD0EDBCFE9FFFE0EDBCF75
:1024B000EAFFEF6AFD0EDBCFE9FFFE0EDBCFEAFF9E
:1024C000EE52EF6A08D0FD0EDBCFE9FFFE0EDBCF48
:1024D000EAFFEE52EF6A00D0E552E7CFD9FF1200D3
:1024E000DACFE4FFE2CFDAFFE9CFE4FFEACFE4FF9F
:1024F000F6CFE4FFF7CFE4FFF5CFE4FFF3CFE4FF3F
:10250000F4CFE4FFFACFE4FF00EE00F0140EE8048D
:1025100003E3EECFE4FFFBD700EE14F0080EE8046F
:1025200003E3EECFE4FFFBD7E652F29403017A2BEC
:10253000000E7B237C2B7D237E2B7F238007815BFA
:10254000813504E280510008000E815508E3822B9A
:10255000000E832384238523C80E806F816B745102
:10256000751107E005D075C3FAFF03017451F96EC8
:10257000FADF72C3E6FF73C3E6FF97EC16F0E5528D
:10258000E552E55200EE1BF0080EE80403E3E5CF48
:10259000EDFFFBD700EE13F0140EE80403E3E5CFE4
:1025A000EDFFFBD7E5CFFAFFE5CFF4FFE5CFF3FF73
:1025B000E5CFF5FFE5CFF7FFE5CFF6FFE5CFEAFF83
:1025C000E5CFE9FFE5CFDAFF1100DACFE4FFE2CF94
:1025D000DAFFE9CFE4FFEACFE4FFF6CFE4FFF7CF7D
:1025E000E4FFF5CFE4FFF3CFE4FFF4CFE4FFFACF4D
:1025F000E4FF00EE00F0140EE80403E3EECFE4FF86
:10260000FBD700EE14F0080EE80403E3EECFE4FF7E
:10261000FBD7E6529E9076C3E6FF77C3E6FF7BECDE
:1026200016F0E552E55203017851791107E005D023
:1026300079C3FAFF03017851F96EFADFE55200EE33
:102640001BF0080EE80403E3E5CFEDFFFBD700EE37
:1026500013F0140EE80403E3E5CFEDFFFBD7E5CF5D
:10266000FAFFE5CFF4FFE5CFF3FFE5CFF5FFE5CFC8
:10267000F7FFE5CFF6FFE5CFEAFFE5CFE9FFE5CFCE
:10268000DAFF1100D9CFE6FFE1CFD9FF9F0EE66E4A
:10269000B3EC16F0E552FD0EDBCF72F3FE0EDBCF8E
:1026A00073F3FB0EDBCF74F3FC0EDBCF75F3FD0E83
:1026B000DBCFE6FFFE0EDBCFE6FF97EC16F0E55230
:1026C000E552E552E7CFD9FF1200D9CFE6FFE1CFBF
:1026D000D9FFC50EE66E1DEC16F0E552FD0EDBCF00
:1026E000E6FFFE0EDBCFE6FF7BEC16F0E552E5528F
:1026F0009F80FD0EDBCF76F3FE0EDBCF77F3FB0E74
:10270000DBCF78F3FC0EDBCF79F3E552E7CFD9FFCF
:102710001200D9CFE6FFE1CFD9FF040EE126F29AED
:1027200082C3DFFF010E83C3DBFF020E84C3DBFF26
:10273000030E85C3DBFFF28ADECF06F0DECF07F0A3
:10274000DECF08F0DDCF09F0DD52DD52040EE15C92
:1027500003E200D0E16AE552E16EE552E7CFD9FF2E
:102760001200F29E0301826B836B846B856BF28E89
:02277000120055
:0E277200C76AC78E590EC86E280EC66EC56A9D
:102780009E96A19694869488120094969498828836
:102790008286050EE66E18EC17F0E5528298050E5B
:1027A000E66E18EC17F0E5528296050EE66E18EC10
:1027B00017F0E5521200949694988298050EE66EF2
:1027C00018EC17F0E5528286050EE66E18EC17F04D
:1027D000E55282881200D9CFE6FFE1CFD9FFE65259
:1027E00094969488DF6ADF500A080EE3050EE66EC1
:1027F00018EC17F0E5528286050EE66E18EC17F01D
:10280000E5528296DF2AEFD7E552E552E7CFD9FFAE
:102810001200D9CFE6FFE1CFD9FFE6529496949803
:10282000DF6A080EDF5C25E2FE0EDB50800B02E063
:10283000010E01D0000EE8B08288E8A08298030E55
:10284000E66E18EC17F0E5528286060EE66E18EC7E
:1028500017F0E5528296020EE66E18EC17F0E5527C
:10286000FE0EDBCFF3FFF39EF346F3CFDBFFDF2A51
:10287000D8D79488020EE66E18EC17F0E5528286DF
:10288000060EE66E18EC17F0E5528296060EE66E1E
:1028900018EC17F0E552E552E552E7CFD9FF1200E8
:1028A000D9CFE6FFE1CFD9FF020EE126DF6A949689
:1028B00094989488010EDB6A080EF36E010EDBCF4C
:1028C000F4FFF350F45C17E28286060EE66E18EC15
:1028D00017F0E552DF9EDF468250100B01E0010E3B
:1028E000DF10DF6E8296060EE66E18EC17F0E552EA
:1028F000010EDB2AE1D79498FE0EDB0402E18298F8
:1029000001D08288020EE66E18EC17F0E55282863E
:10291000060EE66E18EC17F0E5528296060EE66E8D
:1029200018EC17F0E552DF50146E020EE15C03E282
:1029300000D0E16AE552E16E1450E552E7CFD9FFCD
:102940001200D9CFE6FFE1CFD9FFE6521EDFFE0E1F
:10295000DBCFE6FF5EDFE552FD0EDBCFE6FF59DFA2
:10296000E55213DFFE0EDB28E66E53DFE552E66A22
:1029700097DFE552DF6E1FDFDF5000D0E552E552F2
:10298000E7CFD9FF1200D9CFE6FFE1CFD9FFFDDEB7
:10299000FE0EDBCFE6FF3DDFE552FD0EDBCFE6FFAF
:1029A00038DFE552FC0EDBCFE6FF33DFE55203DF15
:0829B000E552E7CFD9FF120048
:0829B800D9CFE6FFE1CFD9FF02
:1029C000040EE126DF6A030EDB6A3EEC16F09EEC95
:1029D0000AF017EC11F0040EE66E0EEC0EF0E55264
:1029E000180EE66E1D0EE66EBF0EE66EE00EE66E8B
:1029F00042EC13F0E552E552E552E552DBEC0AF009
:102A00000DEC00F0F28E0301580E7A5D020E7B5938
:102A100005E30EEC17F003017A6B7B6B03010A0EE2
:102A20007C5D000E7D5905E371EC11F003017C6BB8
:102A30007D6B03012C0E7E5D010E7F5905E358EC82
:102A40000BF003017E6B7F6BDED7040EE15C02E2CC
:0E2A5000E16AE552E16EE552E7CFD9FF1200D0
:022A5E00500E18
:102A6000F66E000EF76E000EF86E03010900F550C9
:102A7000B56F0900F550B66F03E1B56701D03DD0E1
:102A80000900F550B06F0900F550B16F0900F5501D
:102A9000B26F09000900F550E96E0900F550EA6EC1
:102AA000090009000900F550B36F0900F550B46F33
:102AB00009000900F6CFB7F3F7CFB8F3F8CFB9F3B1
:102AC000B0C3F6FFB1C3F7FFB2C3F8FF0301B353BE
:102AD00002E1B45307E00900F550EE6EB307F8E2E7
:102AE000B407F9D7B7C3F6FFB8C3F7FFB9C3F8FF08
:0C2AF0000301B507000EB65BBFD7120053
:042AFC00D9CFE6FF49
:102B0000DACFE6FFE1CFD9FFE2CFDAFFE652DF6AA4
:102B1000FF0EE76EFC0EDBCF14F0E75014161450D6
:102B2000A96EFB0EDB50A86EA69EA69CA684F25052
:102B3000800B01E0010EDF6EF29E550EA76EAA0E0D
:102B4000A76EA682A6B2FED7DF50E8B0F28EE8A04C
:102B5000F29EA694E552E552E5CFDAFFE7CFD9FF22
:022B6000120061
:0E2B6200446563004E6F76004F637400536548
:102B70007000417567004A756C004A756E004D61C2
:102B80007900417072004D617200466562004A61D1
:102B90006E00536174004672690054687500576591
:0E2BA0006400547565004D6F6E0053756E0035
:022BAE00056AB6
:102BB000046A036A026A200EE76ED890063607366A
:102BC0000836093602360336043605360B50025CE9
:102BD0000C5003580D5004580E50055809E30B5083
:102BE000025E0C50035A0D50045A0E50055A062A24
:062BF000E72EE4D71200FD
:0A2BF600D9CFE6FFDACFE6FFE1CF0A
:102C0000D9FFE2CFDAFFFF0EE76EFC0EDBCF14F048
:102C1000FD0EDBCF15F0E7501416156A1450A96E9F
:102C2000A69CA69EA68000000000A85000D0E552F9
:0A2C3000E5CFDAFFE7CFD9FF12006D
:062C3A00D9CFE6FFDACF5E
:102C4000E6FFE1CFD9FFE2CFDAFFFD0EDB507E0BCE
:102C5000CD6EFD0EDBAC02D0CD8E01D0CD9ECF6A05
:102C6000CE6A9E90DBAE02D09D8001D09D90CD803B
:0C2C7000E552E5CFDAFFE7CFD9FF1200F4
:042C7C00C26A0F0E0B
:102C8000C16EB50EC06E700ED3129B8C9490949C46
:102C9000948E956A9292929492969298938093824F
:102CA000938493869388938C938C938E9496949824
:0A2CB000969096949692849212007A
:062CBA0008C012F00850F2
:102CC0000D02F4CF07F0F3CF06F009500E02F4CF57
:102CD00009F0F3CF08F00D02F3500726F450082254
:102CE000E86A092212500E02F3500726F450082217
:062CF000E86A0922000C55
:0A2CF600D9CFE6FFDACFE6FFE1CF09
:102D0000D9FFE2CFDAFFE652E652FC0EDBCFDEFF60
:102D1000DBCFDDFF010EDB50CF6EDF50CE6EE55214
:0E2D2000E552E552E5CFDAFFE7CFD9FF12000A
:022D2E00D9CFFB
:102D3000E6FFDACFE6FFE1CFD9FFE2CFDAFFE652D6
:102D4000E652FC0EDBCFDEFFDBCFDDFF010EDB50FA
:102D5000D76EDF50D66EE552E552E552E5CFDAFF89
:062D6000E7CFD9FF1200CD
:0A2D6600D9CFE6FFDACFE6FFE1CF98
:102D7000D9FFE2CFDAFFFD0EDB507F0BD56ED76AAD
:102D8000D66AF294FD0EDBAE02D0F28A01D0F29A3E
:0E2D9000D58EE552E5CFDAFFE7CFD9FF12006E
:022D9E00FF0E26
:102DA000E3501C6E480E01D04C0EE76EE72EFED7A6
:0E2DB000E76AE72EFED71C2EF7D700001200B0
:022DBE00000E05
:102DC000F36E00EE00F0060E01D81200EA6002D0A9
:0E2DD000EE6AFCD7F350E9601200EE6AFCD701
:022DDE0010EEF5
:102DE00080F020EE80F0F86A019C2FEC15F003ECE7
:0A2DF00000F0DCEC14F0FBD7120039
:062DFA00056A080EE76EF9
:102E0000D890093605360E50055C02E3056E092A96
:062E1000E72EF7D71200C7
:0A2E16000301C46B12000301C405A0
:102E200003E1C46B849003D0010EC46F8480120050
:102E3000FF0EE350E84E1200000000D000D000D09A
:062E4000E82EFAD7120093
:062E4600A6B2FED7120047
:042E4C000000000082
:102E50000000000000000000000000000000000072
:042E6000000000006E
:0C2E640000000000000000000000000062
:032E70000000005F
:0D2E73000000000000000000000000000052
:0E2E8000000000000000000000000000000044
:022E8E00000042
:102E9000000000000000000000000000C80000006A
:022EA000000030
:0E2EA20000AA2BA62BA22B9E2B9A2B962B92CE
:102EB0002B8E2B8A2B862B822B7E2B7A2B762B72BA
:0A2EC0002B6E2B6A2B662B622B0091
:062ECA004944454F4E494A
:032ED00043530069
:0B2ED3003F065B4F666D7D077F6F00C0
:022EDE000000F2
:102EE0000000000039353939000000000000505959
:052EF00000032712138E
:020000040030CA
:0100010008F6
:010002001BE2
:0100030012EA
:010005008179
:010006008178
:010008000FE8
:01000900C036
:01000A000FE6
:01000B00E014
:01000C000FE4
:01000D0040B2
:00000001FF
