:020000040000FA
:06000000B6EF16F012003D
:020006001200E6
:08000800F2A402D02EEF12F069
:100010009EA002D0A3EF12F01200D08EF28E12003A
:10002000056A046A100EE76ED89008360936043661
:1000300005360D50045C0E50055805E30D50045E66
:0C0040000E50055A082AE72EF0D71200D7
:01004C0000B3
:1000500009005C2E00003003000021000000512E3A
:1000600000009F0300000B0000004C000000BE03D6
:10007000000001000000482E0000B4030000090049
:100080000000202E000008030000280000000C2EB5
:1000900000006C03000014000000F12D000051036B
:1000A00000001B000000E22D0000900300000F0084
:0E00B0000000DA2D0000000300000800000030
:0200BE00D9CF98
:1000C000E6FFE1CFD9FFE652FD0EDBCF16F0FE0EC4
:1000D000DBCF17F017C016F0176A640E1702F3CFC4
:1000E00017F01602F3CF16F0F4501726FD0EDBCFF3
:1000F00018F0FE0EDBCF19F0040ED890193218322A
:10010000E804FBE10A0E1902F3CF19F01802F3CF4D
:1001100018F0F450192616501810146E17501910B4
:10012000156E0F0EE76EFD0EDBCF1AF0FE0EDBCF65
:100130001BF0E7501A161B6A14501A10DF6EDF50BE
:1001400000D0E552E552E7CFD9FF1200D9CFE6FF44
:10015000E1CFD9FFFE0EDB50F00BE83A060DFE0EA4
:10016000DBCFE7FFF350E75EFE0EE7CFDBFFDB50B0
:10017000146E156A14C0F3FF15C0F4FF00D0E552E9
:10018000E7CFD9FF1200D9CFE6FFE1CFD9FF020EAA
:10019000E1260A0E146E14C00EF0FE0EDBCF09F03D
:1001A000C4EC16F00950DF6E0A0E146E14C00EF087
:1001B000FE0EDBCF09F0C4EC16F0010E05C0DBFF2C
:1001C000DB500F0B146E0F0EDF14100DF3501410D4
:1001D000146E020EE15C03E200D0E16AE552E16ECA
:1001E0001450E552E7CFD9FF1200D9CFE6FFE1CF97
:1001F000D9FF0E0EE126FD0EDBCF14F0FE0EDBCF95
:1002000015F00A0E0D6E0E6A14C008F015C009F044
:1002100010EC00F004C014F005C015F00A0E14C074
:10022000DBFF0B0E15C0DBFF0C0EDB6A0D0EDB6A6D
:100230000A0EDB50E76E040EE7CFDBFFFD0EDBCFCF
:1002400014F0FE0EDBCF15F00A0E0D6E0E6A14C010
:1002500008F015C009F010EC00F008C014F009C057
:1002600015F0060E14C0DBFF070E15C0DBFF080EED
:10027000DB6A090EDB6A060EDBCF06F0070EDBCF6A
:1002800007F0080EDBCF08F0090EDBCF09F00A0EED
:100290000B6E0C6A0D6A0E6A9EEC15F00A0E02C017
:1002A000DBFF0B0E03C0DBFF0C0E04C0DBFF0D0EEB
:1002B00005C0DBFF0A0EDB50E76E030EE7CFDBFF66
:1002C000060EDBCF06F0070EDBCF07F0080EDBCF04
:1002D00008F0090EDBCF09F00A0E0B6E0C6A0D6AEE
:1002E0000E6A9EEC15F0060E06C0DBFF070E07C077
:1002F000DBFF080E08C0DBFF090E09C0DBFF060E9E
:10030000DBCF06F0070EDBCF07F0080EDBCF08F0DF
:10031000090EDBCF09F00A0E0B6E0C6A0D6A0E6A2D
:100320009EEC15F00A0E02C0DBFF0B0E03C0DBFFD4
:100330000C0E04C0DBFF0D0E05C0DBFF0A0EDB5008
:10034000E76E020EE7CFDBFF060EDBCF06F0070EEF
:10035000DBCF07F0080EDBCF08F0090EDBCF09F08A
:100360000A0E0B6E0C6A0D6A0E6A9EEC15F0060EF4
:1003700006C0DBFF070E07C0DBFF080E08C0DBFF6F
:10038000090E09C0DBFF060EDBCF06F0070EDBCF40
:1003900007F0080EDBCF08F0090EDBCF09F00A0EDC
:1003A0000B6E0C6A0D6A0E6A9EEC15F00A0E02C006
:1003B000DBFF0B0E03C0DBFF0C0E04C0DBFF0D0EDA
:1003C00005C0DBFF0A0EDB50E76E010EE7CFDBFF57
:1003D000060EDBCF06F0070EDBCF07F0080EDBCFF3
:1003E00008F0090EDBCF09F00A0E0B6E0C6A0D6ADD
:1003F0000E6A9EEC15F0060E06C0DBFF070E07C066
:10040000DBFF080E08C0DBFF090E09C0DBFF060E8C
:10041000DB50DF6E050EDB6AF36EDBCFF4FFF350CB
:10042000F45C21E2D9CF14F0DACF15F0050EDB50E1
:100430000F011424E96E000E1520EA6EEF50E66EEF
:10044000050EDB50E76EFB0EDBCFE9FFFC0EDBCFCA
:10045000EAFFE750E926000EEA22E552E750EF6E88
:10046000050EDB2AD9D70E0EE15C02E2E16AE55205
:10047000E16EE552E7CFD9FF1200D9CFE6FFE1CF19
:10048000D9FF080EE1260A0E146E14C00EF0FE0EFF
:10049000DBCF09F0C4EC16F00550E66ED950060F1C
:1004A000E96EDACFEAFFE552E750EE6EED6A060E2E
:1004B000DB50E76E020EE7CFDBFF0A0E146E14C0AE
:1004C0000EF0FE0EDBCF09F0C4EC16F00950E66E1C
:1004D000D950040FE96EDACFEAFFE552E750EE6E2D
:1004E000ED6A040EDBCF14F0050EDBCF15F00A0E1B
:1004F0000D6E0E6A14C008F015C009F010EC00F083
:1005000004C014F005C015F0060E14C0DBFF070E82
:1005100015C0DBFF060EDB50E76E010EE7CFDBFFF9
:100520000A0E146E156A040EDBCF08F0050EDBCF41
:1005300009F014C00DF015C00EF010EC00F0040E20
:1005400008C0DBFF050E09C0DBFF040EDB50DF6EC9
:10055000030EDB6AF36EDBCFF4FFF350F45C21E2B1
:10056000D9CF14F0DACF15F0030EDB500F011424AD
:10057000E96E000E1520EA6EEF50E66E030EDB50BA
:10058000E76EFC0EDBCFE9FFFD0EDBCFEAFFE750A5
:10059000E926000EEA22E552E750EF6E030EDB2A51
:1005A000D9D7080EE15C02E2E16AE552E16EE5525C
:1005B000E7CFD9FF1200D9CFE6FFE1CFD9FF130E65
:1005C000E126FB0EDBCF06F0FC0EDBCF07F0FD0EC5
:1005D000DBCF08F0FE0EDBCF09F00A0E0B6E0C6AC3
:1005E0000D6A0E6A9EEC15F00F0E02C0DBFF100EB6
:1005F00003C0DBFF110E04C0DBFF120E05C0DBFFE2
:100600000F0EDB50E76E090EE7CFDBFFFB0EDBCFF3
:1006100006F0FC0EDBCF07F0FD0EDBCF08F0FE0E80
:10062000DBCF09F00A0E0B6E0C6A0D6A0E6A9EECA7
:1006300015F00B0E06C0DBFF0C0E07C0DBFF0D0E26
:1006400008C0DBFF0E0E09C0DBFF0B0EDBCF06F090
:100650000C0EDBCF07F00D0EDBCF08F00E0EDBCF5C
:1006600009F00A0E0B6E0C6A0D6A0E6A9EEC15F00C
:100670000F0E02C0DBFF100E03C0DBFF110E04C023
:10068000DBFF120E05C0DBFF0F0EDB50E76E080E1E
:10069000E7CFDBFF0B0EDBCF06F00C0EDBCF07F056
:1006A0000D0EDBCF08F00E0EDBCF09F00A0E0B6E3D
:1006B0000C6A0D6A0E6A9EEC15F00B0E06C0DBFF8D
:1006C0000C0E07C0DBFF0D0E08C0DBFF0E0E09C0CD
:1006D000DBFF0B0EDBCF06F00C0EDBCF07F00D0EB1
:1006E000DBCF08F00E0EDBCF09F00A0E0B6E0C6AA2
:1006F0000D6A0E6A9EEC15F00F0E02C0DBFF100EA5
:1007000003C0DBFF110E04C0DBFF120E05C0DBFFD0
:100710000F0EDB50E76E070EE7CFDBFF0B0EDBCFD4
:1007200006F00C0EDBCF07F00D0EDBCF08F00E0E3F
:10073000DBCF09F00A0E0B6E0C6A0D6A0E6A9EEC96
:1007400015F00B0E06C0DBFF0C0E07C0DBFF0D0E15
:1007500008C0DBFF0E0E09C0DBFF0B0EDBCF06F07F
:100760000C0EDBCF07F00D0EDBCF08F00E0EDBCF4B
:1007700009F00A0E0B6E0C6A0D6A0E6A9EEC15F0FB
:100780000F0E02C0DBFF100E03C0DBFF110E04C012
:10079000DBFF120E05C0DBFF0F0EDB50E76E060E0F
:1007A000E7CFDBFF0B0EDBCF06F00C0EDBCF07F045
:1007B0000D0EDBCF08F00E0EDBCF09F00A0E0B6E2C
:1007C0000C6A0D6A0E6A9EEC15F00B0E06C0DBFF7C
:1007D0000C0E07C0DBFF0D0E08C0DBFF0E0E09C0BC
:1007E000DBFF0B0EDBCF06F00C0EDBCF07F00D0EA0
:1007F000DBCF08F00E0EDBCF09F00A0E0B6E0C6A91
:100800000D6A0E6A9EEC15F00F0E02C0DBFF100E93
:1008100003C0DBFF110E04C0DBFF120E05C0DBFFBF
:100820000F0EDB50E76E050EE7CFDBFF0B0EDBCFC5
:1008300006F00C0EDBCF07F00D0EDBCF08F00E0E2E
:10084000DBCF09F00A0E0B6E0C6A0D6A0E6A9EEC85
:1008500015F00B0E06C0DBFF0C0E07C0DBFF0D0E04
:1008600008C0DBFF0E0E09C0DBFF0B0EDBCF06F06E
:100870000C0EDBCF07F00D0EDBCF08F00E0EDBCF3A
:1008800009F00A0E0B6E0C6A0D6A0E6A9EEC15F0EA
:100890000F0E02C0DBFF100E03C0DBFF110E04C001
:1008A000DBFF120E05C0DBFF0F0EDB50E76E040E00
:1008B000E7CFDBFF0B0EDBCF06F00C0EDBCF07F034
:1008C0000D0EDBCF08F00E0EDBCF09F00A0E0B6E1B
:1008D0000C6A0D6A0E6A9EEC15F00B0E06C0DBFF6B
:1008E0000C0E07C0DBFF0D0E08C0DBFF0E0E09C0AB
:1008F000DBFF0B0EDBCF06F00C0EDBCF07F00D0E8F
:10090000DBCF08F00E0EDBCF09F00A0E0B6E0C6A7F
:100910000D6A0E6A9EEC15F00F0E02C0DBFF100E82
:1009200003C0DBFF110E04C0DBFF120E05C0DBFFAE
:100930000F0EDB50E76E030EE7CFDBFF0B0EDBCFB6
:1009400006F00C0EDBCF07F00D0EDBCF08F00E0E1D
:10095000DBCF09F00A0E0B6E0C6A0D6A0E6A9EEC74
:1009600015F00B0E06C0DBFF0C0E07C0DBFF0D0EF3
:1009700008C0DBFF0E0E09C0DBFF0B0EDBCF06F05D
:100980000C0EDBCF07F00D0EDBCF08F00E0EDBCF29
:1009900009F00A0E0B6E0C6A0D6A0E6A9EEC15F0D9
:1009A0000F0E02C0DBFF100E03C0DBFF110E04C0F0
:1009B000DBFF120E05C0DBFF0F0EDB50E76E020EF1
:1009C000E7CFDBFF0B0EDBCF06F00C0EDBCF07F023
:1009D0000D0EDBCF08F00E0EDBCF09F00A0E0B6E0A
:1009E0000C6A0D6A0E6A9EEC15F00B0E06C0DBFF5A
:1009F0000C0E07C0DBFF0D0E08C0DBFF0E0E09C09A
:100A0000DBFF0B0EDBCF06F00C0EDBCF07F00D0E7D
:100A1000DBCF08F00E0EDBCF09F00A0E0B6E0C6A6E
:100A20000D6A0E6A9EEC15F00F0E02C0DBFF100E71
:100A300003C0DBFF110E04C0DBFF120E05C0DBFF9D
:100A40000F0EDB50E76E010EE7CFDBFF0B0EDBCFA7
:100A500006F00C0EDBCF07F00D0EDBCF08F00E0E0C
:100A6000DBCF09F00A0E0B6E0C6A0D6A0E6A9EEC63
:100A700015F00B0E06C0DBFF0C0E07C0DBFF0D0EE2
:100A800008C0DBFF0E0E09C0DBFF0B0EDB50DF6E74
:100A90000A0EDB6AF36EDBCFF4FFF350F45C22E264
:100AA000D9CF14F0DACF15F00A0EDB500F01142461
:100AB000E96E000E1520EA6EEF503009E66E0A0E60
:100AC000DB50E76EF90EDBCFE9FFFA0EDBCFEAFF72
:100AD000E750E926000EEA22E552E750EF6E0A0ED3
:100AE000DB2AD8D7130EE15C02E2E16AE552E16E3F
:100AF000E552E7CFD9FF1200D9CFE6FFE1CFD9FF0A
:100B0000FE0EDB50F00BE83A060DFE0EDBCFE7FFE2
:100B1000F350E75EFE0EE7CFDBFFDB5000D0E5527F
:100B2000E7CFD9FF1200D9CFE6FFE1CFD9FF0A0EF8
:100B3000146E14C00EF0FE0EDBCF09F0C4EC16F0FC
:100B40000950060DFE0EDBCFE7FFF350E726FE0E41
:100B5000E7CFDBFFDB50146E156A14C0F3FF15C03E
:100B6000F4FF00D0E552E7CFD9FF1200D9CFE6FF5E
:100B7000E1CFD9FF060EE126F36EFC0EDBCFF4FFCA
:100B8000F350F45C71E2020EDB6A030EDB6A040EC2
:100B9000DB6A050EDB6ADF6AFC0EDB50DF5C58E2C5
:100BA000FC0EDBCFE6FFDF28E552E75CE76E010EC7
:100BB000E7CFDBFFF36E040EF3CFDBFF050EDB6A3E
:100BC000010EDB50000814E20A0E086E096A040EDA
:100BD000DBCF0DF0050EDBCF0EF024EC16F0040E8B
:100BE00006C0DBFF050E07C0DBFF010EDB06E8D702
:100BF000020EDBCF16F0030EDBCF17F0DF50E76EEF
:100C0000FD0EDBCFE9FFFE0EDBCFEAFFE750E92662
:100C1000000EEA22EF500F0B186E196A040EDBCF9C
:100C200008F0050EDBCF09F018C00DF019C00EF06A
:100C300024EC16F016500624146E17500720156E7B
:100C4000020E14C0DBFF030E15C0DBFFDF2AA4D7A2
:100C5000020EDBCF14F0030EDBCF15F014C0F3FF50
:100C600015C0F4FF04D003D0F36AF46A00D0060E76
:100C7000E15C02E2E16AE552E16EE552E7CFD9FFBD
:020C8000120060
:0E0C8200D9CFE6FFE1CFD9FFFE0EDB04E96E0D
:100C9000EA6AD890E936EA36090EE926030EEA2216
:100CA000EECF14F0EFCF15F014C0F3FF15C0F4FF32
:100CB00000D0E552E7CFD9FF1200D9CFE6FFE1CF50
:100CC000D9FFFE0EDBCFE6FFE66A5FEC00F0E552EF
:100CD000E552FF0FE96EEA6AD890E936EA36170E58
:100CE000E926030EEA22EECF14F0EFCF15F014C080
:100CF000F3FF15C0F4FF00D0E552E7CFD9FF120093
:100D0000D9CFE6FFE1CFD9FF83EC13F0D00EE66E2A
:100D1000C7EC13F0E552E66AC7EC13F0E55283EC3A
:100D200013F0D10EE66EC7EC13F0E552010EE66E3D
:100D30000EEC14F0E552E66EFD0EDBCFE9FFFE0E81
:100D4000DBCFEAFFE552E750EF6E010EE66E0EECE8
:100D500014F0E552E66E010EE76EFD0EDBCFE9FF03
:100D6000FE0EDBCFEAFFE750E926000EEA22E5524D
:100D7000E750EF6E010EE66E0EEC14F0E552E66EF3
:100D8000020EE76EFD0EDBCFE9FFFE0EDBCFEAFFC2
:100D9000E750E926000EEA22E552E750EF6E010E19
:100DA000E66E0EEC14F0E552E66E030EE76EFD0EF5
:100DB000DBCFE9FFFE0EDBCFEAFFE750E926000EAE
:100DC000EA22E552E750EF6E010EE66E0EEC14F0EB
:100DD000E552E66E040EE76EFD0EDBCFE9FFFE0E78
:100DE000DBCFEAFFE750E926000EEA22E552E750A2
:100DF000EF6E010EE66E0EEC14F0E552E66E050E97
:100E0000E76EFD0EDBCFE9FFFE0EDBCFEAFFE7501A
:100E1000E926000EEA22E552E750EF6EE66A0EEC94
:100E200014F0E552E66E060EE76EFD0EDBCFE9FF2D
:100E3000FE0EDBCFEAFFE750E926000EEA22E5527C
:100E4000E750EF6E99EC13F0E552E7CFD9FF1200AF
:100E5000D9CFE6FFE1CFD9FF83EC13F0D00EE66ED9
:100E6000C7EC13F0E552E66AC7EC13F0E552FD0E4D
:100E7000DBCFE9FFFE0EDBCFEAFFEF50E66EC7ECFB
:100E800013F0E552010EE76EFD0EDBCFE9FFFE0E1B
:100E9000DBCFEAFFE750E926000EEA22EF50E66ECC
:100EA000C7EC13F0E552020EE76EFD0EDBCFE9FF53
:100EB000FE0EDBCFEAFFE750E926000EEA22EF50F4
:100EC000E66EC7EC13F0E552030EE76EFD0EDBCFC6
:100ED000E9FFFE0EDBCFEAFFE750E926000EEA222B
:100EE000EF50E66EC7EC13F0E552040EE76EFD0E10
:100EF000DBCFE9FFFE0EDBCFEAFFE750E926000E6D
:100F0000EA22EF50E66EC7EC13F0E552050EE76EED
:100F1000FD0EDBCFE9FFFE0EDBCFEAFFE750E9264F
:100F2000000EEA22EF50E66EC7EC13F0E552060E13
:100F3000E76EFD0EDBCFE9FFFE0EDBCFEAFFE750E9
:100F4000E926000EEA22EF50E66EC7EC13F0E552F8
:100F500099EC13F0E552E7CFD9FF1200D9CFE6FFA5
:100F6000E1CFD9FFFD0EDB041DE1FE0EDB50400991
:100F7000E76EFE0EE7CFDBFFFC0EDB0408E1FE0EA2
:100F8000DB502009E76EFE0EE7CFDBFF0AD0FC0E38
:100F9000DB5007E1FE0EDB50DF0BE76EFE0EE7CF06
:100FA000DBFF0AD0FD0EDB5007E1FE0EDB50BF0B6E
:100FB000E76EFE0EE7CFDBFFFE0EDB5000D0E55202
:100FC000E7CFD9FF1200D9CFE6FFE1CFD9FFFD0E61
:100FD000DBCFE9FFFE0EDBCFEAFFEE52EF50E66E0D
:100FE000FB0EDBCFE9FFFC0EDBCFEAFFEE52E55252
:100FF000E750EF6EFD0EDBCFE9FFFE0EDBCFEAFF21
:10100000EF50E66EFB0EDBCFE9FFFC0EDBCFEAFF15
:10101000E552E750EF6EFD0EDBCFE9FFFE0EDBCFB2
:10102000EAFF020EE926000EEA22EFCF14F00C0EC2
:10103000145C42E3FD0EDBCFE9FFFE0EDBCFEAFFDF
:10104000020EE926000EEA22EF50F40FE66EFB0EC8
:10105000DBCFE9FFFC0EDBCFEAFF020EE926000E34
:10106000EA22E552E750EF6EFB0EDBCFE9FFFC0E04
:10107000DBCFEAFF070EE926000EEA22010EEF6E33
:101080000C0E146EFD0EDBCFE9FFFE0EDBCFEAFF88
:10109000020EE926000EEA22EF50145C0CE1FB0E72
:1010A000DBCFE9FFFC0EDBCFEAFF020EE926000EE4
:1010B000EA220C0EEF6E4BD0FD0EDBCFE9FFFE0EE9
:1010C000DBCFEAFF020EE926000EEA22EFCF14F092
:1010D0000C0E145C3CE2FD0EDBCFE9FFFE0EDBCF15
:1010E000EAFF020EE926000EEA22EF50E66EFB0E42
:1010F000DBCFE9FFFC0EDBCFEAFF020EE926000E94
:10110000EA22E552E750EF6EFB0EDBCFE9FFFC0E63
:10111000DBCFEAFF070EE926000EEA22EF6AFD0E9A
:10112000DBCFE9FFFE0EDBCFEAFF020EE926000E61
:10113000EA22EF500CE1FB0EDBCFE9FFFC0EDBCF28
:10114000EAFF020EE926000EEA220C0EEF6EE552CF
:10115000E7CFD9FF1200D9CFE6FFE1CFD9FFFD0ECF
:10116000DBCFE9FFFE0EDBCFEAFFEE52EF50E66E7B
:10117000FB0EDBCFE9FFFC0EDBCFEAFFEE52E552C0
:10118000E750EF6EFD0EDBCFE9FFFE0EDBCFEAFF8F
:10119000EF50E66EFB0EDBCFE9FFFC0EDBCFEAFF84
:1011A000E552E750EF6EFD0EDBCFE9FFFE0EDBCF21
:1011B000EAFF070EE926000EEA22EF0436E1FD0EF3
:1011C000DBCFE9FFFE0EDBCFEAFF020EE926000EC1
:1011D000EA22EF500C0FE66EFB0EDBCFE9FFFC0EB0
:1011E000DBCFEAFF020EE926000EEA22E552E750C5
:1011F000EF6E0C0E146EFD0EDBCFE9FFFE0EDBCFA3
:10120000EAFF020EE926000EEA22EF50145C0CE120
:10121000FB0EDBCFE9FFFC0EDBCFEAFF020EE92677
:10122000000EEA220C0EEF6E3FD0FD0EDBCFE9FF81
:10123000FE0EDBCFEAFF070EE926000EEA22EF5092
:1012400033E1FD0EDBCFE9FFFE0EDBCFEAFF020E3E
:10125000E926000EEA22EF50E66EFB0EDBCFE9FF37
:10126000FC0EDBCFEAFF020EE926000EEA22E55271
:10127000E750EF6E0C0E146EFD0EDBCFE9FFFE0E95
:10128000DBCFEAFF020EE926000EEA22EF50145CE3
:101290000BE1FB0EDBCFE9FFFC0EDBCFEAFF020E1A
:1012A000E926000EEA22EF6AE552E7CFD9FF1200E5
:1012B000D9CFE6FFE1CFD9FFE652DF6AFD0EDB04AE
:1012C0000DE1FE0EDB500C0FDF6E0C0E146EFE0EE9
:1012D000DB50145C02E10C0EDF6E16D0FD0EDB500D
:1012E0000BE1FE0EDB50DF6E0C0E146EFE0EDB50BB
:1012F000145C01E1DF6A08D0AA0E146EFD0EDB500B
:10130000145C02E1AA0EDF6EDF5000D0E552E55218
:10131000E7CFD9FF1200D9CFE6FFE1CFD9FF83ECA9
:1013200013F0D00EE66EC7EC13F0E552E66AC7EC98
:1013300013F0E552050EE76EFD0EDBCFE9FFFE0E62
:10134000DBCFEAFFE750E926000EEA22EF500F0B51
:10135000146E040EE76EFD0EDBCFE9FFFE0EDBCF51
:10136000EAFFE750E926000EEA22EF500F0B100DBE
:10137000F3501410E66EC7EC13F0E552030EE76E5F
:10138000FD0EDBCFE9FFFE0EDBCFEAFFE750E926DB
:10139000000EEA22EF500F0B146E020EE76EFD0EE8
:1013A000DBCFE9FFFE0EDBCFEAFFE750E926000EB8
:1013B000EA22EF500F0B100DF3501410E66EC7EC3D
:1013C00013F0E552010EE76EFD0EDBCFE9FFFE0ED6
:1013D000DBCFEAFFE750E926000EEA22EF500F0BC1
:1013E000146EFD0EDBCFE9FFFE0EDBCFEAFFEF5000
:1013F0000F0B100DF3501410E66EC7EC13F0E5520E
:1014000099EC13F0E552E7CFD9FF1200D9CFE6FFF0
:10141000E1CFD9FF83EC13F0D00EE66EC7EC13F0EA
:10142000E552040EE66EC7EC13F0E552010EE76ECE
:10143000FD0EDBCFE9FFFE0EDBCFEAFFE750E9262A
:10144000000EEA22EF500F0B146EFD0EDBCFE9FF0A
:10145000FE0EDBCFEAFFEF500F0B100DF350141010
:10146000E66EC7EC13F0E552030EE76EFD0EDBCF20
:10147000E9FFFE0EDBCFEAFFE750E926000EEA2285
:10148000EF500F0B146E020EE76EFD0EDBCFE9FF7F
:10149000FE0EDBCFEAFFE750E926000EEA22EF500E
:1014A0000F0B100DF3501410E66EC7EC13F0E5525D
:1014B000050EE76EFD0EDBCFE9FFFE0EDBCFEAFF88
:1014C000E750E926000EEA22EF500F0B146E040ECF
:1014D000E76EFD0EDBCFE9FFFE0EDBCFEAFFE75044
:1014E000E926000EEA22EF500F0B100DF3501410F6
:1014F000E66EC7EC13F0E55299EC13F0E552E7CF36
:10150000D9FF1200D9CFE6FFE1CFD9FF83EC13F06A
:10151000D00EE66EC7EC13F0E552030EE66EC7EC94
:1015200013F0E552FE0EDBCFE6FFC7EC13F0E552F9
:1015300099EC13F0E552E7CFD9FF1200D9CFE6FFBF
:10154000E1CFD9FFE652E66AD00EE66E5FEC14F00A
:10155000E552E552DF6E7F0EDF14DF6EDFCFE6FF70
:10156000E66AD00EE66E81EC14F0E552E552E552E3
:10157000900EE66E070EE66ED00EE66E81EC14F06D
:10158000E552E552E552E552E552E7CFD9FF1200A8
:10159000870EE66E030EE66E80EC06F0E552E5522D
:1015A00003012F510301875D05E087C32FF303017A
:0615B000010E086F12009D
:0A15B600D9CFE6FFE1CFD9FF050E03
:1015C000E126FE0EDB50080802E2000E66D0FE0E99
:1015D000DBCF62F3DF6A03016251DF5C0AE2DF50B6
:1015E000EA6A5A0FE96E030EEA22A9C3EFFFDF2A67
:1015F000F2D7520E686F030E696FDF6A0B0EDF5C65
:1016000048E2010EDB6AFE0EDB50F36E010EDBCF0B
:10161000F4FFF350F45C15E2DF50EA6A9F0FE96EC5
:10162000030EEA22EF50E66E010EDB50EA6A520F1B
:10163000E96E030EEA22E552E750EF6E010EDB2A57
:10164000E2D7020EDB6A640EF36E020EDBCFF4FF0C
:10165000F350F45C1CE22DD8030EF36EF3CFDBFFE6
:10166000040EDB6A030EDBCF14F0DB06040EDBCFC7
:1016700015F001E2DB061450151006E0080EE66EC8
:1016800096EC16F0E552EED7020EDB2ADCD7DF2A05
:10169000B5D70301636B010E00D0146E050EE15C3B
:1016A00002E2E16AE552E16E1450E552E7CFD9FF5C
:1016B000120003015151010A14E0010A01E03BD07C
:1016C0006351EA6A6825E96E6951EA22EF50E66ED5
:1016D00041D9E5520301632B6251635D01E3636B02
:1016E0002AD06351EA6A6825E96E6951EA22EF500F
:1016F000E66E30D9E5520301632B6251635D01E36D
:10170000636B642B000E65236651645D67516559F8
:1017100011E3646B656B520E681902E1030E6919DF
:1017200005E15A0E686F030E696F04D0520E686FA0
:10173000030E696F00D01200D9CFE6FFE1CFD9FFC9
:10174000E652DF6ADF6A03016251DF5C16E2DF50B6
:10175000E76EFD0EDBCFE9FFFE0EDBCFEAFFE750C1
:10176000E926000EEA22EF50E66E53D9E552000951
:1017700002E1000E41D0DF2AE6D7DF6A6251DF5C6A
:1017800038E2DF50E76EFD0EDBCFE9FFFE0EDBCF68
:10179000EAFFE750E926000EEA22EF50200809E1AF
:1017A000DF50EA6A520FE96E030EEA22A9C3EFFF87
:1017B0001ED0DF50E76EFD0EDBCFE9FFFE0EDBCF64
:1017C000EAFFE750E926000EEA22EF50D00FEA6A5E
:1017D0009F0FE96E030EEA22EF50E66EDF50EA6AD1
:1017E000520FE96E030EEA22E552E750EF6EDF2A50
:1017F000C5D7636B010E00D0E552E552E7CFD9FFA4
:101800001200D9CFE6FFE1CFD9FFE652DF6ADF6AE7
:1018100003016251DF5C19E2DF50E76EFD0EDBCFA2
:10182000E9FFFE0EDBCFEAFFE750E926000EEA22D1
:10183000EF50E66EDF50EA6A520FE96E030EEA22BD
:10184000E552E750EF6EDF2AE3D7636BE552E552CE
:10185000E7CFD9FF1200D9CFE6FFE1CFD9FFE6529B
:10186000DF6AFE0EDBCF14F003016251D8801454FE
:1018700002E2000E2DD0FD0EDBCFE6FFCAD8E55206
:10188000000902E1000E24D0FD0EDB5020080AE121
:10189000FE0EDB50EA6A520FE96E030EEA22A9C37C
:1018A000EFFF14D0FD0EDB50D00FEA6A9F0FE96EF8
:1018B000030EEA22EF50E66EFE0EDB50EA6A520F8C
:1018C000E96E030EEA22E552E750EF6E010E00D0FA
:1018D000E552E552E7CFD9FF1200D9CFE6FFE1CFBD
:1018E000D9FFFD0EDBCF66F3FE0EDBCF67F3010EF3
:1018F0000F0B030105E0D89067336633E806FBE180
:101900000301646B656B010E516FE552E7CFD9FFA0
:1019100012000301520E686F030E696F516B1200C3
:10192000D9CFE6FFE1CFD9FFE652DF6A030162516A
:10193000DF5C0AE2DF50EA6A520FE96E030EEA2228
:10194000A9C3EFFFDF2AF2D7636BE552E552E7CF79
:10195000D9FF1200D9CFE6FFE1CFD9FF8080808286
:1019600080848086080EE66EDFEC16F0E552FE0EEF
:10197000DB1C836E03016351030A0DE0010A09E0D9
:10198000030A05E0010A01E008D0809006D08092A9
:1019900004D0809402D0809600D0080EE66EDFEC72
:1019A00016F0E552E552E7CFD9FF1200D9CFE6FF96
:1019B000E1CFD9FF020EE126FE0EDB50DF6EFE0EF8
:1019C000DBCFE6FFFD0EDB50E552E724DF5C17E2DC
:1019D000DF50EA6A520FE96E030EEA22010EEFCFE2
:1019E000DBFFDB508009E66EDF50EA6A520FE96EDA
:1019F000030EEA22E552E750EF6EDF2AE0D7020E2F
:101A0000E15C02E2E16AE552E16EE552E7CFD9FF1F
:101A10001200D9CFE6FFE1CFD9FFE652DF6AFE0E12
:101A2000DB50200803E1010EDF6E0ED0300EF36EA6
:101A3000FE0EDBCFF4FFF350F45C06E3FE0EDB504A
:101A4000390802E3010EDF6EDF5000D0E552E552A7
:101A5000E7CFD9FF1200D9CFE6FFE1CFD9FFE65299
:101A6000DF6AFC0EDB50DF6EFB0EDB50DF5C16E244
:101A7000DF50E76EFD0EDBCFE9FFFE0EDBCFEAFFA6
:101A8000E750E926000EEA22EF50E66EC2DFE5528B
:101A9000000902E1000E4AD0DF2AE6D7FC0EDB5037
:101AA000DF6EFB0EDBCFE6FFFC0EDB50E552E724DA
:101AB000DF5C38E2DF50E76EFD0EDBCFE9FFFE0EA4
:101AC000DBCFEAFFE750E926000EEA22EF502008BC
:101AD00009E1DF50EA6A520FE96E030EEA22A9C358
:101AE000EFFF1ED0DF50E76EFD0EDBCFE9FFFE0EED
:101AF000DBCFEAFFE750E926000EEA22EF50D00FD5
:101B0000EA6A9F0FE96E030EEA22EF50E66EDF509D
:101B1000EA6A520FE96E030EEA22E552E750EF6ED1
:101B2000DF2ABFD70301636B010E00D0E552E552F7
:101B3000E7CFD9FF1200D9CFE6FFE1CFD9FFE652B8
:101B4000FD0EDBCF66F3FE0EDBCF67F3010E0F0B4E
:101B5000030105E0D89067336633E806FBE1030133
:101B6000646B656BFC0EDB506A6F6B6BDF6A6251F6
:101B7000DF5C1CE2DF50146E156A6A51141802E132
:101B80006B51151811E0DF50EA6A520FE96E030E2F
:101B9000EA22EF50E66EDF50EA6A5A0FE96E030E52
:101BA000EA22E552E750EF6EDF2AE1D75A0E6A25A6
:101BB000E96E030E6B21EA6EEF6A010E516FE5527A
:081BC000E552E7CFD9FF120046
:081BC800D9CFE6FFE1CFD9FF00
:101BD000E652DF6A040EDF5C16E2100EDF24E66ECA
:101BE000E66AC2EC15F0E552E552E66EDF50EA6AAD
:101BF0003C0FE96E030EEA22E552E750EF6EEAEC85
:101C000016F0DF2AE7D7300E03013C5D176E300E69
:101C10003D5D0A0DF3501724156E166A300E3E5DB9
:101C2000146E300E3F5D0A0DF35014243C0DF3503A
:101C300015240301046FF4501620056F000EE66EA4
:101C4000E66AC2EC15F0E552E5520301006FEAECDA
:101C500016F0DF6A060EDF5C16E2200EDF24E66E69
:101C6000E66AC2EC15F0E552E552E66EDF50EA6A2C
:101C7000360FE96E030EEA22E552E750EF6EEAEC0A
:101C800016F0DF2AE7D76CDA010EE66EE66AC2ECE0
:101C900015F0E552E552E8B08482E8A08492EAECBF
:101CA00016F0020EE66EE66AC2EC15F0E552E55259
:101CB0000301036FEAEC16F08484E552E552E7CFA6
:101CC000D9FF1200D9CFE6FFE1CFD9FFE6520301D9
:101CD0000051010A01E105D1030A67E0020A01E0AF
:101CE000C2D1E66A54EC11F0E552010822E1DED9D6
:101CF000040EE66EE66A360EE66E030EE66E2BEC1A
:101D00000DF0E552E552E552E5522ADA84920301DC
:101D1000036B010EE66E000EE66EE66A45EC15F00A
:101D2000E552E552E552EAEC16F00301010E006FB0
:101D30003BD0010EE66E54EC11F0E55201081AE1B9
:101D4000E2D90301016B3C0EE66E030EE66E9CECDD
:101D50000BF0E552E55201C3E6FFF40EE66E010E0C
:101D6000E66E9BEC0DF0E552E552E5520301020EE2
:101D7000006F1AD0040EE66E54EC11F0E552010823
:101D800013E10301030510E184928450020B01E08A
:101D9000010EE66E010EE66EE66A45EC15F0E552C0
:101DA000E552E552EAEC16F05ED1020EE66E54EC16
:101DB00011F0E552010811E10301012B0151030863
:101DC00001E2016B01C3E6FFF40EE66E010EE66E62
:101DD0009BEC0DF0E552E552E552030EE66E54EC35
:101DE00011F0E55201082AE103010151EA6A3C0FB2
:101DF000E96E030EEA22EF2A0151EA6A3C0FE96E0E
:101E0000030EEA22EFCF14F00151EA6A400FE96EA7
:101E1000030EEA22EF50D880145408E20151EA6A16
:101E20003C0FE96E030EEA22300EEF6E3C0EE66EBA
:101E3000030EE66E9CEC0BF0E552E552010EE66EE9
:101E400054EC11F0E55201084BE189EC0CF03C0E2A
:101E5000E66E030EE66E9CEC0BF0E552E552DF6A8F
:101E6000040EDF5C15E2DF50EA6A3C0FE96E030EF8
:101E7000EA22EF50E66E100EDF24E66EE66A45ECCD
:101E800015F0E552E552E552EAEC16F0DF2AE8D704
:101E9000300E03013C5D176E300E3D5D0A0DF350B0
:101EA0001724156E166A300E3E5D146E300E3F5DBF
:101EB0000A0DF35014243C0DF35015240301046F54
:101EC000F4501620056FE66A000EE66EE66A45ECF1
:101ED00015F0E552E552E552EAEC16F00301006B0D
:101EE000C2D0026BE66A54EC11F0E55201080EE133
:101EF000E66A000EE66EE66A45EC15F0E552E5523C
:101F0000E552EAEC16F00301006BADD0040EE66E6C
:101F100054EC11F0E552010813E10301030510E14F
:101F200084928450020B01E0010EE66E010EE66E13
:101F3000E66A45EC15F0E552E552E552EAEC16F09A
:101F4000440EE66E030EE66E80EC06F0E552E552B6
:101F50008FD8DF6A060EDF5C15E2DF50EA6A360FC3
:101F6000E96E030EEA22EF50E66E200EDF24E66EE5
:101F7000E66A45EC15F0E552E552E552EAEC16F05A
:101F8000DF2AE8D703014651000803E2360E39275D
:101F900002D0300E3927300E365D176E300E375DA9
:101FA0000A0DF3501724156E166A300E385D146E44
:101FB000300E395D0A0DF35014243C0DF3501524F6
:101FC0000301066FF4501620076F035107E1045117
:101FD000065D0551075902E3010E026F02051EE17D
:101FE0008482010E036F8450020B01E0010EE66E45
:101FF000010EE66EE66A45EC15F0E552E552E55253
:10200000EAEC16F003C3E6FF020EE66EE66A45EC64
:1020100015F0E552E552E552EAEC16F0040EE66ED4
:10202000E66A360EE66E030EE66E2BEC0DF0E55218
:10203000E552E552E5520301460514E1390E455DCE
:1020400011E1590E445D0EE1E66A000EE66EE66AA5
:1020500045EC15F0E552E552E552EAEC16F00301C5
:10206000006B01D000D0E552E552E7CFD9FF120056
:102070000F0E03014415300F366FF00E4415E8388B
:102080000F0B300F376F0F0E4515300F386FF00EF6
:102090004515E8380F0B396F0F0E4615300F3A6FA4
:1020A000300E4615E8380F0B3B6F1200D9CFE6FF14
:1020B000E1CFD9FF020EE126DE6ADD6ADECF14F041
:1020C000DDCF15F0D890155004E6060E145C000E16
:1020D00015580FE2DECFE9FFDDCFEAFF360EE92625
:1020E000030EEA22300EEF6EDF2A010E01E3DB2A37
:1020F000E5D7020EE15C02E2E16AE552E16EE552EB
:10210000E7CFD9FF1200D9CFE6FFE1CFD9FF020E0A
:10211000E126DE6ADD6ADECF14F0DDCF15F0D8905F
:10212000155004E6040E145C000E15580FE2DECFC5
:10213000E9FFDDCFEAFF3C0EE926030EEA22300E6E
:10214000EF6EDF2A010E01E3DB2AE5D7020EE15C28
:1021500002E2E16AE552E16EE552E7CFD9FF1200F3
:10216000300E0301365D146E300E375D100DF350E6
:1021700014104A6F300E385D146E300E395D100D3C
:10218000F35014104B6F300E3A5D146E300E3B5D01
:10219000100DF35014104C6F4A0EE66E030EE66EEF
:0A21A00028EC07F0E552E5521200AA
:0621AA00D9CFE6FFE1CFF2
:1021B000D9FFE6528DD8DF6A050EDF5C09E2DF50F9
:1021C000EA6A900FE96E030EEA22EF6ADF2AF4D77B
:1021D000E552E552E7CFD9FF1200D9CFE6FFE1CFB4
:1021E000D9FF9BD8FC0EDBCFE6FFFD0EDBCFE6FF71
:1021F000FE0EDBCFE6FFAAD8E552E552E552E552E6
:10220000E7CFD9FF1200D9CFE6FFE1CFD9FFE652E1
:10221000FC0EDB50DF6EFB0EDB50D880DF541AE380
:102220007CD8DFCFE6FF176ADF34FE0B1736166E59
:10223000FD0EDB501624146EFE0EDB501720156EBB
:1022400014C0E6FF15C0E6FF81D8E552E552E5521D
:10225000DF2AE1D7E552E552E7CFD9FF1200D9CF07
:10226000E6FFE1CFD9FFE652DF6A57D8DF6A050EF5
:10227000DF5C15E2DFCFE6FF156ADF34FE0B1536B3
:10228000146E950E1426030E152214C0E6FF15C019
:10229000E6FF5CD8E552E552E552DF2AE8D7E55281
:1022A000E552E7CFD9FF1200D9CFE6FFE1CFD9FF42
:1022B000FE0EEA6ADB34FE0BEA36E96E950EE9267D
:1022C000030EEA22EF5000D0E552E7CFD9FF12000B
:1022D000D9CFE6FFE1CFD9FFE652DF6A050EDF5C1A
:1022E00017E2EA6ADF34FE0BEA36E96E950EE9265C
:1022F000030EEA22EF6AEA6ADF34FE0BEA36E96E81
:10230000950EE926030EEA22EE52EF6ADF2AE6D79F
:10231000E552E552E7CFD9FF12008150010B0301CE
:10232000906F8150020B01E0010E916F8150040B00
:1023300001E0010E926F8150080B01E0010E936FD6
:102340008150100B01E0010E946F1200D9CFE6FF0F
:10235000E1CFD9FFFD0EDBCFE9FFFE0EDBCFEAFFB9
:10236000EF50010A3DE0010A01E074D0FC0EDB50A1
:10237000EA6A900FE96E030EEA22EF50010B27E1A3
:10238000FD0EDBCFE9FFFE0EDBCFEAFFEE52EF2AB8
:10239000FD0EDBCFE9FFFE0EDBCFEAFFEECF14F040
:1023A000EFCF15F0020E0001155C10E3FD0EDBCF40
:1023B000E9FFFE0EDBCFEAFF010EEF6EFD0EDBCF75
:1023C000E9FFFE0EDBCFEAFFEE52EF6A08D0FD0E0A
:1023D000DBCFE9FFFE0EDBCFEAFFEE52EF6A3AD029
:1023E000FC0EDB50EA6A900FE96E030EEA22EF5012
:1023F000010B010826E1FD0EDBCFE9FFFE0EDBCF6E
:10240000EAFFEE52EF2AFD0EDBCFE9FFFE0EDBCF37
:10241000EAFFEECF14F0EFCF15F0020E0001155CCD
:102420000FE3FD0EDBCFE9FFFE0EDBCFEAFFEF6A25
:10243000FD0EDBCFE9FFFE0EDBCFEAFFEE52EF6AC7
:1024400008D0FD0EDBCFE9FFFE0EDBCFEAFFEE5238
:0C245000EF6A00D0E552E7CFD9FF120080
:04245C00DACFE4FFF0
:10246000E2CFDAFFE9CFE4FFEACFE4FFF6CFE4FF03
:10247000F7CFE4FFF5CFE4FFF3CFE4FFF4CFE4FFC1
:10248000FACFE4FF00EE00F0140EE80403E3EECF11
:10249000E4FFFBD700EE14F0080EE80403E3EECFF0
:1024A000E4FFFBD7E652F2940301742B000E752370
:1024B000762B7723782B79237A077B5B7B3504E2B5
:1024C0007A510008000E7B5508E37C2B000E7D231B
:1024D0007E237F23C80E7A6F7B6B6E516F1107E0EE
:1024E00005D06FC3FAFF03016E51F96EFADF6CC3BA
:1024F000E6FF6DC3E6FF5EEC16F0E552E552E552ED
:1025000000EE1BF0080EE80403E3E5CFEDFFFBD778
:1025100000EE13F0140EE80403E3E5CFEDFFFBD764
:10252000E5CFFAFFE5CFF4FFE5CFF3FFE5CFF5FF09
:10253000E5CFF7FFE5CFF6FFE5CFEAFFE5CFE9FF0F
:10254000E5CFDAFF1100DACFE4FFE2CFDAFFE9CF1F
:10255000E4FFEACFE4FFF6CFE4FFF7CFE4FFF5CFE7
:10256000E4FFF3CFE4FFF4CFE4FFFACFE4FF00EEA3
:1025700000F0140EE80403E3EECFE4FFFBD700EE17
:1025800014F0080EE80403E3EECFE4FFFBD7E652B5
:102590009E9070C3E6FF71C3E6FF42EC16F0E55271
:1025A000E55203017251731107E005D073C3FAFFBE
:1025B00003017251F96EFADFE55200EE1BF0080ECE
:1025C000E80403E3E5CFEDFFFBD700EE13F0140EB4
:1025D000E80403E3E5CFEDFFFBD7E5CFFAFFE5CF56
:1025E000F4FFE5CFF3FFE5CFF5FFE5CFF7FFE5CF4C
:1025F000F6FFE5CFEAFFE5CFE9FFE5CFDAFF11000F
:10260000D9CFE6FFE1CFD9FF9F0EE66E7AEC16F048
:10261000E552FD0EDBCF6CF3FE0EDBCF6DF3FB0E50
:10262000DBCF6EF3FC0EDBCF6FF3FD0EDBCFE6FFEF
:10263000FE0EDBCFE6FF5EEC16F0E552E552E5520A
:10264000E7CFD9FF1200D9CFE6FFE1CFD9FFC50E02
:10265000E66EE4EC15F0E552FD0EDBCFE6FFFE0E74
:10266000DBCFE6FF42EC16F0E552E5529F80FD0E0F
:10267000DBCF70F3FE0EDBCF71F3FB0EDBCF72F31B
:10268000FC0EDBCF73F3E552E7CFD9FF1200D9CFB1
:10269000E6FFE1CFD9FF040EE126F29A7CC3DFFF0B
:1026A000010E7DC3DBFF020E7EC3DBFF030E7FC383
:1026B000DBFFF28ADECF06F0DECF07F0DECF08F0D8
:1026C000DDCF09F0DD52DD52040EE15C03E200D003
:1026D000E16AE552E16EE552E7CFD9FF1200F29EC2
:0E26E00003017C6B7D6B7E6B7F6BF28E1200B4
:0226EE00C76AB9
:1026F000C78E590EC86E280EC66EC56A9E96A196E4
:102700009486948812009496949882888286050E06
:10271000E66EDFEC16F0E5528298050EE66EDFEC11
:1027200016F0E5528296050EE66EDFEC16F0E552E5
:102730001200949694988298050EE66EDFEC16F0DF
:10274000E5528286050EE66EDFEC16F0E5528288D1
:102750001200D9CFE6FFE1CFD9FFE65294969488D4
:10276000DF6ADF500A080EE3050EE66EDFEC16F0B6
:10277000E5528286050EE66EDFEC16F0E552829693
:10278000DF2AEFD7E552E552E7CFD9FF1200D9CFC4
:10279000E6FFE1CFD9FFE65294969498DF6A080EDF
:1027A000DF5C25E2FE0EDB50800B02E0010E01D063
:1027B000000EE8B08288E8A08298030EE66EDFEC97
:1027C00016F0E5528286060EE66EDFEC16F0E55254
:1027D0008296020EE66EDFEC16F0E552FE0EDBCFBF
:1027E000F3FFF39EF346F3CFDBFFDF2AD8D79488BD
:1027F000020EE66EDFEC16F0E5528286060EE66EFD
:10280000DFEC16F0E5528296060EE66EDFEC16F06F
:10281000E552E552E552E7CFD9FF1200D9CFE6FFE6
:10282000E1CFD9FF020EE126DF6A9496949894884E
:10283000010EDB6A080EF36E010EDBCFF4FFF350DE
:10284000F45C17E28286060EE66EDFEC16F0E552C7
:10285000DF9EDF468250100B01E0010EDF10DF6EBD
:102860008296060EE66EDFEC16F0E552010EDB2ACC
:10287000E1D79498FE0EDB0402E1829801D08288B1
:10288000020EE66EDFEC16F0E5528286060EE66E6C
:10289000DFEC16F0E5528296060EE66EDFEC16F0DF
:1028A000E552DF50146E020EE15C03E200D0E16AF3
:1028B000E552E16E1450E552E7CFD9FF1200D9CFAF
:1028C000E6FFE1CFD9FFE6521EDFFE0EDBCFE6FFCB
:1028D0005EDFE552FD0EDBCFE6FF59DFE55213DF89
:1028E000FE0EDB28E66E53DFE552E66A97DFE5521F
:1028F000DF6E1FDFDF5000D0E552E552E7CFD9FF92
:102900001200D9CFE6FFE1CFD9FFFDDEFE0EDBCF0F
:10291000E6FF3DDFE552FD0EDBCFE6FF38DFE55297
:10292000FC0EDBCFE6FF33DFE55203DFE552E7CFF6
:04293000D9FF1200B9
:0C293400D9CFE6FFE1CFD9FF040EE12669
:10294000DF6A030EDB6A05EC16F09EEC0AF0D5ECAC
:1029500010F0040EE66EDBEC0AF0E552000EE66EB7
:10296000E66ABF0EE66EE00EE66E00EC13F0E5528E
:10297000E552E552E552B20EE66E160EE66E770EA1
:10298000E66EEC0EE66E23EC13F0E552E552E552EE
:10299000E552E4EC0DF00DEC00F0F28E0301580E60
:1029A000745D020E755905E3D5EC16F00301746BE6
:1029B000756B03010A0E765D000E775906E32FEC66
:1029C00011F00301766B776BDF2A320EDF5C03E3D5
:1029D00062EC0EF0DF6AE2D7040EE15C02E2E16A2B
:0C29E000E552E16EE552E7CFD9FF12008E
:0429EC00500EF66E25
:1029F000000EF76E000EF86E03010900F550AF6F80
:102A00000900F550B06F03E1AF6701D03DD0090078
:102A1000F550AA6F0900F550AB6F0900F550AC6F87
:102A200009000900F550E96E0900F550EA6E090049
:102A300009000900F550AD6F0900F550AE6F0900AF
:102A40000900F6CFB1F3F7CFB2F3F8CFB3F3AAC3CF
:102A5000F6FFABC3F7FFACC3F8FF0301AD5302E1D0
:102A6000AE5307E00900F550EE6EAD07F8E2AE0791
:102A7000F9D7B1C3F6FFB2C3F7FFB3C3F8FF030141
:0A2A8000AF07000EB05BBFD71200D5
:062A8A00D9CFE6FFDACF10
:102A9000E6FFE1CFD9FFE2CFDAFFE652DF6AFF0EB1
:102AA000E76EFC0EDBCF14F0E75014161450A96E3D
:102AB000FB0EDB50A86EA69EA69CA684F250800B4F
:102AC00001E0010EDF6EF29E550EA76EAA0EA76EF4
:102AD000A682A6B2FED7DF50E8B0F28EE8A0F29E42
:102AE000A694E552E552E5CFDAFFE7CFD9FF120011
:102AF000446563004E6F76004F6374005365700049
:102B0000417567004A756C004A756E004D61790029
:102B1000417072004D617200466562004A616E004C
:102B2000536174004672690054687500576564000B
:0C2B3000547565004D6F6E0053756E000B
:042B3C00056A046AB8
:102B4000036A026A200EE76ED8900636073608360A
:102B5000093602360336043605360B50025C0C503B
:102B600003580D5004580E50055809E30B50025EEF
:102B70000C50035A0D50045A0E50055A062AE72EDF
:042B8000E4D7120084
:0C2B8400D9CFE6FFDACFE6FFE1CFD9FFA2
:102B9000E2CFDAFFFF0EE76EFC0EDBCF14F0FD0E86
:102BA000DBCF15F0E7501416156A1450A96EA69CD9
:102BB000A69EA68000000000A85000D0E552E5CFF8
:082BC000DAFFE7CFD9FF120094
:082BC800D9CFE6FFDACFE6FFEA
:102BD000E1CFD9FFE2CFDAFFFD0EDB507E0BCD6EE9
:102BE000FD0EDBAC02D0CD8E01D0CD9ECF6ACE6A79
:102BF0009E90DBAE02D09D8001D09D90CD80E552AD
:0A2C0000E5CFDAFFE7CFD9FF12009D
:062C0A00C26A0F0EC16E4C
:102C1000B50EC06E700ED3129B8C9490949C948EC3
:102C2000956A9290929292949296938093829384D2
:102C300093869388938C938C938E94969498969085
:082C4000969496928492120012
:082C480008C012F008500D0253
:102C5000F4CF07F0F3CF06F009500E02F4CF09F0DD
:102C6000F3CF08F00D02F3500726F4500822E86A6B
:102C7000092212500E02F3500726F4500822E86A87
:042C80000922000C19
:0C2C8400D9CFE6FFDACFE6FFE1CFD9FFA1
:102C9000E2CFDAFFE652E652FC0EDBCFDEFFDBCFFF
:102CA000DDFF010EDB50CF6EDF50CE6EE552E552F8
:0C2CB000E552E5CFDAFFE7CFD9FF1200B4
:042CBC00D9CFE6FF87
:102CC000DACFE6FFE1CFD9FFE2CFDAFFE652E652F4
:102CD000FC0EDBCFDEFFDBCFDDFF010EDB50D76E5E
:102CE000DF50D66EE552E552E552E5CFDAFFE7CF89
:042CF000D9FF1200F6
:0C2CF400D9CFE6FFDACFE6FFE1CFD9FF31
:102D0000E2CFDAFFFD0EDB507F0BD56ED76AD66AB5
:102D1000F294FD0EDBAE02D0F28A01D0F29AD58E8B
:0C2D2000E552E5CFDAFFE7CFD9FF120043
:042D2C00FF0EE35063
:102D30001C6E480E01D04C0EE76EE72EFED7E76AF8
:0C2D4000E72EFED71C2EF7D70000120073
:042D4C00000EF36E14
:102D500000EE00F0060E01D81200EA6002D0EE6A22
:0C2D6000FCD7F350E9601200EE6AFCD7CB
:042D6C0010EE80F0F5
:102D700020EE80F0F86A019CF6EC14F003EC00F011
:082D80009AEC14F0FBD71200DD
:082D8800056A080EE76ED89001
:102D9000093605360E50055C02E3056E092AE72E5A
:042DA000F7D712004F
:0C2DA4000301BE6B12000301BE0503E139
:0E2DB000BE6B849003D0010EBE6F84801200B3
:022DBE00FF0E06
:102DC000E350E84E1200000000D000D000D0E82E02
:042DD000FAD712001C
:062DD400A6B2FED71200BA
:062DDA00000000000000F3
:022DE0000000F1
:0E2DE2000000000000000000000000000000E3
:012DF00000E2
:0F2DF100000000000000000000000000000000D3
:0C2E0000000000000000000000000000C6
:042E0C0000000000C2
:102E100000000000000000000000C80000000000EA
:102E200000382B342B302B2C2B282B242B202B1C25
:102E30002B182B142B102B0C2B082B042B002BFCEA
:082E40002AF82AF42AF02A0006
:082E48004944454F4E49435334
:012E50000081
:0B2E51003F065B4F666D7D077F6F0042
:042E5C000000000072
:102E60000000000000000000000000003935393982
:0D2E7000000000000000505900032712135D
:020000040030CA
:0100010008F6
:010002001BE2
:0100030012EA
:010005008179
:010006008178
:010008000FE8
:01000900C036
:01000A000FE6
:01000B00E014
:01000C000FE4
:01000D0040B2
:00000001FF
